{
  "contractName": "IdentityManager",
  "abi": [
    {
      "constant": false,
      "inputs": [
        {
          "name": "account",
          "type": "address"
        }
      ],
      "name": "convertAddress",
      "outputs": [
        {
          "name": "identifier",
          "type": "uint256"
        }
      ],
      "payable": false,
      "stateMutability": "nonpayable",
      "type": "function"
    },
    {
      "constant": true,
      "inputs": [
        {
          "name": "account",
          "type": "address"
        }
      ],
      "name": "getIdentity",
      "outputs": [
        {
          "name": "identifier",
          "type": "uint256"
        }
      ],
      "payable": false,
      "stateMutability": "view",
      "type": "function"
    },
    {
      "constant": true,
      "inputs": [
        {
          "name": "identifier",
          "type": "uint256"
        }
      ],
      "name": "identityExists",
      "outputs": [
        {
          "name": "exists",
          "type": "bool"
        }
      ],
      "payable": false,
      "stateMutability": "view",
      "type": "function"
    },
    {
      "constant": true,
      "inputs": [
        {
          "name": "account",
          "type": "address"
        }
      ],
      "name": "addressKnown",
      "outputs": [
        {
          "name": "",
          "type": "bool"
        }
      ],
      "payable": false,
      "stateMutability": "view",
      "type": "function"
    },
    {
      "constant": true,
      "inputs": [
        {
          "name": "identifier",
          "type": "uint256"
        },
        {
          "name": "account",
          "type": "address"
        }
      ],
      "name": "equals",
      "outputs": [
        {
          "name": "",
          "type": "bool"
        }
      ],
      "payable": false,
      "stateMutability": "view",
      "type": "function"
    },
    {
      "anonymous": false,
      "inputs": [
        {
          "indexed": false,
          "name": "newIdentity",
          "type": "address"
        }
      ],
      "name": "IdentityCreated",
      "type": "event"
    }
  ],
  "bytecode": "0x60606040526000600255341561001457600080fd5b611537806100236000396000f30060606040526004361061006d576000357c0100000000000000000000000000000000000000000000000000000000900463ffffffff1680632748c1c2146100725780632fea7b81146100bf5780635b5aed3a1461010c578063b5e6d5cb14610147578063cc48927a14610198575b600080fd5b341561007d57600080fd5b6100a9600480803573ffffffffffffffffffffffffffffffffffffffff169060200190919050506101f2565b6040518082815260200191505060405180910390f35b34156100ca57600080fd5b6100f6600480803573ffffffffffffffffffffffffffffffffffffffff169060200190919050506102bb565b6040518082815260200191505060405180910390f35b341561011757600080fd5b61012d6004808035906020019091905050610304565b604051808215151515815260200191505060405180910390f35b341561015257600080fd5b61017e600480803573ffffffffffffffffffffffffffffffffffffffff16906020019091905050610359565b604051808215151515815260200191505060405180910390f35b34156101a357600080fd5b6101d8600480803590602001909190803573ffffffffffffffffffffffffffffffffffffffff169060200190919050506103a4565b604051808215151515815260200191505060405180910390f35b6000806101fe83610359565b15156102735761020d83610419565b90507fac993fde3b9423ff59e4a23cded8e89074c9c8740920d1d870f586ba7c5c8cf081604051808273ffffffffffffffffffffffffffffffffffffffff1673ffffffffffffffffffffffffffffffffffffffff16815260200191505060405180910390a15b600160008473ffffffffffffffffffffffffffffffffffffffff1673ffffffffffffffffffffffffffffffffffffffff16815260200190815260200160002054915050919050565b6000600160008373ffffffffffffffffffffffffffffffffffffffff1673ffffffffffffffffffffffffffffffffffffffff168152602001908152602001600020549050919050565b60008060008084815260200190815260200160002060009054906101000a900473ffffffffffffffffffffffffffffffffffffffff1673ffffffffffffffffffffffffffffffffffffffff1614159050919050565b600080600160008473ffffffffffffffffffffffffffffffffffffffff1673ffffffffffffffffffffffffffffffffffffffff16815260200190815260200160002054119050919050565b60006103af82610359565b80156103c057506103bf83610304565b5b1561040e57600160008373ffffffffffffffffffffffffffffffffffffffff1673ffffffffffffffffffffffffffffffffffffffff1681526020019081526020016000205483149050610413565b600090505b92915050565b6000806000600260008154600101919050819055915083610438610525565b808273ffffffffffffffffffffffffffffffffffffffff1673ffffffffffffffffffffffffffffffffffffffff168152602001915050604051809103906000f080151561048457600080fd5b90508060008084815260200190815260200160002060006101000a81548173ffffffffffffffffffffffffffffffffffffffff021916908373ffffffffffffffffffffffffffffffffffffffff16021790555081600160008373ffffffffffffffffffffffffffffffffffffffff1673ffffffffffffffffffffffffffffffffffffffff168152602001908152602001600020819055508092505050919050565b604051610fd6806105368339019056006060604052341561000f57600080fd5b604051602080610fd68339810160405280805190602001909190505080600160006101000a81548173ffffffffffffffffffffffffffffffffffffffff021916908373ffffffffffffffffffffffffffffffffffffffff16021790555050610f5a8061007c6000396000f3006060604052600436106100a4576000357c0100000000000000000000000000000000000000000000000000000000900463ffffffff1680630cd865ec146100a95780632f54bf6e146100fa5780634d0a5dbd1461014b5780636851e18b1461018457806379552bea146101bd578063960384a01461022e57806397128e00146102a6578063a6385803146102f7578063db8264801461035d578063e074bb47146103ae575b600080fd5b34156100b457600080fd5b6100e0600480803573ffffffffffffffffffffffffffffffffffffffff169060200190919050506103e7565b604051808215151515815260200191505060405180910390f35b341561010557600080fd5b610131600480803573ffffffffffffffffffffffffffffffffffffffff1690602001909190505061045b565b604051808215151515815260200191505060405180910390f35b341561015657600080fd5b610182600480803573ffffffffffffffffffffffffffffffffffffffff169060200190919050506104b5565b005b341561018f57600080fd5b6101bb600480803573ffffffffffffffffffffffffffffffffffffffff16906020019091905050610523565b005b34156101c857600080fd5b610218600480803590602001908201803590602001908080601f016020809104026020016040519081016040528093929190818152602001838380828437820191505050505050919050506105b2565b6040518082815260200191505060405180910390f35b341561023957600080fd5b610289600480803590602001908201803590602001908080601f0160208091040260200160405190810160405280939291908181526020018383808284378201915050505050509190505061062a565b604051808381526020018281526020019250505060405180910390f35b34156102b157600080fd5b6102dd600480803573ffffffffffffffffffffffffffffffffffffffff16906020019091905050610945565b604051808215151515815260200191505060405180910390f35b341561030257600080fd5b61035b600480803590602001908201803590602001908080601f016020809104026020016040519081016040528093929190818152602001838380828437820191505050505050919080359060200190919050506109aa565b005b341561036857600080fd5b610394600480803573ffffffffffffffffffffffffffffffffffffffff16906020019091905050610c17565b604051808215151515815260200191505060405180910390f35b34156103b957600080fd5b6103e5600480803573ffffffffffffffffffffffffffffffffffffffff16906020019091905050610d22565b005b60006103f233610d90565b8061040257506104013361045b565b5b156104515781600160006101000a81548173ffffffffffffffffffffffffffffffffffffffff021916908373ffffffffffffffffffffffffffffffffffffffff16021790555060019050610456565b600090505b919050565b6000600160009054906101000a900473ffffffffffffffffffffffffffffffffffffffff1673ffffffffffffffffffffffffffffffffffffffff168273ffffffffffffffffffffffffffffffffffffffff16149050919050565b6104be3361045b565b15156104c957600080fd5b60016000808373ffffffffffffffffffffffffffffffffffffffff1673ffffffffffffffffffffffffffffffffffffffff16815260200190815260200160002060006101000a81548160ff02191690831515021790555050565b61052c3361045b565b151561053757600080fd5b61054081610d90565b15151561054c57600080fd5b600280548060010182816105609190610eb5565b9160005260206000209001600083909190916101000a81548173ffffffffffffffffffffffffffffffffffffffff021916908373ffffffffffffffffffffffffffffffffffffffff1602179055505050565b60006003826040518082805190602001908083835b6020831015156105ec57805182526020820191506020810190506020830392506105c7565b6001836020036101000a0380198251168184511680821785525050505050509050019150509081526020016040518091039020600001549050919050565b6000806000610637610ee1565b600080600080336000808273ffffffffffffffffffffffffffffffffffffffff1673ffffffffffffffffffffffffffffffffffffffff16815260200190815260200160002060009054906101000a900460ff168061069a57506106998161045b565b5b15156106a557600080fd5b6106ae8a6105b2565b9650866040518059106106be5750595b90808252806020026020018201604052509550600093505b60038a6040518082805190602001908083835b60208310151561070e57805182526020820191506020810190506020830392506106e9565b6001836020036101000a0380198251168184511680821785525050505050509050019150509081526020016040518091039020600201805490508410156108d35760038a6040518082805190602001908083835b6020831015156107875780518252602082019150602081019050602083039250610762565b6001836020036101000a0380198251168184511680821785525050505050509050019150509081526020016040518091039020600101600060038c6040518082805190602001908083835b6020831015156107f757805182526020820191506020810190506020830392506107d2565b6001836020036101000a03801982511681845116808217855250505050505090500191505090815260200160405180910390206002018681548110151561083a57fe5b906000526020600020900160009054906101000a900473ffffffffffffffffffffffffffffffffffffffff1673ffffffffffffffffffffffffffffffffffffffff1673ffffffffffffffffffffffffffffffffffffffff16815260200190815260200160002054945085858151811015156108b157fe5b90602001906020020180518091906001018152505083806001019450506106d6565b6000925060009150600093505b8551841015610933578286858151811015156108f857fe5b90602001906020020151111561092657839150858481518110151561091957fe5b9060200190602002015192505b83806001019450506108e0565b81839850985050505050505050915091565b60008060008373ffffffffffffffffffffffffffffffffffffffff1673ffffffffffffffffffffffffffffffffffffffff16815260200190815260200160002060009054906101000a900460ff16806109a357506109a28261045b565b5b9050919050565b6003826040518082805190602001908083835b6020831015156109e257805182526020820191506020810190506020830392506109bd565b6001836020036101000a03801982511681845116808217855250505050505090500191505090815260200160405180910390206002018054806001018281610a2a9190610eb5565b9160005260206000209001600033909190916101000a81548173ffffffffffffffffffffffffffffffffffffffff021916908373ffffffffffffffffffffffffffffffffffffffff16021790555050806003836040518082805190602001908083835b602083101515610ab25780518252602082019150602081019050602083039250610a8d565b6001836020036101000a038019825116818451168082178552505050505050905001915050908152602001604051809103902060010160003373ffffffffffffffffffffffffffffffffffffffff1673ffffffffffffffffffffffffffffffffffffffff16815260200190815260200160002081905550806003836040518082805190602001908083835b602083101515610b625780518252602082019150602081019050602083039250610b3d565b6001836020036101000a0380198251168184511680821785525050505050509050019150509081526020016040518091039020600001541015610c1357806003836040518082805190602001908083835b602083101515610bd85780518252602082019150602081019050602083039250610bb3565b6001836020036101000a0380198251168184511680821785525050505050509050019150509081526020016040518091039020600001819055505b5050565b600080610c233361045b565b1515610c2e57600080fd5b82610c3881610d90565b1515610c4357600080fd5b600091505b600280549050821015610d16578373ffffffffffffffffffffffffffffffffffffffff16600283815481101515610c7b57fe5b906000526020600020900160009054906101000a900473ffffffffffffffffffffffffffffffffffffffff1673ffffffffffffffffffffffffffffffffffffffff161415610d0957600282815481101515610cd257fe5b906000526020600020900160006101000a81549073ffffffffffffffffffffffffffffffffffffffff021916905560019250610d1b565b8180600101925050610c48565b600092505b5050919050565b610d2b3361045b565b1515610d3657600080fd5b60008060008373ffffffffffffffffffffffffffffffffffffffff1673ffffffffffffffffffffffffffffffffffffffff16815260200190815260200160002060006101000a81548160ff02191690831515021790555050565b6000610d9a610ef5565b6000610da4610e21565b9150600090505b8151811015610e15578181815181101515610dc257fe5b9060200190602002015173ffffffffffffffffffffffffffffffffffffffff168473ffffffffffffffffffffffffffffffffffffffff161415610e085760019250610e1a565b8080600101915050610dab565b600092505b5050919050565b610e29610ef5565b6002805480602002602001604051908101604052809291908181526020018280548015610eab57602002820191906000526020600020905b8160009054906101000a900473ffffffffffffffffffffffffffffffffffffffff1673ffffffffffffffffffffffffffffffffffffffff1681526020019060010190808311610e61575b5050505050905090565b815481835581811511610edc57818360005260206000209182019101610edb9190610f09565b5b505050565b602060405190810160405280600081525090565b602060405190810160405280600081525090565b610f2b91905b80821115610f27576000816000905550600101610f0f565b5090565b905600a165627a7a72305820674c500c36f41d6bc92b2109b973f19e2cc7cb8596f683aecb0d22873ad790500029a165627a7a72305820edba043a0d767b0e173a23e60baa3a5854ff3fcbbb5dbcb96ef98294ff36b8ea0029",
  "source": "pragma solidity ^0.4.17;\r\n\r\nimport { Identity } from './Identity.sol'; \r\n\r\n/**\r\n    Contract to map identities to uints\r\n */\r\ncontract IdentityManager {\r\n    // Added for testing purposes\r\n    event IdentityCreated(address newIdentity);\r\n\r\n    // double reference for quick searching\r\n    mapping ( uint => Identity ) _identities;\r\n    mapping ( address => uint ) _index;\r\n    uint _currentIndex = 0;\r\n\r\n    modifier requiresExistanceOf(uint index) {\r\n        require(identityExists(index));\r\n        _;\r\n    }\r\n\r\n    modifier requiresIdentity(Identity instance) {\r\n        // TODO make actual check. Now only checks if address is not null\r\n        require(address(instance) != 0);\r\n        _;   \r\n    }\r\n\r\n    function addressKnown(address account) public view returns (bool) {\r\n        return _index[account] > 0;\r\n    }\r\n\r\n    function convertAddress(address account) public returns (uint identifier) {\r\n        if (!addressKnown(account)) {\r\n            address newIdentity = createIdentity(account);\r\n            IdentityCreated(newIdentity);\r\n        }\r\n        return _index[account];\r\n    }\r\n\r\n    function createIdentity(address account) private returns (Identity) {\r\n        uint index = ++_currentIndex;\r\n        Identity identity = new Identity(account);\r\n        _identities[index] = identity; \r\n        _index[address(identity)] = index;\r\n        return identity;\r\n    }\r\n\r\n    function equals(uint identifier, address account) public view returns (bool) {\r\n        if (addressKnown(account) && identityExists(identifier)) {\r\n            return identifier == _index[account];\r\n        }\r\n        return false;\r\n    }\r\n\r\n    function getAddress(uint identifier) private view returns (address account) {\r\n        return address(_identities[identifier]);\r\n    }\r\n\r\n    function getIdentity(address account) public view returns (uint identifier) {\r\n        return _index[account];\r\n    }\r\n\r\n    function identityExists(uint identifier) public view returns (bool exists) {\r\n        return address(_identities[identifier]) != 0;\r\n    }\r\n\r\n}",
  "sourcePath": "C:\\Users\\Martijn.Doornik\\Projects\\proofs-of-concept\\poc10-recoverable-consensus-network\\contracts\\IdentityManager.sol",
  "compiler": {
    "name": "solc",
    "version": "0.4.18+commit.9cf6e910.Emscripten.clang"
  },
  "schemaVersion": "1.0.1",
  "updatedAt": "2017-12-08T15:02:43.336Z"
}