{
  "contractName": "Identity",
  "abi": [
    {
      "constant": false,
      "inputs": [
        {
          "name": "newOwner",
          "type": "address"
        }
      ],
      "name": "setOwner",
      "outputs": [],
      "payable": false,
      "stateMutability": "nonpayable",
      "type": "function"
    },
    {
      "constant": true,
      "inputs": [
        {
          "name": "account",
          "type": "address"
        }
      ],
      "name": "isOwner",
      "outputs": [
        {
          "name": "",
          "type": "bool"
        }
      ],
      "payable": false,
      "stateMutability": "view",
      "type": "function"
    },
    {
      "constant": false,
      "inputs": [
        {
          "name": "caller",
          "type": "address"
        }
      ],
      "name": "addPermission",
      "outputs": [],
      "payable": false,
      "stateMutability": "nonpayable",
      "type": "function"
    },
    {
      "constant": true,
      "inputs": [
        {
          "name": "name",
          "type": "string"
        }
      ],
      "name": "getHighestVote",
      "outputs": [
        {
          "name": "",
          "type": "uint256"
        }
      ],
      "payable": false,
      "stateMutability": "view",
      "type": "function"
    },
    {
      "constant": true,
      "inputs": [
        {
          "name": "name",
          "type": "string"
        }
      ],
      "name": "getValue",
      "outputs": [
        {
          "name": "value",
          "type": "uint256"
        },
        {
          "name": "voteCount",
          "type": "uint256"
        }
      ],
      "payable": false,
      "stateMutability": "view",
      "type": "function"
    },
    {
      "constant": true,
      "inputs": [
        {
          "name": "caller",
          "type": "address"
        }
      ],
      "name": "hasPermission",
      "outputs": [
        {
          "name": "has",
          "type": "bool"
        }
      ],
      "payable": false,
      "stateMutability": "view",
      "type": "function"
    },
    {
      "constant": false,
      "inputs": [
        {
          "name": "name",
          "type": "string"
        },
        {
          "name": "value",
          "type": "uint256"
        }
      ],
      "name": "vote",
      "outputs": [],
      "payable": false,
      "stateMutability": "nonpayable",
      "type": "function"
    },
    {
      "constant": false,
      "inputs": [
        {
          "name": "caller",
          "type": "address"
        }
      ],
      "name": "removePermission",
      "outputs": [],
      "payable": false,
      "stateMutability": "nonpayable",
      "type": "function"
    },
    {
      "inputs": [],
      "payable": false,
      "stateMutability": "nonpayable",
      "type": "constructor"
    }
  ],
  "bytecode": "0x6060604052341561000f57600080fd5b33806000806101000a81548173ffffffffffffffffffffffffffffffffffffffff021916908373ffffffffffffffffffffffffffffffffffffffff16021790555050610bb4806100606000396000f30060606040526004361061008e576000357c0100000000000000000000000000000000000000000000000000000000900463ffffffff16806313af4035146100935780632f54bf6e146100cc5780634d0a5dbd1461011d57806379552bea14610156578063960384a0146101c757806397128e001461023f578063a638580314610290578063e074bb47146102f6575b600080fd5b341561009e57600080fd5b6100ca600480803573ffffffffffffffffffffffffffffffffffffffff1690602001909190505061032f565b005b34156100d757600080fd5b610103600480803573ffffffffffffffffffffffffffffffffffffffff16906020019091905050610386565b604051808215151515815260200191505060405180910390f35b341561012857600080fd5b610154600480803573ffffffffffffffffffffffffffffffffffffffff169060200190919050506103df565b005b341561016157600080fd5b6101b1600480803590602001908201803590602001908080601f0160208091040260200160405190810160405280939291908181526020018383808284378201915050505050509190505061044d565b6040518082815260200191505060405180910390f35b34156101d257600080fd5b610222600480803590602001908201803590602001908080601f016020809104026020016040519081016040528093929190818152602001838380828437820191505050505050919050506104c5565b604051808381526020018281526020019250505060405180910390f35b341561024a57600080fd5b610276600480803573ffffffffffffffffffffffffffffffffffffffff169060200190919050506107e1565b604051808215151515815260200191505060405180910390f35b341561029b57600080fd5b6102f4600480803590602001908201803590602001908080601f01602080910402602001604051908101604052809392919081815260200183838082843782019150505050505091908035906020019091905050610847565b005b341561030157600080fd5b61032d600480803573ffffffffffffffffffffffffffffffffffffffff16906020019091905050610ab4565b005b61033833610386565b151561034357600080fd5b806000806101000a81548173ffffffffffffffffffffffffffffffffffffffff021916908373ffffffffffffffffffffffffffffffffffffffff16021790555050565b60008060009054906101000a900473ffffffffffffffffffffffffffffffffffffffff1673ffffffffffffffffffffffffffffffffffffffff168273ffffffffffffffffffffffffffffffffffffffff16149050919050565b6103e833610386565b15156103f357600080fd5b60018060008373ffffffffffffffffffffffffffffffffffffffff1673ffffffffffffffffffffffffffffffffffffffff16815260200190815260200160002060006101000a81548160ff02191690831515021790555050565b60006002826040518082805190602001908083835b6020831015156104875780518252602082019150602081019050602083039250610462565b6001836020036101000a0380198251168184511680821785525050505050509050019150509081526020016040518091039020600001549050919050565b60008060006104d2610b23565b60008060008033600160008273ffffffffffffffffffffffffffffffffffffffff1673ffffffffffffffffffffffffffffffffffffffff16815260200190815260200160002060009054906101000a900460ff1680610536575061053581610386565b5b151561054157600080fd5b61054a8a61044d565b96508660405180591061055a5750595b90808252806020026020018201604052509550600093505b60028a6040518082805190602001908083835b6020831015156105aa5780518252602082019150602081019050602083039250610585565b6001836020036101000a03801982511681845116808217855250505050505090500191505090815260200160405180910390206002018054905084101561076f5760028a6040518082805190602001908083835b60208310151561062357805182526020820191506020810190506020830392506105fe565b6001836020036101000a0380198251168184511680821785525050505050509050019150509081526020016040518091039020600101600060028c6040518082805190602001908083835b602083101515610693578051825260208201915060208101905060208303925061066e565b6001836020036101000a0380198251168184511680821785525050505050509050019150509081526020016040518091039020600201868154811015156106d657fe5b906000526020600020900160009054906101000a900473ffffffffffffffffffffffffffffffffffffffff1673ffffffffffffffffffffffffffffffffffffffff1673ffffffffffffffffffffffffffffffffffffffff168152602001908152602001600020549450858581518110151561074d57fe5b9060200190602002018051809190600101815250508380600101945050610572565b6000925060009150600093505b85518410156107cf5782868581518110151561079457fe5b9060200190602002015111156107c25783915085848151811015156107b557fe5b9060200190602002015192505b838060010194505061077c565b81839850985050505050505050915091565b6000600160008373ffffffffffffffffffffffffffffffffffffffff1673ffffffffffffffffffffffffffffffffffffffff16815260200190815260200160002060009054906101000a900460ff1680610840575061083f82610386565b5b9050919050565b6002826040518082805190602001908083835b60208310151561087f578051825260208201915060208101905060208303925061085a565b6001836020036101000a038019825116818451168082178552505050505050905001915050908152602001604051809103902060020180548060010182816108c79190610b37565b9160005260206000209001600033909190916101000a81548173ffffffffffffffffffffffffffffffffffffffff021916908373ffffffffffffffffffffffffffffffffffffffff16021790555050806002836040518082805190602001908083835b60208310151561094f578051825260208201915060208101905060208303925061092a565b6001836020036101000a038019825116818451168082178552505050505050905001915050908152602001604051809103902060010160003373ffffffffffffffffffffffffffffffffffffffff1673ffffffffffffffffffffffffffffffffffffffff16815260200190815260200160002081905550806002836040518082805190602001908083835b6020831015156109ff57805182526020820191506020810190506020830392506109da565b6001836020036101000a0380198251168184511680821785525050505050509050019150509081526020016040518091039020600001541015610ab057806002836040518082805190602001908083835b602083101515610a755780518252602082019150602081019050602083039250610a50565b6001836020036101000a0380198251168184511680821785525050505050509050019150509081526020016040518091039020600001819055505b5050565b610abd33610386565b1515610ac857600080fd5b6000600160008373ffffffffffffffffffffffffffffffffffffffff1673ffffffffffffffffffffffffffffffffffffffff16815260200190815260200160002060006101000a81548160ff02191690831515021790555050565b602060405190810160405280600081525090565b815481835581811511610b5e57818360005260206000209182019101610b5d9190610b63565b5b505050565b610b8591905b80821115610b81576000816000905550600101610b69565b5090565b905600a165627a7a723058200866f0651e814a0587e85e4e2aad6cd54b0551f9c0621ee7c18d2b041a7b8de10029",
  "source": "pragma solidity ^0.4.17;\r\n\r\nimport { Owned } from './Owned.sol'; \r\n\r\ncontract Identity is Owned {\r\n\r\n    modifier requiresPermission(address sender) {\r\n        require(_approvedCallers[sender] || isOwner(sender));\r\n        _;\r\n    }\r\n\r\n    mapping (address => bool) private _approvedCallers;\r\n    mapping (string => Voting) private _values;\r\n\r\n    struct Voting {\r\n        // Validator/voter => value\r\n        uint highestVote;\r\n        mapping (address => uint) votes;\r\n        address[] validators;\r\n    }\r\n\r\n    function Identity() public Owned(msg.sender) {}\r\n\r\n    function addPermission(address caller) public requiresOwner {\r\n        _approvedCallers[caller] = true;\r\n    }\r\n\r\n    function getHighestVote(string name) public view returns (uint) {\r\n        return _values[name].highestVote;\r\n    }\r\n\r\n    function getValue(string name) public requiresPermission(msg.sender) view returns (uint value, uint voteCount) {\r\n        uint highestVote = getHighestVote(name);\r\n        // value => votes\r\n        uint[] memory counting = new uint[](highestVote);\r\n        // For readabilitiy\r\n        uint currentValue;\r\n        for (uint i = 0; i < _values[name].validators.length; i++) {\r\n            currentValue = _values[name].votes[_values[name].validators[i]];\r\n            counting[currentValue]++;\r\n        }\r\n        uint highestCount = 0;\r\n        uint highestValue = 0;\r\n        for (i = 0; i < counting.length; i++) {\r\n            if (counting[i] > highestCount) {\r\n                highestValue = i;\r\n                highestCount = counting[i];\r\n            }\r\n        }\r\n        return (highestValue, highestCount);\r\n    }   \r\n\r\n    function hasPermission(address caller) public view returns(bool has) {\r\n        return _approvedCallers[caller] || isOwner(caller);\r\n    }\r\n\r\n    function removePermission(address caller) public requiresOwner {\r\n        _approvedCallers[caller] = false;\r\n    }\r\n\r\n    function vote(string name, uint value) public {\r\n        _values[name].validators.push(msg.sender);\r\n        _values[name].votes[msg.sender] = value;\r\n        if (_values[name].highestVote < value) {\r\n            _values[name].highestVote = value;\r\n        }\r\n    }\r\n    \r\n}",
  "sourcePath": "C:\\Users\\Martijn.Doornik\\Projects\\proofs-of-concept\\poc8-social-consensus-network\\contracts\\Identity.sol",
  "compiler": {
    "name": "solc",
    "version": "0.4.18+commit.9cf6e910.Emscripten.clang"
  },
  "schemaVersion": "1.0.1",
  "updatedAt": "2017-12-05T12:00:18.420Z"
}