{
  "contractName": "Test",
  "abi": [
    {
      "constant": false,
      "inputs": [
        {
          "name": "index",
          "type": "uint256"
        },
        {
          "name": "value",
          "type": "uint256"
        }
      ],
      "name": "addToTest",
      "outputs": [],
      "payable": false,
      "stateMutability": "nonpayable",
      "type": "function"
    },
    {
      "constant": true,
      "inputs": [],
      "name": "getMaxValue",
      "outputs": [
        {
          "name": "maxValue",
          "type": "uint256"
        },
        {
          "name": "index",
          "type": "uint256"
        }
      ],
      "payable": false,
      "stateMutability": "view",
      "type": "function"
    },
    {
      "constant": false,
      "inputs": [
        {
          "name": "newLength",
          "type": "uint256"
        }
      ],
      "name": "setLength",
      "outputs": [
        {
          "name": "length",
          "type": "uint256"
        }
      ],
      "payable": false,
      "stateMutability": "nonpayable",
      "type": "function"
    },
    {
      "constant": true,
      "inputs": [],
      "name": "getTestLength",
      "outputs": [
        {
          "name": "length",
          "type": "uint256"
        }
      ],
      "payable": false,
      "stateMutability": "view",
      "type": "function"
    },
    {
      "constant": true,
      "inputs": [],
      "name": "getMaxIndex",
      "outputs": [
        {
          "name": "length",
          "type": "uint256"
        }
      ],
      "payable": false,
      "stateMutability": "view",
      "type": "function"
    }
  ],
  "bytecode": "0x6060604052341561000f57600080fd5b6102548061001e6000396000f300606060405260043610610062576000357c0100000000000000000000000000000000000000000000000000000000900463ffffffff16806315670880146100675780634c9eb4d4146100935780636495a72c146100c3578063b1870db9146100e6575b600080fd5b341561007257600080fd5b610091600480803590602001909190803590602001909190505061010f565b005b341561009e57600080fd5b6100a661014e565b604051808381526020018281526020019250505060405180910390f35b34156100ce57600080fd5b6100e460048080359060200190919050506101b9565b005b34156100f157600080fd5b6100f96101cb565b6040518082815260200191505060405180910390f35b8160008054905081111561012a57610129600182016101b9565b5b8160008481548110151561013a57fe5b906000526020600020900181905550505050565b60008060008090505b6000805490508110156101b4578260008281548110151561017457fe5b90600052602060002090015411156101a75760008181548110151561019557fe5b90600052602060002090015492508091505b8080600101915050610157565b509091565b806000816101c791906101d7565b5050565b60008080549050905090565b8154818355818115116101fe578183600052602060002091820191016101fd9190610203565b5b505050565b61022591905b80821115610221576000816000905550600101610209565b5090565b905600a165627a7a72305820c9cec45a4482eca2774e52ec27d950c3c609315fc469cd2e8268cb7f611bd2fa0029",
  "source": "pragma solidity ^0.4.18;\r\n\r\ncontract Test {\r\n\r\n    uint[] private _testArray;\r\n    \r\n    modifier assureLength(uint index) {\r\n        if (index > _testArray.length) {\r\n            setLength(index+1);\r\n        }\r\n        _;\r\n    }\r\n\r\n    function addToTest(uint index, uint value) public assureLength(index) {\r\n        _testArray[index] = value;\r\n    }\r\n\r\n    function getMaxValue() public view returns (uint maxValue, uint index) {\r\n        for (uint i = 0; i < _testArray.length; i++) {\r\n            if (_testArray[i] > maxValue) {\r\n                maxValue = _testArray[i];\r\n                index = i;\r\n            }\r\n        }\r\n    }\r\n\r\n    function getTestLength() public view returns (uint length) {\r\n        return _testArray.length;\r\n    }\r\n\r\n    function setLength(uint newLength) public {\r\n        _testArray.length = newLength;\r\n    }\r\n}",
  "sourcePath": "C:\\Users\\Martijn.Doornik\\Projects\\proofs-of-concept\\poc8-social-consensus-network\\contracts\\Test.sol",
  "compiler": {
    "name": "solc",
    "version": "0.4.18+commit.9cf6e910.Emscripten.clang"
  },
  "schemaVersion": "1.0.1",
  "updatedAt": "2017-12-01T13:13:48.953Z"
}