{
  "contractName": "IdentityManager",
  "abi": [
    {
      "constant": true,
      "inputs": [
        {
          "name": "account",
          "type": "address"
        }
      ],
      "name": "getIdentity",
      "outputs": [
        {
          "name": "identity",
          "type": "uint256"
        }
      ],
      "payable": false,
      "stateMutability": "view",
      "type": "function"
    },
    {
      "constant": false,
      "inputs": [
        {
          "name": "newValidator",
          "type": "address"
        }
      ],
      "name": "addValidator",
      "outputs": [],
      "payable": false,
      "stateMutability": "nonpayable",
      "type": "function"
    },
    {
      "constant": false,
      "inputs": [
        {
          "name": "index",
          "type": "uint256"
        },
        {
          "name": "newPointer",
          "type": "address"
        }
      ],
      "name": "recover",
      "outputs": [],
      "payable": false,
      "stateMutability": "nonpayable",
      "type": "function"
    },
    {
      "constant": true,
      "inputs": [
        {
          "name": "index",
          "type": "uint256"
        }
      ],
      "name": "identityExists",
      "outputs": [
        {
          "name": "exists",
          "type": "bool"
        }
      ],
      "payable": false,
      "stateMutability": "view",
      "type": "function"
    },
    {
      "constant": true,
      "inputs": [
        {
          "name": "identity",
          "type": "uint256"
        }
      ],
      "name": "isSender",
      "outputs": [
        {
          "name": "",
          "type": "bool"
        }
      ],
      "payable": false,
      "stateMutability": "view",
      "type": "function"
    },
    {
      "constant": false,
      "inputs": [
        {
          "name": "identity",
          "type": "uint256"
        }
      ],
      "name": "stopValidatingFor",
      "outputs": [],
      "payable": false,
      "stateMutability": "nonpayable",
      "type": "function"
    },
    {
      "constant": true,
      "inputs": [
        {
          "name": "account",
          "type": "address"
        }
      ],
      "name": "addressKnown",
      "outputs": [
        {
          "name": "",
          "type": "bool"
        }
      ],
      "payable": false,
      "stateMutability": "view",
      "type": "function"
    },
    {
      "constant": false,
      "inputs": [
        {
          "name": "account",
          "type": "address"
        }
      ],
      "name": "convertIdentity",
      "outputs": [
        {
          "name": "",
          "type": "uint256"
        }
      ],
      "payable": false,
      "stateMutability": "nonpayable",
      "type": "function"
    },
    {
      "constant": true,
      "inputs": [
        {
          "name": "identity",
          "type": "uint256"
        },
        {
          "name": "account",
          "type": "address"
        }
      ],
      "name": "equals",
      "outputs": [
        {
          "name": "",
          "type": "bool"
        }
      ],
      "payable": false,
      "stateMutability": "view",
      "type": "function"
    },
    {
      "constant": false,
      "inputs": [
        {
          "name": "validator",
          "type": "uint256"
        }
      ],
      "name": "removeValidator",
      "outputs": [],
      "payable": false,
      "stateMutability": "nonpayable",
      "type": "function"
    }
  ],
  "bytecode": "0x60606040526000600255341561001457600080fd5b610cb1806100236000396000f3006060604052600436106100a4576000357c0100000000000000000000000000000000000000000000000000000000900463ffffffff1680632fea7b81146100a95780634d238c8e146100f65780634eea48e21461012f5780635b5aed3a1461017157806386c4c809146101ac5780638ac02099146101e7578063b5e6d5cb1461020a578063c38afe791461025b578063cc48927a146102a8578063f94e186714610302575b600080fd5b34156100b457600080fd5b6100e0600480803573ffffffffffffffffffffffffffffffffffffffff16906020019091905050610325565b6040518082815260200191505060405180910390f35b341561010157600080fd5b61012d600480803573ffffffffffffffffffffffffffffffffffffffff1690602001909190505061036e565b005b341561013a57600080fd5b61016f600480803590602001909190803573ffffffffffffffffffffffffffffffffffffffff1690602001909190505061045e565b005b341561017c57600080fd5b61019260048080359060200190919050506105e4565b604051808215151515815260200191505060405180910390f35b34156101b757600080fd5b6101cd600480803590602001909190505061063c565b604051808215151515815260200191505060405180910390f35b34156101f257600080fd5b61020860048080359060200190919050506106a9565b005b341561021557600080fd5b610241600480803573ffffffffffffffffffffffffffffffffffffffff16906020019091905050610825565b604051808215151515815260200191505060405180910390f35b341561026657600080fd5b610292600480803573ffffffffffffffffffffffffffffffffffffffff16906020019091905050610870565b6040518082815260200191505060405180910390f35b34156102b357600080fd5b6102e8600480803590602001909190803573ffffffffffffffffffffffffffffffffffffffff169060200190919050506108d3565b604051808215151515815260200191505060405180910390f35b341561030d57600080fd5b6103236004808035906020019091905050610948565b005b6000600160008373ffffffffffffffffffffffffffffffffffffffff1673ffffffffffffffffffffffffffffffffffffffff168152602001908152602001600020549050919050565b60008061037a33610825565b151561038557600080fd5b61038e83610825565b151561039957600080fd5b600160003373ffffffffffffffffffffffffffffffffffffffff1673ffffffffffffffffffffffffffffffffffffffff168152602001908152602001600020549150600160008473ffffffffffffffffffffffffffffffffffffffff1673ffffffffffffffffffffffffffffffffffffffff16815260200190815260200160002054905060008083815260200190815260200160002060010180548060010182816104449190610be7565b916000526020600020900160008390919091505550505050565b60008261046a816105e4565b151561047557600080fd5b6104be81600160003373ffffffffffffffffffffffffffffffffffffffff1673ffffffffffffffffffffffffffffffffffffffff16815260200190815260200160002054610a44565b15156104c957600080fd5b60008085815260200190815260200160002060000160009054906101000a900473ffffffffffffffffffffffffffffffffffffffff1691508260008086815260200190815260200160002060000160006101000a81548173ffffffffffffffffffffffffffffffffffffffff021916908373ffffffffffffffffffffffffffffffffffffffff1602179055506000600160008473ffffffffffffffffffffffffffffffffffffffff1673ffffffffffffffffffffffffffffffffffffffff1681526020019081526020016000208190555083600160008573ffffffffffffffffffffffffffffffffffffffff1673ffffffffffffffffffffffffffffffffffffffff1681526020019081526020016000208190555050505050565b60008060008084815260200190815260200160002060000160009054906101000a900473ffffffffffffffffffffffffffffffffffffffff1673ffffffffffffffffffffffffffffffffffffffff1614159050919050565b60003373ffffffffffffffffffffffffffffffffffffffff1660008084815260200190815260200160002060000160009054906101000a900473ffffffffffffffffffffffffffffffffffffffff1673ffffffffffffffffffffffffffffffffffffffff16149050919050565b600080826106b6816105e4565b15156106c157600080fd5b836106cb816105e4565b15156106d657600080fd5b61071f81600160003373ffffffffffffffffffffffffffffffffffffffff1673ffffffffffffffffffffffffffffffffffffffff16815260200190815260200160002054610a44565b151561072a57600080fd5b61073333610825565b151561073e57600080fd5b600160003373ffffffffffffffffffffffffffffffffffffffff1673ffffffffffffffffffffffffffffffffffffffff168152602001908152602001600020549350600092505b6000808681526020019081526020016000206001018054905083101561081d5783600080878152602001908152602001600020600101848154811015156107c857fe5b906000526020600020900154141561081057600080868152602001908152602001600020600101838154811015156107fc57fe5b90600052602060002090016000905561081e565b8280600101935050610785565b5b5050505050565b600080600160008473ffffffffffffffffffffffffffffffffffffffff1673ffffffffffffffffffffffffffffffffffffffff16815260200190815260200160002054119050919050565b600061087b82610825565b151561088c5761088a82610ac3565b505b600160008373ffffffffffffffffffffffffffffffffffffffff1673ffffffffffffffffffffffffffffffffffffffff168152602001908152602001600020549050919050565b60006108de82610825565b80156108ef57506108ee836105e4565b5b1561093d57600160008373ffffffffffffffffffffffffffffffffffffffff1673ffffffffffffffffffffffffffffffffffffffff1681526020019081526020016000205483149050610942565b600090505b92915050565b60008061095433610825565b151561095f57600080fd5b600160003373ffffffffffffffffffffffffffffffffffffffff1673ffffffffffffffffffffffffffffffffffffffff168152602001908152602001600020549150600090505b60008083815260200190815260200160002060010180549050811015610a3e5782600080848152602001908152602001600020600101828154811015156109e957fe5b9060005260206000209001541415610a315760008083815260200190815260200160002060010181815481101515610a1d57fe5b906000526020600020900160009055610a3f565b80806001019150506109a6565b5b505050565b600080600090505b60008085815260200190815260200160002060010180549050811015610ab7578260008086815260200190815260200160002060010182815481101515610a8f57fe5b9060005260206000209001541415610aaa5760019150610abc565b8080600101915050610a4c565b600091505b5092915050565b600080600260008154600101919050819055905060408051908101604052808473ffffffffffffffffffffffffffffffffffffffff1681526020016000604051805910610b0d5750595b908082528060200260200182016040525081525060008083815260200190815260200160002060008201518160000160006101000a81548173ffffffffffffffffffffffffffffffffffffffff021916908373ffffffffffffffffffffffffffffffffffffffff1602179055506020820151816001019080519060200190610b96929190610c13565b5090505080600160008573ffffffffffffffffffffffffffffffffffffffff1673ffffffffffffffffffffffffffffffffffffffff1681526020019081526020016000208190555080915050919050565b815481835581811511610c0e57818360005260206000209182019101610c0d9190610c60565b5b505050565b828054828255906000526020600020908101928215610c4f579160200282015b82811115610c4e578251825591602001919060010190610c33565b5b509050610c5c9190610c60565b5090565b610c8291905b80821115610c7e576000816000905550600101610c66565b5090565b905600a165627a7a7230582050d2f7004b49c867ba4046d521f4215b143827b7d0dded1938ed1cb3457685c90029",
  "source": "pragma solidity ^0.4.17;\r\n\r\ncontract IdentityManager {\r\n    // double reference for quick searching\r\n    mapping ( uint => Identity ) _identities;\r\n    mapping ( address => uint ) _index;\r\n    uint _currentIndex = 0;\r\n\r\n    struct Identity {\r\n        address pointer; // the address of the user it represents\r\n        uint[] validators; // the addresses of the identities of the validators\r\n    }\r\n\r\n    modifier requiresExistanceOf(uint index) {\r\n        require(identityExists(index));\r\n        _;\r\n    }\r\n\r\n    modifier requiresValidatorOf(uint index) {\r\n        require(identityExists(index));\r\n        require(isValidatorOf(index, _index[msg.sender]));\r\n        _;\r\n    }\r\n\r\n    function addressKnown(address account) public view returns (bool) {\r\n        return _index[account] > 0;\r\n    }\r\n\r\n    function addValidator(address newValidator) public {\r\n        require(addressKnown(msg.sender));\r\n        require(addressKnown(newValidator));\r\n        uint index = _index[msg.sender];\r\n        uint valIndex = _index[newValidator];\r\n        _identities[index].validators.push(valIndex);\r\n    }\r\n\r\n    function convertIdentity(address account) public returns (uint) {\r\n        if (!addressKnown(account)) {\r\n            createIdentity(account);\r\n        }\r\n        return _index[account];\r\n    }\r\n\r\n    function createIdentity(address account) private returns (uint) {\r\n        uint index = ++_currentIndex;\r\n        _identities[index] = Identity({\r\n            pointer: account, \r\n            validators: new uint[](0)\r\n        });\r\n        _index[account] = index;\r\n        return index;\r\n    }\r\n\r\n    function equals(uint identity, address account) public view returns (bool) {\r\n        if (addressKnown(account) && identityExists(identity)) {\r\n            return identity == _index[account];\r\n        }\r\n        return false;\r\n    }\r\n\r\n    function getAddress(uint index) private view returns (address account) {\r\n        return _identities[index].pointer;\r\n    }\r\n\r\n    function getIdentity(address account) public view returns (uint identity) {\r\n        return _index[account];\r\n    }\r\n\r\n    function identityExists(uint index) public view returns (bool exists) {\r\n        return _identities[index].pointer != 0;\r\n    }\r\n\r\n    function isSender(uint identity) public view returns (bool) {\r\n        return (_identities[identity].pointer == msg.sender);\r\n    }\r\n\r\n    function isValidatorOf(uint identity, uint validator) private view returns (bool) {\r\n        for (uint i = 0; i < _identities[identity].validators.length; i++) {\r\n            if (_identities[identity].validators[i] == validator) {\r\n                return true;\r\n            }\r\n        }\r\n        return false;\r\n    }\r\n\r\n    function recover(uint index, address newPointer) public requiresValidatorOf(index) {\r\n        address oldPointer = _identities[index].pointer;\r\n        _identities[index].pointer = newPointer;\r\n        _index[oldPointer] = 0;\r\n        _index[newPointer] = index;\r\n    }\r\n\r\n    function removeValidator(uint validator) public {\r\n        require(addressKnown(msg.sender));\r\n        uint index = _index[msg.sender];\r\n        for (uint i = 0; i < _identities[index].validators.length; i++) {\r\n            if (_identities[index].validators[i] == validator) {\r\n                delete _identities[index].validators[i];\r\n                return;\r\n            }\r\n        }\r\n    }\r\n\r\n    function stopValidatingFor(uint identity) public requiresExistanceOf(identity) requiresValidatorOf(identity) {\r\n        require(addressKnown(msg.sender));\r\n        uint valIndex = _index[msg.sender];\r\n        for (uint i = 0; i < _identities[identity].validators.length; i++) {\r\n            if (_identities[identity].validators[i] == valIndex) {\r\n                delete _identities[identity].validators[i];\r\n                return;\r\n            }\r\n        }\r\n    } \r\n}\r\n\r\n/*contract Identity {\r\n\r\n    address private _address;\r\n    // allow null-checks\r\n    bool private _exists = false;\r\n    address[] private _validators;\r\n\r\n    function Identity(address identity) public payable {\r\n        _address = identity;\r\n        _validators = [identity];\r\n        _exists = true;\r\n    }\r\n\r\n    function addValidator(address validator) public {\r\n        _validators.push(validator);\r\n    }\r\n\r\n    function exists() public view returns (bool) {\r\n        return _exists;\r\n    }\r\n\r\n    function matches(address addr) public view returns (bool equals) {\r\n        return _address == addr;\r\n    }\r\n\r\n    function recoverIdentity(address newIdentity) public returns (bool success) {\r\n        bool allowed = false;\r\n        for (uint index = 0; index < _validators.length; index ++) {\r\n            if (_validators[index] == msg.sender) {\r\n                allowed = true;\r\n            }\r\n        }\r\n        if (allowed) {\r\n            _address = newIdentity;\r\n            return true;\r\n        }\r\n        return false;\r\n    }\r\n\r\n    function removeValidator(address validator) public returns (bool success) {\r\n        for (uint index = 0; index < _validators.length; index ++) {\r\n            if (_validators[index] == validator) {\r\n                delete _validators[index];\r\n                return true;\r\n            }\r\n        }\r\n        return false;\r\n    }\r\n    \r\n}*/",
  "sourcePath": "C:\\Users\\Martijn.Doornik\\Projects\\proofs-of-concept\\poc2-identity-restoration\\contracts\\IdentityManager.sol",
  "compiler": {
    "name": "solc",
    "version": "0.4.18+commit.9cf6e910.Emscripten.clang"
  },
  "schemaVersion": "1.0.1",
  "updatedAt": "2017-11-17T09:46:54.242Z"
}