{
  "contractName": "Owned",
  "abi": [
    {
      "constant": false,
      "inputs": [
        {
          "name": "newOwner",
          "type": "address"
        }
      ],
      "name": "setOwner",
      "outputs": [],
      "payable": false,
      "stateMutability": "nonpayable",
      "type": "function"
    },
    {
      "constant": true,
      "inputs": [
        {
          "name": "account",
          "type": "address"
        }
      ],
      "name": "isOwner",
      "outputs": [
        {
          "name": "",
          "type": "bool"
        }
      ],
      "payable": false,
      "stateMutability": "view",
      "type": "function"
    },
    {
      "inputs": [
        {
          "name": "owner",
          "type": "address"
        }
      ],
      "payable": false,
      "stateMutability": "nonpayable",
      "type": "constructor"
    }
  ],
  "bytecode": "0x6060604052341561000f57600080fd5b60405160208061023283398101604052808051906020019091905050806000806101000a81548173ffffffffffffffffffffffffffffffffffffffff021916908373ffffffffffffffffffffffffffffffffffffffff160217905550506101b78061007b6000396000f30060606040526004361061004c576000357c0100000000000000000000000000000000000000000000000000000000900463ffffffff16806313af4035146100515780632f54bf6e1461008a575b600080fd5b341561005c57600080fd5b610088600480803573ffffffffffffffffffffffffffffffffffffffff169060200190919050506100db565b005b341561009557600080fd5b6100c1600480803573ffffffffffffffffffffffffffffffffffffffff16906020019091905050610132565b604051808215151515815260200191505060405180910390f35b6100e433610132565b15156100ef57600080fd5b806000806101000a81548173ffffffffffffffffffffffffffffffffffffffff021916908373ffffffffffffffffffffffffffffffffffffffff16021790555050565b60008060009054906101000a900473ffffffffffffffffffffffffffffffffffffffff1673ffffffffffffffffffffffffffffffffffffffff168273ffffffffffffffffffffffffffffffffffffffff161490509190505600a165627a7a7230582042e996572b69287462800fea65c144e1b8a513155d7a5d7de78f4576c1e8cb5f0029",
  "source": "pragma solidity ^0.4.17;\r\n\r\ncontract Owned {\r\n    address _owner;\r\n\r\n    modifier requiresOwner() {\r\n        require(isOwner(msg.sender));\r\n        _;\r\n    }\r\n\r\n    function Owned(address owner) public {\r\n        _owner = owner;\r\n    }\r\n\r\n    function isOwner(address account) public view returns(bool) {\r\n        return account == _owner;\r\n    }\r\n\r\n    function setOwner(address newOwner) public requiresOwner {\r\n        _owner = newOwner;\r\n    }\r\n    \r\n}",
  "sourcePath": "C:\\Users\\Martijn.Doornik\\Projects\\proofs-of-concept\\poc3-generic-forus-architecture\\contracts\\Owned.sol",
  "compiler": {
    "name": "solc",
    "version": "0.4.18+commit.9cf6e910.Emscripten.clang"
  },
  "schemaVersion": "1.0.1",
  "updatedAt": "2017-11-27T16:02:39.115Z"
}