{
  "contractName": "Salv",
  "abi": [
    {
      "constant": false,
      "inputs": [
        {
          "name": "token",
          "type": "address"
        },
        {
          "name": "artifact",
          "type": "uint256"
        }
      ],
      "name": "removeArtifactToken",
      "outputs": [],
      "payable": false,
      "stateMutability": "nonpayable",
      "type": "function"
    },
    {
      "constant": false,
      "inputs": [
        {
          "name": "newOwner",
          "type": "address"
        }
      ],
      "name": "setOwner",
      "outputs": [],
      "payable": false,
      "stateMutability": "nonpayable",
      "type": "function"
    },
    {
      "constant": false,
      "inputs": [
        {
          "name": "token",
          "type": "address"
        },
        {
          "name": "sponsor",
          "type": "address"
        }
      ],
      "name": "removeSponsor",
      "outputs": [],
      "payable": false,
      "stateMutability": "nonpayable",
      "type": "function"
    },
    {
      "constant": true,
      "inputs": [
        {
          "name": "account",
          "type": "address"
        }
      ],
      "name": "isOwner",
      "outputs": [
        {
          "name": "",
          "type": "bool"
        }
      ],
      "payable": false,
      "stateMutability": "view",
      "type": "function"
    },
    {
      "constant": false,
      "inputs": [
        {
          "name": "account",
          "type": "address"
        },
        {
          "name": "token",
          "type": "address"
        }
      ],
      "name": "validateAccount",
      "outputs": [],
      "payable": false,
      "stateMutability": "nonpayable",
      "type": "function"
    },
    {
      "constant": true,
      "inputs": [
        {
          "name": "token",
          "type": "address"
        },
        {
          "name": "account",
          "type": "address"
        }
      ],
      "name": "isAccountValidated",
      "outputs": [
        {
          "name": "isValidated",
          "type": "bool"
        }
      ],
      "payable": false,
      "stateMutability": "view",
      "type": "function"
    },
    {
      "constant": false,
      "inputs": [
        {
          "name": "token",
          "type": "address"
        },
        {
          "name": "artifact",
          "type": "uint256"
        }
      ],
      "name": "addArtifactToken",
      "outputs": [],
      "payable": false,
      "stateMutability": "nonpayable",
      "type": "function"
    },
    {
      "constant": false,
      "inputs": [
        {
          "name": "token",
          "type": "address"
        },
        {
          "name": "newSponsor",
          "type": "address"
        }
      ],
      "name": "addSponsor",
      "outputs": [],
      "payable": false,
      "stateMutability": "nonpayable",
      "type": "function"
    },
    {
      "constant": true,
      "inputs": [
        {
          "name": "token",
          "type": "address"
        }
      ],
      "name": "getSponsors",
      "outputs": [
        {
          "name": "sponsors",
          "type": "address[]"
        }
      ],
      "payable": false,
      "stateMutability": "view",
      "type": "function"
    },
    {
      "constant": true,
      "inputs": [
        {
          "name": "token",
          "type": "address"
        },
        {
          "name": "applicant",
          "type": "address"
        }
      ],
      "name": "getSponsorOfOpenRequest",
      "outputs": [
        {
          "name": "sponsor",
          "type": "address"
        }
      ],
      "payable": false,
      "stateMutability": "view",
      "type": "function"
    },
    {
      "constant": true,
      "inputs": [
        {
          "name": "token",
          "type": "address"
        },
        {
          "name": "applicant",
          "type": "address"
        }
      ],
      "name": "hasOpenRequest",
      "outputs": [
        {
          "name": "",
          "type": "bool"
        }
      ],
      "payable": false,
      "stateMutability": "view",
      "type": "function"
    },
    {
      "constant": true,
      "inputs": [
        {
          "name": "token",
          "type": "address"
        },
        {
          "name": "account",
          "type": "address"
        }
      ],
      "name": "getAccountValidators",
      "outputs": [
        {
          "name": "validators",
          "type": "address[]"
        }
      ],
      "payable": false,
      "stateMutability": "view",
      "type": "function"
    },
    {
      "constant": false,
      "inputs": [
        {
          "name": "token",
          "type": "address"
        },
        {
          "name": "supplier",
          "type": "address"
        }
      ],
      "name": "exchange",
      "outputs": [],
      "payable": false,
      "stateMutability": "nonpayable",
      "type": "function"
    },
    {
      "constant": false,
      "inputs": [
        {
          "name": "token",
          "type": "address"
        },
        {
          "name": "sponsor",
          "type": "address"
        }
      ],
      "name": "requestFund",
      "outputs": [],
      "payable": false,
      "stateMutability": "nonpayable",
      "type": "function"
    },
    {
      "constant": false,
      "inputs": [
        {
          "name": "token",
          "type": "address"
        },
        {
          "name": "amount",
          "type": "uint256"
        },
        {
          "name": "supplier",
          "type": "address"
        },
        {
          "name": "artifact",
          "type": "uint256"
        }
      ],
      "name": "spend",
      "outputs": [],
      "payable": false,
      "stateMutability": "nonpayable",
      "type": "function"
    },
    {
      "constant": true,
      "inputs": [
        {
          "name": "token",
          "type": "address"
        },
        {
          "name": "account",
          "type": "address"
        }
      ],
      "name": "getBalance",
      "outputs": [
        {
          "name": "balance",
          "type": "uint256"
        }
      ],
      "payable": false,
      "stateMutability": "view",
      "type": "function"
    },
    {
      "constant": true,
      "inputs": [
        {
          "name": "token",
          "type": "address"
        },
        {
          "name": "artifact",
          "type": "uint256"
        }
      ],
      "name": "isArtifactValid",
      "outputs": [
        {
          "name": "",
          "type": "bool"
        }
      ],
      "payable": false,
      "stateMutability": "view",
      "type": "function"
    },
    {
      "inputs": [],
      "payable": false,
      "stateMutability": "nonpayable",
      "type": "constructor"
    },
    {
      "anonymous": false,
      "inputs": [
        {
          "indexed": false,
          "name": "account",
          "type": "address"
        },
        {
          "indexed": false,
          "name": "validator",
          "type": "address"
        }
      ],
      "name": "IdentityValidated",
      "type": "event"
    },
    {
      "anonymous": false,
      "inputs": [
        {
          "indexed": false,
          "name": "applicant",
          "type": "address"
        },
        {
          "indexed": false,
          "name": "sponsor",
          "type": "address"
        },
        {
          "indexed": false,
          "name": "token",
          "type": "address"
        }
      ],
      "name": "FundRequested",
      "type": "event"
    },
    {
      "anonymous": false,
      "inputs": [
        {
          "indexed": false,
          "name": "applicant",
          "type": "address"
        },
        {
          "indexed": false,
          "name": "sponsor",
          "type": "address"
        },
        {
          "indexed": false,
          "name": "token",
          "type": "address"
        }
      ],
      "name": "FundQueued",
      "type": "event"
    },
    {
      "anonymous": false,
      "inputs": [
        {
          "indexed": false,
          "name": "applicant",
          "type": "address"
        },
        {
          "indexed": false,
          "name": "sponsor",
          "type": "address"
        },
        {
          "indexed": false,
          "name": "token",
          "type": "address"
        },
        {
          "indexed": false,
          "name": "newBalance",
          "type": "uint256"
        }
      ],
      "name": "FundGranted",
      "type": "event"
    },
    {
      "anonymous": false,
      "inputs": [
        {
          "indexed": false,
          "name": "applicant",
          "type": "address"
        },
        {
          "indexed": false,
          "name": "token",
          "type": "address"
        },
        {
          "indexed": false,
          "name": "supplier",
          "type": "address"
        },
        {
          "indexed": false,
          "name": "price",
          "type": "uint256"
        },
        {
          "indexed": false,
          "name": "product",
          "type": "string"
        },
        {
          "indexed": false,
          "name": "newBalance",
          "type": "uint256"
        }
      ],
      "name": "TokenSpent",
      "type": "event"
    },
    {
      "anonymous": false,
      "inputs": [
        {
          "indexed": false,
          "name": "supplier",
          "type": "address"
        },
        {
          "indexed": false,
          "name": "sponsor",
          "type": "address"
        },
        {
          "indexed": false,
          "name": "token",
          "type": "address"
        },
        {
          "indexed": false,
          "name": "amountExchanged",
          "type": "uint256"
        }
      ],
      "name": "TokenExchanged",
      "type": "event"
    }
  ],
  "bytecode": "0x606060405234156200001057600080fd5b33806000806101000a81548173ffffffffffffffffffffffffffffffffffffffff021916908373ffffffffffffffffffffffffffffffffffffffff160217905550506020604051908101604052806040805190810160405280600b81526020017f527562626572204475636b00000000000000000000000000000000000000000081525081525060026000602a81526020019081526020016000206000820151816000019080519060200190620000c99291906200014e565b509050506020604051908101604052806040805190810160405280600f81526020017f5377696d6d696e67205469636b6574000000000000000000000000000000000081525081525060026000606581526020019081526020016000206000820151816000019080519060200190620001449291906200014e565b50905050620001fd565b828054600181600116156101000203166002900490600052602060002090601f016020900481019282601f106200019157805160ff1916838001178555620001c2565b82800160010185558215620001c2579182015b82811115620001c1578251825591602001919060010190620001a4565b5b509050620001d19190620001d5565b5090565b620001fa91905b80821115620001f6576000816000905550600101620001dc565b5090565b90565b611fcf806200020d6000396000f3006060604052600436106100f1576000357c0100000000000000000000000000000000000000000000000000000000900463ffffffff1680630cb08e93146100f657806313af40351461013857806323edd297146101715780632f54bf6e146101c95780633034ec5e1461021a57806337116aaa146102725780633aef7adf146102e25780633cecd96714610324578063511f12f61461037c5780635286c7c11461040a5780635f40fc24146104a25780636ef73a19146105125780637a9f57ba146105bf5780637f4f511a14610617578063ac54929e1461066f578063d4fac45d146106d9578063e88f5a9214610745575b600080fd5b341561010157600080fd5b610136600480803573ffffffffffffffffffffffffffffffffffffffff1690602001909190803590602001909190505061079f565b005b341561014357600080fd5b61016f600480803573ffffffffffffffffffffffffffffffffffffffff16906020019091905050610841565b005b341561017c57600080fd5b6101c7600480803573ffffffffffffffffffffffffffffffffffffffff1690602001909190803573ffffffffffffffffffffffffffffffffffffffff16906020019091905050610898565b005b34156101d457600080fd5b610200600480803573ffffffffffffffffffffffffffffffffffffffff16906020019091905050610a2e565b604051808215151515815260200191505060405180910390f35b341561022557600080fd5b610270600480803573ffffffffffffffffffffffffffffffffffffffff1690602001909190803573ffffffffffffffffffffffffffffffffffffffff16906020019091905050610a87565b005b341561027d57600080fd5b6102c8600480803573ffffffffffffffffffffffffffffffffffffffff1690602001909190803573ffffffffffffffffffffffffffffffffffffffff16906020019091905050610c3c565b604051808215151515815260200191505060405180910390f35b34156102ed57600080fd5b610322600480803573ffffffffffffffffffffffffffffffffffffffff16906020019091908035906020019091905050610c53565b005b341561032f57600080fd5b61037a600480803573ffffffffffffffffffffffffffffffffffffffff1690602001909190803573ffffffffffffffffffffffffffffffffffffffff16906020019091905050610cf6565b005b341561038757600080fd5b6103b3600480803573ffffffffffffffffffffffffffffffffffffffff16906020019091905050610dcb565b6040518080602001828103825283818151815260200191508051906020019060200280838360005b838110156103f65780820151818401526020810190506103db565b505050509050019250505060405180910390f35b341561041557600080fd5b610460600480803573ffffffffffffffffffffffffffffffffffffffff1690602001909190803573ffffffffffffffffffffffffffffffffffffffff16906020019091905050610ea1565b604051808273ffffffffffffffffffffffffffffffffffffffff1673ffffffffffffffffffffffffffffffffffffffff16815260200191505060405180910390f35b34156104ad57600080fd5b6104f8600480803573ffffffffffffffffffffffffffffffffffffffff1690602001909190803573ffffffffffffffffffffffffffffffffffffffff16906020019091905050610f4b565b604051808215151515815260200191505060405180910390f35b341561051d57600080fd5b610568600480803573ffffffffffffffffffffffffffffffffffffffff1690602001909190803573ffffffffffffffffffffffffffffffffffffffff1690602001909190505061100e565b6040518080602001828103825283818151815260200191508051906020019060200280838360005b838110156105ab578082015181840152602081019050610590565b505050509050019250505060405180910390f35b34156105ca57600080fd5b610615600480803573ffffffffffffffffffffffffffffffffffffffff1690602001909190803573ffffffffffffffffffffffffffffffffffffffff16906020019091905050611125565b005b341561062257600080fd5b61066d600480803573ffffffffffffffffffffffffffffffffffffffff1690602001909190803573ffffffffffffffffffffffffffffffffffffffff16906020019091905050611325565b005b341561067a57600080fd5b6106d7600480803573ffffffffffffffffffffffffffffffffffffffff1690602001909190803590602001909190803573ffffffffffffffffffffffffffffffffffffffff169060200190919080359060200190919050506115db565b005b34156106e457600080fd5b61072f600480803573ffffffffffffffffffffffffffffffffffffffff1690602001909190803573ffffffffffffffffffffffffffffffffffffffff169060200190919050506119b3565b6040518082815260200191505060405180910390f35b341561075057600080fd5b610785600480803573ffffffffffffffffffffffffffffffffffffffff16906020019091908035906020019091905050611a40565b604051808215151515815260200191505060405180910390f35b81336107ab8282611a6f565b15156107b657600080fd5b83836107c28282611a40565b15156107cd57600080fd5b60006002600087815260200190815260200160002060010160008873ffffffffffffffffffffffffffffffffffffffff1673ffffffffffffffffffffffffffffffffffffffff16815260200190815260200160002060006101000a81548160ff021916908315150217905550505050505050565b61084a33610a2e565b151561085557600080fd5b806000806101000a81548173ffffffffffffffffffffffffffffffffffffffff021916908373ffffffffffffffffffffffffffffffffffffffff16021790555050565b6108a0611f3e565b60006108ab33610a2e565b15156108b657600080fd5b83836108c28282611a6f565b15156108cd57600080fd5b600160008773ffffffffffffffffffffffffffffffffffffffff1673ffffffffffffffffffffffffffffffffffffffff16815260200190815260200160002060010180548060200260200160405190810160405280929190818152602001828054801561098f57602002820191906000526020600020905b8160009054906101000a900473ffffffffffffffffffffffffffffffffffffffff1673ffffffffffffffffffffffffffffffffffffffff1681526020019060010190808311610945575b50505050509350600092508351831015610a2557600160008773ffffffffffffffffffffffffffffffffffffffff1673ffffffffffffffffffffffffffffffffffffffff168152602001908152602001600020600101838154811015156109f257fe5b906000526020600020900160006101000a81549073ffffffffffffffffffffffffffffffffffffffff0219169055610a26565b5b505050505050565b60008060009054906101000a900473ffffffffffffffffffffffffffffffffffffffff1673ffffffffffffffffffffffffffffffffffffffff168273ffffffffffffffffffffffffffffffffffffffff16149050919050565b338183610a95838383611bc0565b151515610aa157600080fd5b600160008573ffffffffffffffffffffffffffffffffffffffff1673ffffffffffffffffffffffffffffffffffffffff16815260200190815260200160002060020160008673ffffffffffffffffffffffffffffffffffffffff1673ffffffffffffffffffffffffffffffffffffffff1681526020019081526020016000206001018054806001018281610b359190611f52565b9160005260206000209001600033909190916101000a81548173ffffffffffffffffffffffffffffffffffffffff021916908373ffffffffffffffffffffffffffffffffffffffff160217905550507f8bebbec3f3e261d11395b95a20dfa04d552964c4cdcc2ec2fa873965d7e94a1a8533604051808373ffffffffffffffffffffffffffffffffffffffff1673ffffffffffffffffffffffffffffffffffffffff1681526020018273ffffffffffffffffffffffffffffffffffffffff1673ffffffffffffffffffffffffffffffffffffffff1681526020019250505060405180910390a1610c258486610f4b565b15610c3557610c348486611c55565b5b5050505050565b600080610c49848461100e565b5111905092915050565b8133610c5f8282611a6f565b1515610c6a57600080fd5b8383610c768282611a40565b151515610c8257600080fd5b60016002600087815260200190815260200160002060010160008873ffffffffffffffffffffffffffffffffffffffff1673ffffffffffffffffffffffffffffffffffffffff16815260200190815260200160002060006101000a81548160ff021916908315150217905550505050505050565b610cff33610a2e565b1515610d0a57600080fd5b8181610d168282611a6f565b151515610d2257600080fd5b600160008573ffffffffffffffffffffffffffffffffffffffff1673ffffffffffffffffffffffffffffffffffffffff1681526020019081526020016000206001018054806001018281610d769190611f52565b9160005260206000209001600085909190916101000a81548173ffffffffffffffffffffffffffffffffffffffff021916908373ffffffffffffffffffffffffffffffffffffffff1602179055505050505050565b610dd3611f3e565b600160008373ffffffffffffffffffffffffffffffffffffffff1673ffffffffffffffffffffffffffffffffffffffff168152602001908152602001600020600101805480602002602001604051908101604052809291908181526020018280548015610e9557602002820191906000526020600020905b8160009054906101000a900473ffffffffffffffffffffffffffffffffffffffff1673ffffffffffffffffffffffffffffffffffffffff1681526020019060010190808311610e4b575b50505050509050919050565b6000600160008473ffffffffffffffffffffffffffffffffffffffff1673ffffffffffffffffffffffffffffffffffffffff16815260200190815260200160002060000160008373ffffffffffffffffffffffffffffffffffffffff1673ffffffffffffffffffffffffffffffffffffffff16815260200190815260200160002060009054906101000a900473ffffffffffffffffffffffffffffffffffffffff16905092915050565b600080600160008573ffffffffffffffffffffffffffffffffffffffff1673ffffffffffffffffffffffffffffffffffffffff16815260200190815260200160002060000160008473ffffffffffffffffffffffffffffffffffffffff1673ffffffffffffffffffffffffffffffffffffffff16815260200190815260200160002060009054906101000a900473ffffffffffffffffffffffffffffffffffffffff1673ffffffffffffffffffffffffffffffffffffffff161415905092915050565b611016611f3e565b600160008473ffffffffffffffffffffffffffffffffffffffff1673ffffffffffffffffffffffffffffffffffffffff16815260200190815260200160002060020160008373ffffffffffffffffffffffffffffffffffffffff1673ffffffffffffffffffffffffffffffffffffffff16815260200190815260200160002060010180548060200260200160405190810160405280929190818152602001828054801561111857602002820191906000526020600020905b8160009054906101000a900473ffffffffffffffffffffffffffffffffffffffff1673ffffffffffffffffffffffffffffffffffffffff16815260200190600101908083116110ce575b5050505050905092915050565b600082336111338282611a6f565b151561113e57600080fd5b600160008673ffffffffffffffffffffffffffffffffffffffff1673ffffffffffffffffffffffffffffffffffffffff16815260200190815260200160002060020160008573ffffffffffffffffffffffffffffffffffffffff1673ffffffffffffffffffffffffffffffffffffffff1681526020019081526020016000206000015492506000600160008773ffffffffffffffffffffffffffffffffffffffff1673ffffffffffffffffffffffffffffffffffffffff16815260200190815260200160002060020160008673ffffffffffffffffffffffffffffffffffffffff1673ffffffffffffffffffffffffffffffffffffffff168152602001908152602001600020600001819055507f916151f4b7c8b7e6a9b9a15aee0bc9306a6029f30bbcc7581ae41e5fbb6f9cc684338786604051808573ffffffffffffffffffffffffffffffffffffffff1673ffffffffffffffffffffffffffffffffffffffff1681526020018473ffffffffffffffffffffffffffffffffffffffff1673ffffffffffffffffffffffffffffffffffffffff1681526020018373ffffffffffffffffffffffffffffffffffffffff1673ffffffffffffffffffffffffffffffffffffffff16815260200182815260200194505050505060405180910390a15050505050565b813360006113338383610f4b565b90506000151581151514151561134857600080fd5b84846113548282611a6f565b151561135f57600080fd5b85600160008973ffffffffffffffffffffffffffffffffffffffff1673ffffffffffffffffffffffffffffffffffffffff16815260200190815260200160002060000160003373ffffffffffffffffffffffffffffffffffffffff1673ffffffffffffffffffffffffffffffffffffffff16815260200190815260200160002060006101000a81548173ffffffffffffffffffffffffffffffffffffffff021916908373ffffffffffffffffffffffffffffffffffffffff1602179055507f15d4dc5823ad93ff15853c29fe499f88e2ff4154dc93315579d62a63c03a804f338789604051808473ffffffffffffffffffffffffffffffffffffffff1673ffffffffffffffffffffffffffffffffffffffff1681526020018373ffffffffffffffffffffffffffffffffffffffff1673ffffffffffffffffffffffffffffffffffffffff1681526020018273ffffffffffffffffffffffffffffffffffffffff1673ffffffffffffffffffffffffffffffffffffffff168152602001935050505060405180910390a16114f28733610c3c565b15611506576115018733611c55565b6115d2565b7f117e433e0797744077a518100f441bdfdfb9e3cb0565a66a0cba4ffa5c658ed5338789604051808473ffffffffffffffffffffffffffffffffffffffff1673ffffffffffffffffffffffffffffffffffffffff1681526020018373ffffffffffffffffffffffffffffffffffffffff1673ffffffffffffffffffffffffffffffffffffffff1681526020018273ffffffffffffffffffffffffffffffffffffffff1673ffffffffffffffffffffffffffffffffffffffff168152602001935050505060405180910390a15b50505050505050565b600084843381600160008573ffffffffffffffffffffffffffffffffffffffff1673ffffffffffffffffffffffffffffffffffffffff16815260200190815260200160002060020160008373ffffffffffffffffffffffffffffffffffffffff1673ffffffffffffffffffffffffffffffffffffffff168152602001908152602001600020600001541015151561167157600080fd5b878561167d8282611a40565b151561168857600080fd5b88600160008c73ffffffffffffffffffffffffffffffffffffffff1673ffffffffffffffffffffffffffffffffffffffff16815260200190815260200160002060020160003373ffffffffffffffffffffffffffffffffffffffff1673ffffffffffffffffffffffffffffffffffffffff1681526020019081526020016000206000016000828254039250508190555088600160008c73ffffffffffffffffffffffffffffffffffffffff1673ffffffffffffffffffffffffffffffffffffffff16815260200190815260200160002060020160008a73ffffffffffffffffffffffffffffffffffffffff1673ffffffffffffffffffffffffffffffffffffffff16815260200190815260200160002060000160008282540192505081905550600160008b73ffffffffffffffffffffffffffffffffffffffff1673ffffffffffffffffffffffffffffffffffffffff16815260200190815260200160002060020160003373ffffffffffffffffffffffffffffffffffffffff1673ffffffffffffffffffffffffffffffffffffffff1681526020019081526020016000206000015495507facf8da3295eff876ee655d10d83f2aa108d3ffcb28d4a52b32c8b9fda14dd537338b8a8c600260008d81526020019081526020016000206000018b604051808773ffffffffffffffffffffffffffffffffffffffff1673ffffffffffffffffffffffffffffffffffffffff1681526020018673ffffffffffffffffffffffffffffffffffffffff1673ffffffffffffffffffffffffffffffffffffffff1681526020018573ffffffffffffffffffffffffffffffffffffffff1673ffffffffffffffffffffffffffffffffffffffff168152602001848152602001806020018381526020018281038252848181546001816001161561010002031660029004815260200191508054600181600116156101000203166002900480156119945780601f1061196957610100808354040283529160200191611994565b820191906000526020600020905b81548152906001019060200180831161197757829003601f168201915b505097505050505050505060405180910390a150505050505050505050565b6000600160008473ffffffffffffffffffffffffffffffffffffffff1673ffffffffffffffffffffffffffffffffffffffff16815260200190815260200160002060020160008373ffffffffffffffffffffffffffffffffffffffff1673ffffffffffffffffffffffffffffffffffffffff16815260200190815260200160002060000154905092915050565b6000808373ffffffffffffffffffffffffffffffffffffffff16118015611a675750600082115b905092915050565b6000611a79611f3e565b6000600160008673ffffffffffffffffffffffffffffffffffffffff1673ffffffffffffffffffffffffffffffffffffffff168152602001908152602001600020600101805480602002602001604051908101604052809291908181526020018280548015611b3d57602002820191906000526020600020905b8160009054906101000a900473ffffffffffffffffffffffffffffffffffffffff1673ffffffffffffffffffffffffffffffffffffffff1681526020019060010190808311611af3575b50505050509150600090505b8151811015611bb3578181815181101515611b6057fe5b9060200190602002015173ffffffffffffffffffffffffffffffffffffffff168473ffffffffffffffffffffffffffffffffffffffff161415611ba65760019250611bb8565b8080600101915050611b49565b600092505b505092915050565b6000611bca611f3e565b6000611bd6848661100e565b9150600090505b8151811015611c47578573ffffffffffffffffffffffffffffffffffffffff168282815181101515611c0b57fe5b9060200190602002015173ffffffffffffffffffffffffffffffffffffffff161415611c3a5760019250611c4c565b8080600101915050611bdd565b600092505b50509392505050565b6000808383611c648282610c3c565b1515611c6f57600080fd5b61012c600160008873ffffffffffffffffffffffffffffffffffffffff1673ffffffffffffffffffffffffffffffffffffffff16815260200190815260200160002060020160008773ffffffffffffffffffffffffffffffffffffffff1673ffffffffffffffffffffffffffffffffffffffff1681526020019081526020016000206000016000828254019250508190559350600160008773ffffffffffffffffffffffffffffffffffffffff1673ffffffffffffffffffffffffffffffffffffffff16815260200190815260200160002060000160008673ffffffffffffffffffffffffffffffffffffffff1673ffffffffffffffffffffffffffffffffffffffff16815260200190815260200160002060009054906101000a900473ffffffffffffffffffffffffffffffffffffffff1692506000600160008873ffffffffffffffffffffffffffffffffffffffff1673ffffffffffffffffffffffffffffffffffffffff16815260200190815260200160002060000160008773ffffffffffffffffffffffffffffffffffffffff1673ffffffffffffffffffffffffffffffffffffffff16815260200190815260200160002060006101000a81548173ffffffffffffffffffffffffffffffffffffffff021916908373ffffffffffffffffffffffffffffffffffffffff1602179055507ffc54ec0e11d1b39527283c51c6483c783d24dfe358a45f1b6e6d0d0b18d9f42c85848887604051808573ffffffffffffffffffffffffffffffffffffffff1673ffffffffffffffffffffffffffffffffffffffff1681526020018473ffffffffffffffffffffffffffffffffffffffff1673ffffffffffffffffffffffffffffffffffffffff1681526020018373ffffffffffffffffffffffffffffffffffffffff1673ffffffffffffffffffffffffffffffffffffffff16815260200182815260200194505050505060405180910390a1505050505050565b602060405190810160405280600081525090565b815481835581811511611f7957818360005260206000209182019101611f789190611f7e565b5b505050565b611fa091905b80821115611f9c576000816000905550600101611f84565b5090565b905600a165627a7a723058203b3326fd04af568e5f6ef861f7e2df00ed47d1698a5c7b544a27bda284af95010029",
  "source": "pragma solidity ^0.4.18;\r\n\r\nimport { Owned } from './Owned.sol';\r\n\r\ncontract Salv is Owned(msg.sender) {\r\n    \r\n    event IdentityValidated(address account, address validator);\r\n    event FundRequested(address applicant, address sponsor, address token);\r\n    event FundQueued(address applicant, address sponsor, address token);\r\n    event FundGranted(address applicant, address sponsor, address token, uint newBalance);\r\n    event TokenSpent(address applicant, address token, address supplier, uint price, string product, uint newBalance);\r\n    event TokenExchanged(address supplier, address sponsor, address token, uint amountExchanged);\r\n\r\n    /*modifier requiresOpenRequest(address token, address applicant) {\r\n        require(hasOpenRequest(applicant));\r\n        _;\r\n    }*/\r\n\r\n    modifier requiresBalanceOf(address token, uint amount, address account) {\r\n        require(_tokens[token].wallets[account].balance >= amount);\r\n        _;\r\n    }\r\n\r\n    modifier requiresInvalidArtifact(address token, uint artifact) {\r\n        require(!isArtifactValid(token, artifact));\r\n        _;\r\n    }\r\n\r\n    modifier requiresNoOpenRequest(address token, address applicant) {\r\n        bool ret = hasOpenRequest(token, applicant);\r\n        require(ret == false);\r\n        _;\r\n    }\r\n\r\n    modifier requiresNotSponsor(address token, address account) {\r\n        require(!isSponsor(token, account));\r\n        _;\r\n    }\r\n\r\n    modifier requiresNotValidatedBy(address validator, address token, address account) {\r\n        require(!isAccountValidatedBy(validator, token, account));\r\n        _;\r\n    }\r\n\r\n    modifier requiresSponsor(address token, address account) {\r\n        require(isSponsor(token, account));\r\n        _;\r\n    }\r\n\r\n    modifier requiresValidated(address token, address account) {\r\n        require(isAccountValidated(token, account));\r\n        _;\r\n    }\r\n\r\n    modifier requiresValidArtifact(address token, uint artifact) {\r\n        require(isArtifactValid(token, artifact));\r\n        _;\r\n    }\r\n\r\n    mapping ( address => Token ) _tokens;\r\n    mapping ( uint => Artifact ) _artifacts;\r\n\r\n    struct Artifact {\r\n        string name; // Just for visual representation. Should not be in the final script.\r\n        mapping (address => bool) validTokens; // disabled for testing reasons\r\n    }\r\n\r\n    struct Token {\r\n        mapping ( address => address ) openRequests;\r\n        address[] sponsors;\r\n        mapping (address => Wallet) wallets;\r\n    }\r\n\r\n    struct Wallet {\r\n        uint balance;\r\n        address[] validators;\r\n    }\r\n\r\n    function Salv() public {\r\n        _artifacts[42] = Artifact({name: \"Rubber Duck\"});\r\n        _artifacts[101] = Artifact({name: \"Swimming Ticket\"});\r\n    }\r\n\r\n    function addArtifactToken(address token, uint artifact) public requiresSponsor(token, msg.sender) requiresInvalidArtifact(token, artifact) {\r\n        _artifacts[artifact].validTokens[token] = true;\r\n    }\r\n\r\n    function addSponsor(address token, address newSponsor) public requiresOwner requiresNotSponsor(token, newSponsor) {\r\n        _tokens[token].sponsors.push(newSponsor);\r\n    }\r\n\r\n    function exchange(address token, address supplier) public requiresSponsor(token, msg.sender) {\r\n        uint amount = _tokens[token].wallets[supplier].balance;\r\n        _tokens[token].wallets[supplier].balance = 0;\r\n        TokenExchanged(supplier, msg.sender, token, amount);\r\n    }\r\n\r\n    function getAccountValidators(address token, address account) public view returns (address[] validators) {\r\n        return _tokens[token].wallets[account].validators;\r\n    }\r\n\r\n    function getBalance(address token, address account) public view returns (uint balance) {\r\n        return (_tokens[token].wallets[account].balance);\r\n    }\r\n\r\n    function getSponsorOfOpenRequest(address token, address applicant) public view returns (address sponsor) {\r\n        return _tokens[token].openRequests[applicant];\r\n    }\r\n\r\n    function getSponsors(address token) public view returns (address[] sponsors) {\r\n        return _tokens[token].sponsors;\r\n    }\r\n\r\n    function grantFund(address token, address applicant) private requiresValidated(token, applicant) {\r\n        uint newBalance = (_tokens[token].wallets[applicant].balance += 300);\r\n        address sponsor = _tokens[token].openRequests[applicant];\r\n        _tokens[token].openRequests[applicant] = 0;\r\n        FundGranted(applicant, sponsor, token, newBalance);\r\n    }\r\n\r\n    function hasOpenRequest(address token, address applicant) public view returns (bool) {\r\n        return _tokens[token].openRequests[applicant] != 0;\r\n    }\r\n\r\n    function isAccountValidated(address token, address account) public view returns (bool isValidated) {\r\n        return getAccountValidators(token, account).length > 0;\r\n    }\r\n\r\n    function isAccountValidatedBy(address validator, address token, address account) private view returns (bool isValidated) {\r\n        address[] memory validators = getAccountValidators(account, token);\r\n        for (uint i = 0; i < validators.length; i++) {\r\n            if (validators[i] == validator) {\r\n                return true;\r\n            }\r\n        }\r\n        return false;\r\n    }\r\n\r\n    function isArtifactValid(address token, uint artifact) public view returns (bool) {\r\n        return token > 0 && artifact > 0;\r\n        // Disabled for testing purposes \r\n        //return (_artifacts[artifact].validTokens[token] != true);\r\n    }\r\n\r\n    function isSponsor(address token, address account) private view returns (bool) {\r\n        address[] memory sponsors = _tokens[token].sponsors;\r\n        for (uint i = 0; i < sponsors.length; i++) {\r\n            if (account == sponsors[i]) {\r\n                return true;\r\n            }\r\n        }\r\n        return false;\r\n    }\r\n\r\n    function removeArtifactToken(address token, uint artifact) public requiresSponsor(token, msg.sender) requiresValidArtifact(token, artifact) {\r\n        _artifacts[artifact].validTokens[token] = false;\r\n    }\r\n\r\n    function removeSponsor(address token, address sponsor) public requiresOwner requiresSponsor(token, sponsor) {\r\n        address[] memory sponsors = _tokens[token].sponsors;\r\n        for (uint i = 0; i < sponsors.length; i++) {\r\n            delete _tokens[token].sponsors[i];\r\n            return;\r\n        }\r\n    }\r\n\r\n    function requestFund(address token, address sponsor) public requiresNoOpenRequest(token, msg.sender) requiresSponsor(token, sponsor) {\r\n        _tokens[token].openRequests[msg.sender] = sponsor;\r\n        FundRequested(msg.sender, sponsor, token);\r\n        if (isAccountValidated(token, msg.sender)) {\r\n            // grant fund\r\n            grantFund(token, msg.sender);\r\n        } else {\r\n            // add to queue, waiting to be validated\r\n            FundQueued(msg.sender, sponsor, token);\r\n        }\r\n    }\r\n\r\n    function spend(address token, uint amount, address supplier, uint artifact) public requiresBalanceOf(token, amount, msg.sender) requiresValidArtifact(token, artifact) {\r\n        _tokens[token].wallets[msg.sender].balance -= amount;\r\n        _tokens[token].wallets[supplier].balance += amount;\r\n        uint balance = _tokens[token].wallets[msg.sender].balance;\r\n        TokenSpent(msg.sender, token, supplier, amount, _artifacts[artifact].name, balance);\r\n    } \r\n\r\n    function validateAccount(address account, address token) public requiresNotValidatedBy(msg.sender, token, account) {\r\n        _tokens[token].wallets[account].validators.push(msg.sender);\r\n        IdentityValidated(account, msg.sender);\r\n        if (hasOpenRequest(token, account)) {\r\n            grantFund(token, account);\r\n        }\r\n    }\r\n}",
  "sourcePath": "C:\\Users\\Martijn.Doornik\\Projects\\proofs-of-concept\\poc3-generic-forus-architecture\\contracts\\Salv.sol",
  "compiler": {
    "name": "solc",
    "version": "0.4.18+commit.9cf6e910.Emscripten.clang"
  },
  "schemaVersion": "1.0.1",
  "updatedAt": "2017-11-27T16:03:23.773Z"
}