{
  "contractName": "Owned",
  "abi": [
    {
      "constant": true,
      "inputs": [
        {
          "name": "account",
          "type": "address"
        }
      ],
      "name": "isOwner",
      "outputs": [
        {
          "name": "",
          "type": "bool"
        }
      ],
      "payable": false,
      "stateMutability": "view",
      "type": "function"
    },
    {
      "constant": false,
      "inputs": [
        {
          "name": "identity",
          "type": "uint256"
        }
      ],
      "name": "setOwner",
      "outputs": [],
      "payable": false,
      "stateMutability": "nonpayable",
      "type": "function"
    },
    {
      "inputs": [
        {
          "name": "identityManagerAddress",
          "type": "address"
        },
        {
          "name": "account",
          "type": "address"
        }
      ],
      "payable": false,
      "stateMutability": "nonpayable",
      "type": "constructor"
    }
  ],
  "bytecode": "0x6060604052341561000f57600080fd5b60405160408061047b8339810160405280805190602001909190805190602001909190505081600160006101000a81548173ffffffffffffffffffffffffffffffffffffffff021916908373ffffffffffffffffffffffffffffffffffffffff16021790555061009181610098640100000000026101d6176401000000009004565b5050610181565b600160009054906101000a900473ffffffffffffffffffffffffffffffffffffffff1673ffffffffffffffffffffffffffffffffffffffff16632748c1c2826000604051602001526040518263ffffffff167c0100000000000000000000000000000000000000000000000000000000028152600401808273ffffffffffffffffffffffffffffffffffffffff1673ffffffffffffffffffffffffffffffffffffffff168152602001915050602060405180830381600087803b151561015d57600080fd5b6102c65a03f1151561016e57600080fd5b5050506040518051905060008190555050565b6102eb806101906000396000f30060606040526004361061004c576000357c0100000000000000000000000000000000000000000000000000000000900463ffffffff1680632f54bf6e146100515780638041494e146100a2575b600080fd5b341561005c57600080fd5b610088600480803573ffffffffffffffffffffffffffffffffffffffff169060200190919050506100c5565b604051808215151515815260200191505060405180910390f35b34156100ad57600080fd5b6100c360048080359060200190919050506101b8565b005b6000600160009054906101000a900473ffffffffffffffffffffffffffffffffffffffff1673ffffffffffffffffffffffffffffffffffffffff1663cc48927a600054846000604051602001526040518363ffffffff167c0100000000000000000000000000000000000000000000000000000000028152600401808381526020018273ffffffffffffffffffffffffffffffffffffffff1673ffffffffffffffffffffffffffffffffffffffff16815260200192505050602060405180830381600087803b151561019657600080fd5b6102c65a03f115156101a757600080fd5b505050604051805190509050919050565b6101c1336100c5565b15156101cc57600080fd5b8060008190555050565b600160009054906101000a900473ffffffffffffffffffffffffffffffffffffffff1673ffffffffffffffffffffffffffffffffffffffff16632748c1c2826000604051602001526040518263ffffffff167c0100000000000000000000000000000000000000000000000000000000028152600401808273ffffffffffffffffffffffffffffffffffffffff1673ffffffffffffffffffffffffffffffffffffffff168152602001915050602060405180830381600087803b151561029b57600080fd5b6102c65a03f115156102ac57600080fd5b50505060405180519050600081905550505600a165627a7a723058200c24ff2e857ef86cd9af24a82f17420f8057ea926d4e9076f586b7c1bdf6a2560029",
  "source": "pragma solidity ^0.4.17;\r\n\r\nimport { IdentityManager } from './IdentityManager.sol';\r\n\r\ncontract Owned {\r\n    uint private _ownerId;\r\n    IdentityManager private identityManager;\r\n\r\n    modifier requiresOwner() {\r\n        require(isOwner(msg.sender));\r\n        _;\r\n    }\r\n\r\n    function isOwner(address account) public view returns(bool) {\r\n        return identityManager.equals(_ownerId, account);\r\n    }\r\n\r\n    function Owned(address identityManagerAddress, address account) public {\r\n        identityManager = IdentityManager(identityManagerAddress);\r\n        setOwnerByAddress(account);\r\n    }\r\n\r\n    function setOwner(uint identity) public requiresOwner {\r\n        _ownerId = identity;\r\n    }\r\n\r\n    function setOwnerByAddress(address ownerAddress) private {\r\n        _ownerId = identityManager.convertAddress(ownerAddress);\r\n    }\r\n    \r\n}",
  "sourcePath": "C:\\Users\\Martijn.Doornik\\Projects\\proofs-of-concept\\poc2-identity-restoration\\contracts\\Owned.sol",
  "compiler": {
    "name": "solc",
    "version": "0.4.18+commit.9cf6e910.Emscripten.clang"
  },
  "schemaVersion": "1.0.1",
  "updatedAt": "2017-11-17T12:45:57.923Z"
}