{
  "contractName": "Artifact",
  "abi": [
    {
      "constant": false,
      "inputs": [
        {
          "name": "identity",
          "type": "address"
        }
      ],
      "name": "setOwner",
      "outputs": [],
      "payable": false,
      "stateMutability": "nonpayable",
      "type": "function"
    },
    {
      "constant": true,
      "inputs": [
        {
          "name": "identity",
          "type": "address"
        }
      ],
      "name": "validate",
      "outputs": [
        {
          "name": "isValid",
          "type": "bool"
        }
      ],
      "payable": false,
      "stateMutability": "view",
      "type": "function"
    },
    {
      "constant": true,
      "inputs": [
        {
          "name": "identity",
          "type": "address"
        }
      ],
      "name": "isOwner",
      "outputs": [
        {
          "name": "",
          "type": "bool"
        }
      ],
      "payable": false,
      "stateMutability": "view",
      "type": "function"
    },
    {
      "constant": true,
      "inputs": [],
      "name": "_validationOperator",
      "outputs": [
        {
          "name": "",
          "type": "string"
        }
      ],
      "payable": false,
      "stateMutability": "view",
      "type": "function"
    },
    {
      "constant": true,
      "inputs": [],
      "name": "getOwner",
      "outputs": [
        {
          "name": "owner",
          "type": "address"
        }
      ],
      "payable": false,
      "stateMutability": "view",
      "type": "function"
    },
    {
      "constant": true,
      "inputs": [
        {
          "name": "identity",
          "type": "address"
        }
      ],
      "name": "hasPermission",
      "outputs": [
        {
          "name": "has",
          "type": "bool"
        }
      ],
      "payable": false,
      "stateMutability": "view",
      "type": "function"
    },
    {
      "constant": true,
      "inputs": [],
      "name": "_validationKey",
      "outputs": [
        {
          "name": "",
          "type": "string"
        }
      ],
      "payable": false,
      "stateMutability": "view",
      "type": "function"
    },
    {
      "constant": true,
      "inputs": [],
      "name": "getValidOperators",
      "outputs": [
        {
          "name": "operators",
          "type": "bytes32[6]"
        }
      ],
      "payable": false,
      "stateMutability": "pure",
      "type": "function"
    },
    {
      "constant": true,
      "inputs": [
        {
          "name": "operator",
          "type": "string"
        }
      ],
      "name": "isValidOperator",
      "outputs": [
        {
          "name": "",
          "type": "bool"
        }
      ],
      "payable": false,
      "stateMutability": "pure",
      "type": "function"
    },
    {
      "constant": true,
      "inputs": [],
      "name": "_validationValue",
      "outputs": [
        {
          "name": "",
          "type": "uint256"
        }
      ],
      "payable": false,
      "stateMutability": "view",
      "type": "function"
    },
    {
      "inputs": [
        {
          "name": "owner",
          "type": "address"
        },
        {
          "name": "key",
          "type": "string"
        },
        {
          "name": "operator",
          "type": "string"
        },
        {
          "name": "value",
          "type": "uint256"
        }
      ],
      "payable": false,
      "stateMutability": "nonpayable",
      "type": "constructor"
    },
    {
      "anonymous": false,
      "inputs": [
        {
          "indexed": false,
          "name": "newOwner",
          "type": "address"
        }
      ],
      "name": "NewOwner",
      "type": "event"
    }
  ],
  "bytecode": "0x606060405234156200001057600080fd5b604051620010db380380620010db8339810160405280805190602001909190805182019190602001805182019190602001805190602001909190505082828286806000806101000a81548173ffffffffffffffffffffffffffffffffffffffff021916908373ffffffffffffffffffffffffffffffffffffffff160217905550508260019080519060200190620000a9929190620000d7565b508160029080519060200190620000c2929190620000d7565b50806003819055505050505050505062000186565b828054600181600116156101000203166002900490600052602060002090601f016020900481019282601f106200011a57805160ff19168380011785556200014b565b828001600101855582156200014b579182015b828111156200014a5782518255916020019190600101906200012d565b5b5090506200015a91906200015e565b5090565b6200018391905b808211156200017f57600081600090555060010162000165565b5090565b90565b610f4580620001966000396000f3006060604052600436106100a4576000357c0100000000000000000000000000000000000000000000000000000000900463ffffffff16806313af4035146100a9578063207c64fb146100e25780632f54bf6e146101335780636299aede14610184578063893d20e81461021257806397128e0014610267578063a55f1c13146102b8578063b67d103f14610346578063baed357914610397578063d96ca7e71461040c575b600080fd5b34156100b457600080fd5b6100e0600480803573ffffffffffffffffffffffffffffffffffffffff16906020019091905050610435565b005b34156100ed57600080fd5b610119600480803573ffffffffffffffffffffffffffffffffffffffff1690602001909190505061048e565b604051808215151515815260200191505060405180910390f35b341561013e57600080fd5b61016a600480803573ffffffffffffffffffffffffffffffffffffffff1690602001909190505061094e565b604051808215151515815260200191505060405180910390f35b341561018f57600080fd5b6101976109a7565b6040518080602001828103825283818151815260200191508051906020019080838360005b838110156101d75780820151818401526020810190506101bc565b50505050905090810190601f1680156102045780820380516001836020036101000a031916815260200191505b509250505060405180910390f35b341561021d57600080fd5b610225610a45565b604051808273ffffffffffffffffffffffffffffffffffffffff1673ffffffffffffffffffffffffffffffffffffffff16815260200191505060405180910390f35b341561027257600080fd5b61029e600480803573ffffffffffffffffffffffffffffffffffffffff16906020019091905050610a6e565b604051808215151515815260200191505060405180910390f35b34156102c357600080fd5b6102cb610b35565b6040518080602001828103825283818151815260200191508051906020019080838360005b8381101561030b5780820151818401526020810190506102f0565b50505050905090810190601f1680156103385780820380516001836020036101000a031916815260200191505b509250505060405180910390f35b341561035157600080fd5b610359610bd3565b6040518082600660200280838360005b83811015610384578082015181840152602081019050610369565b5050505090500191505060405180910390f35b34156103a257600080fd5b6103f2600480803590602001908201803590602001908080601f01602080910402602001604051908101604052809392919081815260200183838082843782019150505050505091905050610d7c565b604051808215151515815260200191505060405180910390f35b341561041757600080fd5b61041f610ee8565b6040518082815260200191505060405180910390f35b3361043f8161094e565b151561044a57600080fd5b816000806101000a81548173ffffffffffffffffffffffffffffffffffffffff021916908373ffffffffffffffffffffffffffffffffffffffff1602179055505050565b6000806000808473ffffffffffffffffffffffffffffffffffffffff1663960384a060016000604051604001526040518263ffffffff167c0100000000000000000000000000000000000000000000000000000000028152600401808060200182810382528381815460018160011615610100020316600290048152602001915080546001816001161561010002031660029004801561056f5780601f106105445761010080835404028352916020019161056f565b820191906000526020600020905b81548152906001019060200180831161055257829003601f168201915b5050925050506040805180830381600087803b151561058d57600080fd5b6102c65a03f1151561059e57600080fd5b505050604051805190602001805190509250925060028060006040516020015260405180828054600181600116156101000203166002900480156106195780601f106105f7576101008083540402835291820191610619565b820191906000526020600020905b815481529060010190602001808311610605575b505091505060206040518083038160008661646e5a03f1151561063b57600080fd5b5050604051805190509050600082111561094157600260006040516020015260405180807f3e3d000000000000000000000000000000000000000000000000000000000000815250600201905060206040518083038160008661646e5a03f115156106a557600080fd5b50506040518051905060001916816000191614156106cd576003548360ff1610159350610946565b600260006040516020015260405180807f3c3d000000000000000000000000000000000000000000000000000000000000815250600201905060206040518083038160008661646e5a03f1151561072357600080fd5b505060405180519050600019168160001916141561074b576003548360ff1611159350610946565b600260006040516020015260405180807f3d3d000000000000000000000000000000000000000000000000000000000000815250600201905060206040518083038160008661646e5a03f115156107a157600080fd5b50506040518051905060001916816000191614156107c8576003548360ff16149350610946565b600260006040516020015260405180807f213d000000000000000000000000000000000000000000000000000000000000815250600201905060206040518083038160008661646e5a03f1151561081e57600080fd5b5050604051805190506000191681600019161415610846576003548360ff1614159350610946565b600260006040516020015260405180807f3e00000000000000000000000000000000000000000000000000000000000000815250600101905060206040518083038160008661646e5a03f1151561089c57600080fd5b50506040518051905060001916816000191614156108c3576003548360ff16119350610946565b600260006040516020015260405180807f3c00000000000000000000000000000000000000000000000000000000000000815250600101905060206040518083038160008661646e5a03f1151561091957600080fd5b5050604051805190506000191681600019161415610940576003548360ff16109350610946565b5b600093505b505050919050565b60008173ffffffffffffffffffffffffffffffffffffffff166000809054906101000a900473ffffffffffffffffffffffffffffffffffffffff1673ffffffffffffffffffffffffffffffffffffffff16149050919050565b60028054600181600116156101000203166002900480601f016020809104026020016040519081016040528092919081815260200182805460018160011615610100020316600290048015610a3d5780601f10610a1257610100808354040283529160200191610a3d565b820191906000526020600020905b815481529060010190602001808311610a2057829003601f168201915b505050505081565b60008060009054906101000a900473ffffffffffffffffffffffffffffffffffffffff16905090565b60008173ffffffffffffffffffffffffffffffffffffffff166397128e00306000604051602001526040518263ffffffff167c0100000000000000000000000000000000000000000000000000000000028152600401808273ffffffffffffffffffffffffffffffffffffffff1673ffffffffffffffffffffffffffffffffffffffff168152602001915050602060405180830381600087803b1515610b1357600080fd5b6102c65a03f11515610b2457600080fd5b505050604051805190509050919050565b60018054600181600116156101000203166002900480601f016020809104026020016040519081016040528092919081815260200182805460018160011615610100020316600290048015610bcb5780601f10610ba057610100808354040283529160200191610bcb565b820191906000526020600020905b815481529060010190602001808311610bae57829003601f168201915b505050505081565b610bdb610eee565b610be3610eee565b7f3c00000000000000000000000000000000000000000000000000000000000000816000600681101515610c1357fe5b602002019060001916908160001916815250507f3c3d000000000000000000000000000000000000000000000000000000000000816001600681101515610c5657fe5b602002019060001916908160001916815250507f3d3d000000000000000000000000000000000000000000000000000000000000816002600681101515610c9957fe5b602002019060001916908160001916815250507f3e3d000000000000000000000000000000000000000000000000000000000000816003600681101515610cdc57fe5b602002019060001916908160001916815250507f3e00000000000000000000000000000000000000000000000000000000000000816004600681101515610d1f57fe5b602002019060001916908160001916815250507f213d000000000000000000000000000000000000000000000000000000000000816005600681101515610d6257fe5b602002019060001916908160001916815250508091505090565b6000610d86610eee565b6000610d90610bd3565b9150600090505b6006811015610edc576002846000604051602001526040518082805190602001908083835b602083101515610de15780518252602082019150602081019050602083039250610dbc565b6001836020036101000a03801982511681845116808217855250505050505090500191505060206040518083038160008661646e5a03f11515610e2357600080fd5b505060405180519050600019166002856000604051602001526040518082805190602001908083835b602083101515610e715780518252602082019150602081019050602083039250610e4c565b6001836020036101000a03801982511681845116808217855250505050505090500191505060206040518083038160008661646e5a03f11515610eb357600080fd5b505060405180519050600019161415610ecf5760019250610ee1565b8080600101915050610d97565b600092505b5050919050565b60035481565b60c0604051908101604052806006905b6000801916815260200190600190039081610efe57905050905600a165627a7a723058208e7129dae965b00ffa0330d393927fcdb9aa1b59c497dcbd9631e9ad153153550029",
  "source": "pragma solidity ^0.4.17;\r\n\r\nimport { Identity } from './Identity.sol';\r\nimport { Owned } from './Owned.sol';\r\nimport { Validated } from './Validated.sol';\r\n\r\ncontract Artifact is Owned, Validated {\r\n\r\n    function Artifact(Identity owner, string key, string operator, uint value) public Owned(address(owner)) Validated(key, operator, value) {}\r\n    \r\n}",
  "sourcePath": "C:\\Users\\Martijn.Doornik\\Projects\\proofs-of-concept\\demo003-platform\\contracts\\Artifact.sol",
  "compiler": {
    "name": "solc",
    "version": "0.4.18+commit.9cf6e910.Emscripten.clang"
  },
  "schemaVersion": "1.0.1",
  "updatedAt": "2017-12-19T17:40:56.534Z"
}