{
  "contractName": "Artifact",
  "abi": [
    {
      "constant": false,
      "inputs": [
        {
          "name": "identity",
          "type": "address"
        }
      ],
      "name": "setOwner",
      "outputs": [],
      "payable": false,
      "stateMutability": "nonpayable",
      "type": "function"
    },
    {
      "constant": true,
      "inputs": [
        {
          "name": "identity",
          "type": "address"
        }
      ],
      "name": "validate",
      "outputs": [
        {
          "name": "isValid",
          "type": "bool"
        }
      ],
      "payable": false,
      "stateMutability": "view",
      "type": "function"
    },
    {
      "constant": true,
      "inputs": [
        {
          "name": "identity",
          "type": "address"
        }
      ],
      "name": "isOwner",
      "outputs": [
        {
          "name": "",
          "type": "bool"
        }
      ],
      "payable": false,
      "stateMutability": "view",
      "type": "function"
    },
    {
      "constant": true,
      "inputs": [],
      "name": "getOwner",
      "outputs": [
        {
          "name": "owner",
          "type": "address"
        }
      ],
      "payable": false,
      "stateMutability": "view",
      "type": "function"
    },
    {
      "constant": true,
      "inputs": [
        {
          "name": "identity",
          "type": "address"
        }
      ],
      "name": "hasPermission",
      "outputs": [
        {
          "name": "has",
          "type": "bool"
        }
      ],
      "payable": false,
      "stateMutability": "view",
      "type": "function"
    },
    {
      "constant": true,
      "inputs": [],
      "name": "getValidOperators",
      "outputs": [
        {
          "name": "operators",
          "type": "bytes32[6]"
        }
      ],
      "payable": false,
      "stateMutability": "pure",
      "type": "function"
    },
    {
      "constant": true,
      "inputs": [
        {
          "name": "operator",
          "type": "string"
        }
      ],
      "name": "isValidOperator",
      "outputs": [
        {
          "name": "",
          "type": "bool"
        }
      ],
      "payable": false,
      "stateMutability": "pure",
      "type": "function"
    },
    {
      "inputs": [
        {
          "name": "owner",
          "type": "address"
        },
        {
          "name": "key",
          "type": "string"
        },
        {
          "name": "operator",
          "type": "string"
        },
        {
          "name": "value",
          "type": "uint256"
        }
      ],
      "payable": false,
      "stateMutability": "nonpayable",
      "type": "constructor"
    },
    {
      "anonymous": false,
      "inputs": [
        {
          "indexed": false,
          "name": "newOwner",
          "type": "address"
        }
      ],
      "name": "NewOwner",
      "type": "event"
    }
  ],
  "bytecode": "0x6060604052341561000f57600080fd5b604051610e0e380380610e0e8339810160405280805190602001909190805182019190602001805182019190602001805190602001909190505082828286806000806101000a81548173ffffffffffffffffffffffffffffffffffffffff021916908373ffffffffffffffffffffffffffffffffffffffff1602179055505082600190805190602001906100a49291906100cf565b5081600290805190602001906100bb9291906100cf565b508060038190555050505050505050610174565b828054600181600116156101000203166002900490600052602060002090601f016020900481019282601f1061011057805160ff191683800117855561013e565b8280016001018555821561013e579182015b8281111561013d578251825591602001919060010190610122565b5b50905061014b919061014f565b5090565b61017191905b8082111561016d576000816000905550600101610155565b5090565b90565b610c8b806101836000396000f300606060405260043610610083576000357c0100000000000000000000000000000000000000000000000000000000900463ffffffff16806313af403514610088578063207c64fb146100c15780632f54bf6e14610112578063893d20e81461016357806397128e00146101b8578063b67d103f14610209578063baed35791461025a575b600080fd5b341561009357600080fd5b6100bf600480803573ffffffffffffffffffffffffffffffffffffffff169060200190919050506102cf565b005b34156100cc57600080fd5b6100f8600480803573ffffffffffffffffffffffffffffffffffffffff16906020019091905050610328565b604051808215151515815260200191505060405180910390f35b341561011d57600080fd5b610149600480803573ffffffffffffffffffffffffffffffffffffffff169060200190919050506107d6565b604051808215151515815260200191505060405180910390f35b341561016e57600080fd5b61017661082f565b604051808273ffffffffffffffffffffffffffffffffffffffff1673ffffffffffffffffffffffffffffffffffffffff16815260200191505060405180910390f35b34156101c357600080fd5b6101ef600480803573ffffffffffffffffffffffffffffffffffffffff16906020019091905050610858565b604051808215151515815260200191505060405180910390f35b341561021457600080fd5b61021c61091f565b6040518082600660200280838360005b8381101561024757808201518184015260208101905061022c565b5050505090500191505060405180910390f35b341561026557600080fd5b6102b5600480803590602001908201803590602001908080601f01602080910402602001604051908101604052809392919081815260200183838082843782019150505050505091905050610ac8565b604051808215151515815260200191505060405180910390f35b336102d9816107d6565b15156102e457600080fd5b816000806101000a81548173ffffffffffffffffffffffffffffffffffffffff021916908373ffffffffffffffffffffffffffffffffffffffff1602179055505050565b6000806000808473ffffffffffffffffffffffffffffffffffffffff1663960384a060016000604051604001526040518263ffffffff167c010000000000000000000000000000000000000000000000000000000002815260040180806020018281038252838181546001816001161561010002031660029004815260200191508054600181600116156101000203166002900480156104095780601f106103de57610100808354040283529160200191610409565b820191906000526020600020905b8154815290600101906020018083116103ec57829003601f168201915b5050925050506040805180830381600087803b151561042757600080fd5b6102c65a03f1151561043857600080fd5b505050604051805190602001805190509250925060028060006040516020015260405180828054600181600116156101000203166002900480156104b35780601f106104915761010080835404028352918201916104b3565b820191906000526020600020905b81548152906001019060200180831161049f575b505091505060206040518083038160008661646e5a03f115156104d557600080fd5b505060405180519050905060008211156107c957600260006040516020015260405180807f3e3d000000000000000000000000000000000000000000000000000000000000815250600201905060206040518083038160008661646e5a03f1151561053f57600080fd5b50506040518051905060001916816000191614156105645760035483101593506107ce565b600260006040516020015260405180807f3c3d000000000000000000000000000000000000000000000000000000000000815250600201905060206040518083038160008661646e5a03f115156105ba57600080fd5b50506040518051905060001916816000191614156105df5760035483111593506107ce565b600260006040516020015260405180807f3d3d000000000000000000000000000000000000000000000000000000000000815250600201905060206040518083038160008661646e5a03f1151561063557600080fd5b505060405180519050600019168160001916141561065957600354831493506107ce565b600260006040516020015260405180807f213d000000000000000000000000000000000000000000000000000000000000815250600201905060206040518083038160008661646e5a03f115156106af57600080fd5b50506040518051905060001916816000191614156106d45760035483141593506107ce565b600260006040516020015260405180807f3e00000000000000000000000000000000000000000000000000000000000000815250600101905060206040518083038160008661646e5a03f1151561072a57600080fd5b505060405180519050600019168160001916141561074e57600354831193506107ce565b600260006040516020015260405180807f3c00000000000000000000000000000000000000000000000000000000000000815250600101905060206040518083038160008661646e5a03f115156107a457600080fd5b50506040518051905060001916816000191614156107c857600354831093506107ce565b5b600093505b505050919050565b60008173ffffffffffffffffffffffffffffffffffffffff166000809054906101000a900473ffffffffffffffffffffffffffffffffffffffff1673ffffffffffffffffffffffffffffffffffffffff16149050919050565b60008060009054906101000a900473ffffffffffffffffffffffffffffffffffffffff16905090565b60008173ffffffffffffffffffffffffffffffffffffffff166397128e00306000604051602001526040518263ffffffff167c0100000000000000000000000000000000000000000000000000000000028152600401808273ffffffffffffffffffffffffffffffffffffffff1673ffffffffffffffffffffffffffffffffffffffff168152602001915050602060405180830381600087803b15156108fd57600080fd5b6102c65a03f1151561090e57600080fd5b505050604051805190509050919050565b610927610c34565b61092f610c34565b7f3c0000000000000000000000000000000000000000000000000000000000000081600060068110151561095f57fe5b602002019060001916908160001916815250507f3c3d0000000000000000000000000000000000000000000000000000000000008160016006811015156109a257fe5b602002019060001916908160001916815250507f3d3d0000000000000000000000000000000000000000000000000000000000008160026006811015156109e557fe5b602002019060001916908160001916815250507f3e3d000000000000000000000000000000000000000000000000000000000000816003600681101515610a2857fe5b602002019060001916908160001916815250507f3e00000000000000000000000000000000000000000000000000000000000000816004600681101515610a6b57fe5b602002019060001916908160001916815250507f213d000000000000000000000000000000000000000000000000000000000000816005600681101515610aae57fe5b602002019060001916908160001916815250508091505090565b6000610ad2610c34565b6000610adc61091f565b9150600090505b6006811015610c28576002846000604051602001526040518082805190602001908083835b602083101515610b2d5780518252602082019150602081019050602083039250610b08565b6001836020036101000a03801982511681845116808217855250505050505090500191505060206040518083038160008661646e5a03f11515610b6f57600080fd5b505060405180519050600019166002856000604051602001526040518082805190602001908083835b602083101515610bbd5780518252602082019150602081019050602083039250610b98565b6001836020036101000a03801982511681845116808217855250505050505090500191505060206040518083038160008661646e5a03f11515610bff57600080fd5b505060405180519050600019161415610c1b5760019250610c2d565b8080600101915050610ae3565b600092505b5050919050565b60c0604051908101604052806006905b6000801916815260200190600190039081610c4457905050905600a165627a7a723058207de89b4d28b8c8ff13c49e9f44ea9d863bf77db98ad2a66006371bbc20ff8baa0029",
  "source": "pragma solidity ^0.4.17;\r\n\r\nimport { Identity } from './Identity.sol';\r\nimport { Owned } from './Owned.sol';\r\nimport { Validated } from './Validated.sol';\r\n\r\ncontract Artifact is Owned, Validated {\r\n\r\n    function Artifact(Identity owner, string key, string operator, uint value) public Owned(address(owner)) Validated(key, operator, value) {}\r\n    \r\n}",
  "sourcePath": "C:\\Users\\Martijn.Doornik\\Projects\\proofs-of-concept\\demo003-platform\\contracts\\Artifact.sol",
  "compiler": {
    "name": "solc",
    "version": "0.4.18+commit.9cf6e910.Emscripten.clang"
  },
  "schemaVersion": "1.0.1",
  "updatedAt": "2017-12-15T12:24:40.303Z"
}