{
  "contractName": "ForusVendor",
  "abi": [
    {
      "constant": false,
      "inputs": [
        {
          "name": "index",
          "type": "uint256"
        },
        {
          "name": "add",
          "type": "uint256"
        }
      ],
      "name": "addAvailability",
      "outputs": [],
      "payable": false,
      "stateMutability": "nonpayable",
      "type": "function"
    },
    {
      "constant": true,
      "inputs": [],
      "name": "getArtifactCount",
      "outputs": [
        {
          "name": "count",
          "type": "uint256"
        }
      ],
      "payable": false,
      "stateMutability": "view",
      "type": "function"
    },
    {
      "constant": true,
      "inputs": [
        {
          "name": "index",
          "type": "uint256"
        }
      ],
      "name": "artifactExists",
      "outputs": [
        {
          "name": "exists",
          "type": "bool"
        }
      ],
      "payable": false,
      "stateMutability": "view",
      "type": "function"
    },
    {
      "constant": false,
      "inputs": [
        {
          "name": "token",
          "type": "address"
        }
      ],
      "name": "requestFund",
      "outputs": [],
      "payable": false,
      "stateMutability": "nonpayable",
      "type": "function"
    },
    {
      "constant": false,
      "inputs": [
        {
          "name": "index",
          "type": "uint256"
        },
        {
          "name": "newAvailable",
          "type": "uint256"
        }
      ],
      "name": "setAvailability",
      "outputs": [],
      "payable": false,
      "stateMutability": "nonpayable",
      "type": "function"
    },
    {
      "constant": false,
      "inputs": [
        {
          "name": "token",
          "type": "address"
        },
        {
          "name": "index",
          "type": "uint256"
        },
        {
          "name": "price",
          "type": "uint256"
        }
      ],
      "name": "setArtifactPrice",
      "outputs": [],
      "payable": false,
      "stateMutability": "nonpayable",
      "type": "function"
    },
    {
      "constant": false,
      "inputs": [
        {
          "name": "name",
          "type": "string"
        },
        {
          "name": "fundSize",
          "type": "uint256"
        },
        {
          "name": "validationKey",
          "type": "string"
        },
        {
          "name": "validationOperator",
          "type": "string"
        },
        {
          "name": "validationValue",
          "type": "uint256"
        }
      ],
      "name": "addToken",
      "outputs": [],
      "payable": false,
      "stateMutability": "nonpayable",
      "type": "function"
    },
    {
      "constant": false,
      "inputs": [
        {
          "name": "providerIdentity",
          "type": "address"
        },
        {
          "name": "token",
          "type": "address"
        }
      ],
      "name": "addProvider",
      "outputs": [],
      "payable": false,
      "stateMutability": "nonpayable",
      "type": "function"
    },
    {
      "constant": false,
      "inputs": [
        {
          "name": "name",
          "type": "string"
        }
      ],
      "name": "addUnlimitedArtifact",
      "outputs": [],
      "payable": false,
      "stateMutability": "nonpayable",
      "type": "function"
    },
    {
      "constant": true,
      "inputs": [
        {
          "name": "index",
          "type": "uint256"
        }
      ],
      "name": "getArtifactByIndex",
      "outputs": [
        {
          "name": "name",
          "type": "string"
        },
        {
          "name": "limited",
          "type": "bool"
        },
        {
          "name": "available",
          "type": "uint256"
        }
      ],
      "payable": false,
      "stateMutability": "view",
      "type": "function"
    },
    {
      "constant": false,
      "inputs": [
        {
          "name": "name",
          "type": "string"
        },
        {
          "name": "available",
          "type": "uint256"
        }
      ],
      "name": "addLimitedArtifact",
      "outputs": [],
      "payable": false,
      "stateMutability": "nonpayable",
      "type": "function"
    },
    {
      "constant": false,
      "inputs": [
        {
          "name": "index",
          "type": "uint256"
        },
        {
          "name": "token",
          "type": "address"
        }
      ],
      "name": "purchase",
      "outputs": [],
      "payable": false,
      "stateMutability": "nonpayable",
      "type": "function"
    },
    {
      "constant": false,
      "inputs": [
        {
          "name": "account",
          "type": "address"
        },
        {
          "name": "token",
          "type": "address"
        }
      ],
      "name": "isSponsor",
      "outputs": [
        {
          "name": "sponsor",
          "type": "bool"
        }
      ],
      "payable": false,
      "stateMutability": "nonpayable",
      "type": "function"
    },
    {
      "inputs": [
        {
          "name": "manager",
          "type": "address"
        }
      ],
      "payable": false,
      "stateMutability": "nonpayable",
      "type": "constructor"
    },
    {
      "anonymous": false,
      "inputs": [
        {
          "indexed": false,
          "name": "index",
          "type": "uint256"
        },
        {
          "indexed": false,
          "name": "provider",
          "type": "address"
        },
        {
          "indexed": false,
          "name": "name",
          "type": "string"
        },
        {
          "indexed": false,
          "name": "limited",
          "type": "bool"
        },
        {
          "indexed": false,
          "name": "available",
          "type": "uint256"
        }
      ],
      "name": "ArtifactAdded",
      "type": "event"
    },
    {
      "anonymous": false,
      "inputs": [
        {
          "indexed": false,
          "name": "index",
          "type": "uint256"
        },
        {
          "indexed": false,
          "name": "availability",
          "type": "uint256"
        }
      ],
      "name": "ArtifactAvailabilityChanged",
      "type": "event"
    },
    {
      "anonymous": false,
      "inputs": [
        {
          "indexed": false,
          "name": "request",
          "type": "address"
        },
        {
          "indexed": false,
          "name": "provider",
          "type": "address"
        },
        {
          "indexed": false,
          "name": "token",
          "type": "address"
        }
      ],
      "name": "ArtifactBought",
      "type": "event"
    },
    {
      "anonymous": false,
      "inputs": [
        {
          "indexed": false,
          "name": "index",
          "type": "uint256"
        },
        {
          "indexed": false,
          "name": "token",
          "type": "address"
        },
        {
          "indexed": false,
          "name": "newPrice",
          "type": "uint256"
        }
      ],
      "name": "ArtifactPriceChanged",
      "type": "event"
    },
    {
      "anonymous": false,
      "inputs": [
        {
          "indexed": false,
          "name": "token",
          "type": "address"
        },
        {
          "indexed": false,
          "name": "sponsor",
          "type": "address"
        }
      ],
      "name": "TokenAdded",
      "type": "event"
    },
    {
      "anonymous": false,
      "inputs": [
        {
          "indexed": false,
          "name": "token",
          "type": "address"
        },
        {
          "indexed": false,
          "name": "sponsor",
          "type": "address"
        },
        {
          "indexed": false,
          "name": "requester",
          "type": "address"
        },
        {
          "indexed": false,
          "name": "amount",
          "type": "uint256"
        }
      ],
      "name": "TokenGranted",
      "type": "event"
    },
    {
      "anonymous": false,
      "inputs": [
        {
          "indexed": false,
          "name": "token",
          "type": "address"
        },
        {
          "indexed": false,
          "name": "sponsor",
          "type": "address"
        },
        {
          "indexed": false,
          "name": "provider",
          "type": "address"
        },
        {
          "indexed": false,
          "name": "amount",
          "type": "uint256"
        }
      ],
      "name": "TokenReturned",
      "type": "event"
    }
  ],
  "bytecode": "0x60606040526001600455341561001457600080fd5b604051602080612d8b8339810160405280805190602001909190505080600160006101000a81548173ffffffffffffffffffffffffffffffffffffffff021916908373ffffffffffffffffffffffffffffffffffffffff160217905550600160009054906101000a900473ffffffffffffffffffffffffffffffffffffffff1673ffffffffffffffffffffffffffffffffffffffff1663424c4cb9336000604051602001526040518263ffffffff167c0100000000000000000000000000000000000000000000000000000000028152600401808273ffffffffffffffffffffffffffffffffffffffff1673ffffffffffffffffffffffffffffffffffffffff168152602001915050602060405180830381600087803b151561013657600080fd5b6102c65a03f1151561014757600080fd5b505050604051805190506000806101000a81548173ffffffffffffffffffffffffffffffffffffffff021916908373ffffffffffffffffffffffffffffffffffffffff16021790555050612beb806101a06000396000f300606060405260043610620000d3576000357c0100000000000000000000000000000000000000000000000000000000900463ffffffff16806334fe423714620000d8578063459353971462000107578063481d7ce6146200013357806352a061d714620001715780637d20b0bf14620001ad578063899ce87714620001dc5780638bd3bd6e146200022a5780639755f5be14620003225780639dea97fd146200037d5780639df5336c14620003dd578063addb439b1462000491578063ae77c23714620004fa578063d87333ac146200053f575b600080fd5b3415620000e457600080fd5b620001056004808035906020019091908035906020019091905050620005b2565b005b34156200011357600080fd5b6200011d62000658565b6040518082815260200191505060405180910390f35b34156200013f57600080fd5b62000157600480803590602001909190505062000665565b604051808215151515815260200191505060405180910390f35b34156200017d57600080fd5b620001ab600480803573ffffffffffffffffffffffffffffffffffffffff16906020019091905050620006c2565b005b3415620001b957600080fd5b620001da600480803590602001909190803590602001909190505062000a38565b005b3415620001e857600080fd5b62000228600480803573ffffffffffffffffffffffffffffffffffffffff1690602001909190803590602001909190803590602001909190505062000ad5565b005b34156200023657600080fd5b62000320600480803590602001908201803590602001908080601f0160208091040260200160405190810160405280939291908181526020018383808284378201915050505050509190803590602001909190803590602001908201803590602001908080601f0160208091040260200160405190810160405280939291908181526020018383808284378201915050505050509190803590602001908201803590602001908080601f0160208091040260200160405190810160405280939291908181526020018383808284378201915050505050509190803590602001909190505062000c23565b005b34156200032e57600080fd5b6200037b600480803573ffffffffffffffffffffffffffffffffffffffff1690602001909190803573ffffffffffffffffffffffffffffffffffffffff16906020019091905050620010c3565b005b34156200038957600080fd5b620003db600480803590602001908201803590602001908080601f0160208091040260200160405190810160405280939291908181526020018383808284378201915050505050509190505062001185565b005b3415620003e957600080fd5b62000401600480803590602001909190505062001196565b604051808060200184151515158152602001838152602001828103825285818151815260200191508051906020019080838360005b838110156200045357808201518184015260208101905062000436565b50505050905090810190601f168015620004815780820380516001836020036101000a031916815260200191505b5094505050505060405180910390f35b34156200049d57600080fd5b620004f8600480803590602001908201803590602001908080601f01602080910402602001604051908101604052809392919081815260200183838082843782019150505050505091908035906020019091905050620012a1565b005b34156200050657600080fd5b6200053d600480803590602001909190803573ffffffffffffffffffffffffffffffffffffffff16906020019091905050620012b3565b005b34156200054b57600080fd5b62000598600480803573ffffffffffffffffffffffffffffffffffffffff1690602001909190803573ffffffffffffffffffffffffffffffffffffffff169060200190919050506200159d565b604051808215151515815260200191505060405180910390f35b620005bc620017f5565b828173ffffffffffffffffffffffffffffffffffffffff166002600083815260200190815260200160002060020160019054906101000a900473ffffffffffffffffffffffffffffffffffffffff1673ffffffffffffffffffffffffffffffffffffffff161415156200062e57600080fd5b82600260008681526020019081526020016000206001016000828254019250508190555050505050565b6000600380549050905090565b600080600090505b600380549050811015620006b7576003818154811015156200068b57fe5b906000526020600020900154831415620006a95760019150620006bc565b80806001019150506200066d565b600091505b50919050565b6000600160009054906101000a900473ffffffffffffffffffffffffffffffffffffffff1673ffffffffffffffffffffffffffffffffffffffff1663424c4cb9336000604051602001526040518263ffffffff167c0100000000000000000000000000000000000000000000000000000000028152600401808273ffffffffffffffffffffffffffffffffffffffff1673ffffffffffffffffffffffffffffffffffffffff168152602001915050602060405180830381600087803b15156200078a57600080fd5b6102c65a03f115156200079c57600080fd5b5050506040518051905090508073ffffffffffffffffffffffffffffffffffffffff16634d0a5dbd836040518263ffffffff167c0100000000000000000000000000000000000000000000000000000000028152600401808273ffffffffffffffffffffffffffffffffffffffff1673ffffffffffffffffffffffffffffffffffffffff168152602001915050600060405180830381600087803b15156200084357600080fd5b6102c65a03f115156200085557600080fd5b5050508173ffffffffffffffffffffffffffffffffffffffff1663207c64fb826000604051602001526040518263ffffffff167c0100000000000000000000000000000000000000000000000000000000028152600401808273ffffffffffffffffffffffffffffffffffffffff1673ffffffffffffffffffffffffffffffffffffffff168152602001915050602060405180830381600087803b1515620008fc57600080fd5b6102c65a03f115156200090e57600080fd5b505050604051805190501562000a34578173ffffffffffffffffffffffffffffffffffffffff1663ff9ebec16000604051602001526040518163ffffffff167c0100000000000000000000000000000000000000000000000000000000028152600401602060405180830381600087803b15156200098b57600080fd5b6102c65a03f115156200099d57600080fd5b50505060405180519050600960008373ffffffffffffffffffffffffffffffffffffffff1673ffffffffffffffffffffffffffffffffffffffff16815260200190815260200160002060000160008473ffffffffffffffffffffffffffffffffffffffff1673ffffffffffffffffffffffffffffffffffffffff168152602001908152602001600020600082825401925050819055505b5050565b62000a42620017f5565b828173ffffffffffffffffffffffffffffffffffffffff166002600083815260200190815260200160002060020160019054906101000a900473ffffffffffffffffffffffffffffffffffffffff1673ffffffffffffffffffffffffffffffffffffffff1614151562000ab457600080fd5b82600260008681526020019081526020016000206001018190555050505050565b62000adf620017f5565b828173ffffffffffffffffffffffffffffffffffffffff166002600083815260200190815260200160002060020160019054906101000a900473ffffffffffffffffffffffffffffffffffffffff1673ffffffffffffffffffffffffffffffffffffffff1614151562000b5157600080fd5b826002600086815260200190815260200160002060030160008773ffffffffffffffffffffffffffffffffffffffff1673ffffffffffffffffffffffffffffffffffffffff168152602001908152602001600020819055507f19f8794bc1bdcea6f46293c7f4e5f5d77fb213e5ca17ba7a41e4c2e46524bf60848685604051808481526020018373ffffffffffffffffffffffffffffffffffffffff1673ffffffffffffffffffffffffffffffffffffffff168152602001828152602001935050505060405180910390a15050505050565b600080600160009054906101000a900473ffffffffffffffffffffffffffffffffffffffff1673ffffffffffffffffffffffffffffffffffffffff1663424c4cb9336000604051602001526040518263ffffffff167c0100000000000000000000000000000000000000000000000000000000028152600401808273ffffffffffffffffffffffffffffffffffffffff1673ffffffffffffffffffffffffffffffffffffffff168152602001915050602060405180830381600087803b151562000cec57600080fd5b6102c65a03f1151562000cfe57600080fd5b50505060405180519050915086828787878762000d1a62001ad4565b80806020018773ffffffffffffffffffffffffffffffffffffffff1673ffffffffffffffffffffffffffffffffffffffff168152602001868152602001806020018060200185815260200184810384528a818151815260200191508051906020019080838360005b8381101562000d9f57808201518184015260208101905062000d82565b50505050905090810190601f16801562000dcd5780820380516001836020036101000a031916815260200191505b50848103835287818151815260200191508051906020019080838360005b8381101562000e0857808201518184015260208101905062000deb565b50505050905090810190601f16801562000e365780820380516001836020036101000a031916815260200191505b50848103825286818151815260200191508051906020019080838360005b8381101562000e7157808201518184015260208101905062000e54565b50505050905090810190601f16801562000e9f5780820380516001836020036101000a031916815260200191505b509950505050505050505050604051809103906000f080151562000ec257600080fd5b90506005805480600101828162000eda919062001ae5565b9160005260206000209001600083909190916101000a81548173ffffffffffffffffffffffffffffffffffffffff021916908373ffffffffffffffffffffffffffffffffffffffff16021790555050600660008373ffffffffffffffffffffffffffffffffffffffff1673ffffffffffffffffffffffffffffffffffffffff168152602001908152602001600020805480600101828162000f7c919062001ae5565b9160005260206000209001600083909190916101000a81548173ffffffffffffffffffffffffffffffffffffffff021916908373ffffffffffffffffffffffffffffffffffffffff160217905550506001600860008473ffffffffffffffffffffffffffffffffffffffff1673ffffffffffffffffffffffffffffffffffffffff16815260200190815260200160002060006101000a81548160ff0219169083151502179055507fdffbd9ded1c09446f09377de547142dcce7dc541c8b0b028142b1eba7026b9e78183604051808373ffffffffffffffffffffffffffffffffffffffff1673ffffffffffffffffffffffffffffffffffffffff1681526020018273ffffffffffffffffffffffffffffffffffffffff1673ffffffffffffffffffffffffffffffffffffffff1681526020019250505060405180910390a150505050505050565b3381620010d182826200159d565b1515620010dd57600080fd5b600760008573ffffffffffffffffffffffffffffffffffffffff1673ffffffffffffffffffffffffffffffffffffffff168152602001908152602001600020805480600101828162001130919062001ae5565b9160005260206000209001600085909190916101000a81548173ffffffffffffffffffffffffffffffffffffffff021916908373ffffffffffffffffffffffffffffffffffffffff1602179055505050505050565b6200119381600080620018de565b50565b620011a062001b14565b600080600260008581526020019081526020016000206000016002600086815260200190815260200160002060020160009054906101000a900460ff166002600087815260200190815260200160002060010154828054600181600116156101000203166002900480601f0160208091040260200160405190810160405280929190818152602001828054600181600116156101000203166002900480156200128d5780601f1062001261576101008083540402835291602001916200128d565b820191906000526020600020905b8154815290600101906020018083116200126f57829003601f168201915b505050505092509250925092509193909250565b620012af82600183620018de565b5050565b620012bd620017f5565b816002600085815260200190815260200160002060030160008473ffffffffffffffffffffffffffffffffffffffff1673ffffffffffffffffffffffffffffffffffffffff1681526020019081526020016000205480600960008573ffffffffffffffffffffffffffffffffffffffff1673ffffffffffffffffffffffffffffffffffffffff16815260200190815260200160002060000160008473ffffffffffffffffffffffffffffffffffffffff1673ffffffffffffffffffffffffffffffffffffffff1681526020019081526020016000205410151515620013a157600080fd5b848460006002600084815260200190815260200160002060030160008373ffffffffffffffffffffffffffffffffffffffff1673ffffffffffffffffffffffffffffffffffffffff168152602001908152602001600020541115156200140657600080fd5b6002600088815260200190815260200160002060030160008773ffffffffffffffffffffffffffffffffffffffff1673ffffffffffffffffffffffffffffffffffffffff168152602001908152602001600020546009600062001468620017f5565b73ffffffffffffffffffffffffffffffffffffffff1673ffffffffffffffffffffffffffffffffffffffff16815260200190815260200160002060000160008873ffffffffffffffffffffffffffffffffffffffff1673ffffffffffffffffffffffffffffffffffffffff168152602001908152602001600020600082825403925050819055506002600088815260200190815260200160002060020160009054906101000a900460ff16156200159457600160026000898152602001908152602001600020600101600082825403925050819055507fae594d1b828f4e463eac2fffbccd7445cf3e9820254ea7131246c9b2d8c502f487600260008a815260200190815260200160002060010154604051808381526020018281526020019250505060405180910390a15b50505050505050565b6000806000600160009054906101000a900473ffffffffffffffffffffffffffffffffffffffff1673ffffffffffffffffffffffffffffffffffffffff1663424c4cb9866000604051602001526040518263ffffffff167c0100000000000000000000000000000000000000000000000000000000028152600401808273ffffffffffffffffffffffffffffffffffffffff1673ffffffffffffffffffffffffffffffffffffffff168152602001915050602060405180830381600087803b15156200166857600080fd5b6102c65a03f115156200167a57600080fd5b5050506040518051905091506000600660008473ffffffffffffffffffffffffffffffffffffffff1673ffffffffffffffffffffffffffffffffffffffff168152602001908152602001600020805490501115620017e857600090505b600660008373ffffffffffffffffffffffffffffffffffffffff1673ffffffffffffffffffffffffffffffffffffffff16815260200190815260200160002080549050811015620017e757600660008373ffffffffffffffffffffffffffffffffffffffff1673ffffffffffffffffffffffffffffffffffffffff168152602001908152602001600020818154811015156200176f57fe5b906000526020600020900160009054906101000a900473ffffffffffffffffffffffffffffffffffffffff1673ffffffffffffffffffffffffffffffffffffffff168473ffffffffffffffffffffffffffffffffffffffff161415620017d95760019250620017ed565b8080600101915050620016d7565b5b600092505b505092915050565b6000600160009054906101000a900473ffffffffffffffffffffffffffffffffffffffff1673ffffffffffffffffffffffffffffffffffffffff1663424c4cb9336000604051602001526040518263ffffffff167c0100000000000000000000000000000000000000000000000000000000028152600401808273ffffffffffffffffffffffffffffffffffffffff1673ffffffffffffffffffffffffffffffffffffffff168152602001915050602060405180830381600087803b1515620018bd57600080fd5b6102c65a03f11515620018cf57600080fd5b50505060405180519050905090565b608060405190810160405280848152602001828152602001831515815260200162001908620017f5565b73ffffffffffffffffffffffffffffffffffffffff1681525060026000600460008154600101919050819055815260200190815260200160002060008201518160000190805190602001906200196092919062001b28565b506020820151816001015560408201518160020160006101000a81548160ff02191690831515021790555060608201518160020160016101000a81548173ffffffffffffffffffffffffffffffffffffffff021916908373ffffffffffffffffffffffffffffffffffffffff1602179055509050507f103138416773105a81d442a9454da79296c22b2708e8f430d036f23e805d5d3560045462001a03620017f5565b858585604051808681526020018573ffffffffffffffffffffffffffffffffffffffff1673ffffffffffffffffffffffffffffffffffffffff1681526020018060200184151515158152602001838152602001828103825285818151815260200191508051906020019080838360005b8381101562001a9057808201518184015260208101905062001a73565b50505050905090810190601f16801562001abe5780820380516001836020036101000a031916815260200191505b50965050505050505060405180910390a1505050565b604051610fe88062001bd883390190565b81548183558181151162001b0f5781836000526020600020918201910162001b0e919062001baf565b5b505050565b602060405190810160405280600081525090565b828054600181600116156101000203166002900490600052602060002090601f016020900481019282601f1062001b6b57805160ff191683800117855562001b9c565b8280016001018555821562001b9c579182015b8281111562001b9b57825182559160200191906001019062001b7e565b5b50905062001bab919062001baf565b5090565b62001bd491905b8082111562001bd057600081600090555060010162001bb6565b5090565b905600606060405234156200001057600080fd5b60405162000fe838038062000fe88339810160405280805182019190602001805190602001909190805190602001909190805182019190602001805182019190602001805190602001909190505082828287806000806101000a81548173ffffffffffffffffffffffffffffffffffffffff021916908373ffffffffffffffffffffffffffffffffffffffff160217905550508260019080519060200190620000bb9291906200010b565b508160029080519060200190620000d49291906200010b565b5080600381905550505050836004819055508560059080519060200190620000fe9291906200010b565b50505050505050620001ba565b828054600181600116156101000203166002900490600052602060002090601f016020900481019282601f106200014e57805160ff19168380011785556200017f565b828001600101855582156200017f579182015b828111156200017e57825182559160200191906001019062000161565b5b5090506200018e919062000192565b5090565b620001b791905b80821115620001b357600081600090555060010162000199565b5090565b90565b610e1e80620001ca6000396000f300606060405260043610610099576000357c0100000000000000000000000000000000000000000000000000000000900463ffffffff16806313af40351461009e57806317d7de7c146100d7578063207c64fb146101655780632f54bf6e146101b6578063893d20e81461020757806397128e001461025c578063b67d103f146102ad578063baed3579146102fe578063ff9ebec114610373575b600080fd5b34156100a957600080fd5b6100d5600480803573ffffffffffffffffffffffffffffffffffffffff1690602001909190505061039c565b005b34156100e257600080fd5b6100ea6103f5565b6040518080602001828103825283818151815260200191508051906020019080838360005b8381101561012a57808201518184015260208101905061010f565b50505050905090810190601f1680156101575780820380516001836020036101000a031916815260200191505b509250505060405180910390f35b341561017057600080fd5b61019c600480803573ffffffffffffffffffffffffffffffffffffffff1690602001909190505061049d565b604051808215151515815260200191505060405180910390f35b34156101c157600080fd5b6101ed600480803573ffffffffffffffffffffffffffffffffffffffff1690602001909190505061094b565b604051808215151515815260200191505060405180910390f35b341561021257600080fd5b61021a6109a4565b604051808273ffffffffffffffffffffffffffffffffffffffff1673ffffffffffffffffffffffffffffffffffffffff16815260200191505060405180910390f35b341561026757600080fd5b610293600480803573ffffffffffffffffffffffffffffffffffffffff169060200190919050506109cd565b604051808215151515815260200191505060405180910390f35b34156102b857600080fd5b6102c0610a94565b6040518082600660200280838360005b838110156102eb5780820151818401526020810190506102d0565b5050505090500191505060405180910390f35b341561030957600080fd5b610359600480803590602001908201803590602001908080601f01602080910402602001604051908101604052809392919081815260200183838082843782019150505050505091905050610c3d565b604051808215151515815260200191505060405180910390f35b341561037e57600080fd5b610386610da9565b6040518082815260200191505060405180910390f35b336103a68161094b565b15156103b157600080fd5b816000806101000a81548173ffffffffffffffffffffffffffffffffffffffff021916908373ffffffffffffffffffffffffffffffffffffffff1602179055505050565b6103fd610db3565b60058054600181600116156101000203166002900480601f0160208091040260200160405190810160405280929190818152602001828054600181600116156101000203166002900480156104935780601f1061046857610100808354040283529160200191610493565b820191906000526020600020905b81548152906001019060200180831161047657829003601f168201915b5050505050905090565b6000806000808473ffffffffffffffffffffffffffffffffffffffff1663960384a060016000604051604001526040518263ffffffff167c0100000000000000000000000000000000000000000000000000000000028152600401808060200182810382528381815460018160011615610100020316600290048152602001915080546001816001161561010002031660029004801561057e5780601f106105535761010080835404028352916020019161057e565b820191906000526020600020905b81548152906001019060200180831161056157829003601f168201915b5050925050506040805180830381600087803b151561059c57600080fd5b6102c65a03f115156105ad57600080fd5b505050604051805190602001805190509250925060028060006040516020015260405180828054600181600116156101000203166002900480156106285780601f10610606576101008083540402835291820191610628565b820191906000526020600020905b815481529060010190602001808311610614575b505091505060206040518083038160008661646e5a03f1151561064a57600080fd5b5050604051805190509050600082111561093e57600260006040516020015260405180807f3e3d000000000000000000000000000000000000000000000000000000000000815250600201905060206040518083038160008661646e5a03f115156106b457600080fd5b50506040518051905060001916816000191614156106d9576003548310159350610943565b600260006040516020015260405180807f3c3d000000000000000000000000000000000000000000000000000000000000815250600201905060206040518083038160008661646e5a03f1151561072f57600080fd5b5050604051805190506000191681600019161415610754576003548311159350610943565b600260006040516020015260405180807f3d3d000000000000000000000000000000000000000000000000000000000000815250600201905060206040518083038160008661646e5a03f115156107aa57600080fd5b50506040518051905060001916816000191614156107ce5760035483149350610943565b600260006040516020015260405180807f213d000000000000000000000000000000000000000000000000000000000000815250600201905060206040518083038160008661646e5a03f1151561082457600080fd5b5050604051805190506000191681600019161415610849576003548314159350610943565b600260006040516020015260405180807f3e00000000000000000000000000000000000000000000000000000000000000815250600101905060206040518083038160008661646e5a03f1151561089f57600080fd5b50506040518051905060001916816000191614156108c35760035483119350610943565b600260006040516020015260405180807f3c00000000000000000000000000000000000000000000000000000000000000815250600101905060206040518083038160008661646e5a03f1151561091957600080fd5b505060405180519050600019168160001916141561093d5760035483109350610943565b5b600093505b505050919050565b60008173ffffffffffffffffffffffffffffffffffffffff166000809054906101000a900473ffffffffffffffffffffffffffffffffffffffff1673ffffffffffffffffffffffffffffffffffffffff16149050919050565b60008060009054906101000a900473ffffffffffffffffffffffffffffffffffffffff16905090565b60008173ffffffffffffffffffffffffffffffffffffffff166397128e00306000604051602001526040518263ffffffff167c0100000000000000000000000000000000000000000000000000000000028152600401808273ffffffffffffffffffffffffffffffffffffffff1673ffffffffffffffffffffffffffffffffffffffff168152602001915050602060405180830381600087803b1515610a7257600080fd5b6102c65a03f11515610a8357600080fd5b505050604051805190509050919050565b610a9c610dc7565b610aa4610dc7565b7f3c00000000000000000000000000000000000000000000000000000000000000816000600681101515610ad457fe5b602002019060001916908160001916815250507f3c3d000000000000000000000000000000000000000000000000000000000000816001600681101515610b1757fe5b602002019060001916908160001916815250507f3d3d000000000000000000000000000000000000000000000000000000000000816002600681101515610b5a57fe5b602002019060001916908160001916815250507f3e3d000000000000000000000000000000000000000000000000000000000000816003600681101515610b9d57fe5b602002019060001916908160001916815250507f3e00000000000000000000000000000000000000000000000000000000000000816004600681101515610be057fe5b602002019060001916908160001916815250507f213d000000000000000000000000000000000000000000000000000000000000816005600681101515610c2357fe5b602002019060001916908160001916815250508091505090565b6000610c47610dc7565b6000610c51610a94565b9150600090505b6006811015610d9d576002846000604051602001526040518082805190602001908083835b602083101515610ca25780518252602082019150602081019050602083039250610c7d565b6001836020036101000a03801982511681845116808217855250505050505090500191505060206040518083038160008661646e5a03f11515610ce457600080fd5b505060405180519050600019166002856000604051602001526040518082805190602001908083835b602083101515610d325780518252602082019150602081019050602083039250610d0d565b6001836020036101000a03801982511681845116808217855250505050505090500191505060206040518083038160008661646e5a03f11515610d7457600080fd5b505060405180519050600019161415610d905760019250610da2565b8080600101915050610c58565b600092505b5050919050565b6000600454905090565b602060405190810160405280600081525090565b60c0604051908101604052806006905b6000801916815260200190600190039081610dd757905050905600a165627a7a7230582063cb83abae191e92751675e89e04944b2ea6cf2ef430f119202466466e0c69fb0029a165627a7a72305820ce231eeeb4f604700b21bfbb6022a39b72dda410beeae86d96a1a52a287f8df70029",
  "source": "pragma solidity ^0.4.17;\r\n\r\nimport { Artifact } from './Artifact.sol';\r\nimport { Identity } from './Identity.sol';\r\nimport { IdentityManager } from './IdentityManager.sol';\r\nimport { Token } from './Token.sol';\r\n\r\ncontract ForusVendor {\r\n\r\n    event ArtifactAdded(uint index, address provider, string name, bool limited, uint available);\r\n    event ArtifactAvailabilityChanged(uint index, uint availability);\r\n    event ArtifactBought(address request, address provider, address token);\r\n    event ArtifactPriceChanged(uint index, address token, uint newPrice);\r\n    event TokenAdded(address token, address sponsor);\r\n    event TokenGranted(address token, address sponsor, address requester, uint amount);\r\n    event TokenReturned(address token, address sponsor, address provider, uint amount);\r\n\r\n    // Ownership\r\n    address _owner; \r\n\r\n    // Identity Manager\r\n    IdentityManager private _identities;\r\n\r\n    //Artifact List;\r\n    mapping (uint => Artifact) _list;\r\n    uint[] _knownArtifacts;\r\n    uint _currentIndex = 1;\r\n\r\n    // tokens\r\n    address[] private _tokens;\r\n    mapping (address => address[]) private _sponsorTokens;\r\n    mapping (address => address[]) private _providerTokens;\r\n    mapping (address => bool) private _sponsors;\r\n\r\n    // Users\r\n    mapping (address => Wallet) private _wallets;\r\n\r\n    struct Artifact {\r\n        string name;\r\n        uint available;\r\n        bool limited;\r\n        address provider;\r\n        mapping (address => uint) tokenPrices;\r\n    }\r\n\r\n    struct Wallet {\r\n        mapping (address => uint) balances;\r\n    }\r\n\r\n    modifier requireAcceptedToken(uint artifact, address token) {\r\n        require(_list[artifact].tokenPrices[token] > 0);\r\n        _;\r\n    }\r\n\r\n    modifier requireBalance(address identity, address token, uint amount) {\r\n        require(_wallets[identity].balances[token] >= amount);\r\n        _;\r\n    }\r\n\r\n    modifier requireProvider(address identity, uint artifact) {\r\n        require (_list[artifact].provider == identity);\r\n        _;\r\n    }\r\n\r\n    modifier requireSponsor(address account, address token) {\r\n        require (isSponsor(account, token));\r\n        _;\r\n    }\r\n\r\n    /*** GLOBAL METHODS */\r\n\r\n    function ForusVendor(IdentityManager manager) public {\r\n        _identities = manager;\r\n        _owner = _identities.convertToIdentity(msg.sender);\r\n    }\r\n\r\n    function artifactExists(uint index) public view returns (bool exists) {\r\n        for (uint i = 0; i < _knownArtifacts.length; i++) {\r\n            if (index == _knownArtifacts[i]) {\r\n                return true;\r\n            }\r\n        }\r\n        return false;\r\n    }\r\n\r\n    function getArtifactByIndex(uint index) public view returns (string name, bool limited, uint available) {\r\n        return (_list[index].name, _list[index].limited, _list[index].available);\r\n    }\r\n\r\n    function getArtifactCount() public view returns (uint count) {\r\n        return _knownArtifacts.length;\r\n    }\r\n\r\n    function sender() private returns (address identityAddress) {\r\n        return _identities.convertToIdentity(msg.sender);\r\n    }\r\n\r\n    /*** REQUESTER METHODS */\r\n    function purchase(uint index, address token) public requireBalance(sender(), token, _list[index].tokenPrices[token]) requireAcceptedToken(index, token) {\r\n        _wallets[sender()].balances[token] -= _list[index].tokenPrices[token];\r\n        if (_list[index].limited) {\r\n            _list[index].available -= 1;\r\n            ArtifactAvailabilityChanged(index, _list[index].available);\r\n        } \r\n    }\r\n\r\n    function requestFund(address token) public {\r\n        Identity identity = _identities.convertToIdentity(msg.sender);\r\n        identity.addPermission(token);\r\n        if (Token(token).validate(identity)) {\r\n            _wallets[identity].balances[token] += Token(token).getFundSize();\r\n        }\r\n    }\r\n\r\n    /*** VALIDATOR METHODS */\r\n\r\n\r\n    /*** PROVIDER METHODS */\r\n    function addAvailability(uint index, uint add) public requireProvider(sender(), index) {\r\n        _list[index].available += add;\r\n    }\r\n\r\n    function addArtifact(string name, bool limited, uint available) private {\r\n        _list[++_currentIndex] = (Artifact({name: name, limited: limited, available: available, provider: sender()}));\r\n        ArtifactAdded(_currentIndex, sender(), name, limited, available);\r\n    }\r\n\r\n    function addLimitedArtifact(string name, uint available) public {\r\n        addArtifact(name, true, available);\r\n    }\r\n\r\n    function addUnlimitedArtifact(string name) public {\r\n        addArtifact(name, false, 0);\r\n    }\r\n\r\n    function setAvailability(uint index, uint newAvailable) public requireProvider(sender(), index) {\r\n        _list[index].available = newAvailable;\r\n    }\r\n\r\n    function setArtifactPrice(address token, uint index, uint price) public requireProvider(sender(), index) {\r\n        _list[index].tokenPrices[token] = price;\r\n        ArtifactPriceChanged(index, token, price);\r\n    }\r\n\r\n    /*** SPONSOR METHODS */\r\n    function addProvider(address providerIdentity, Token token) public requireSponsor(msg.sender, token) {\r\n        _providerTokens[providerIdentity].push(token);\r\n    }\r\n\r\n    function addToken(string name, uint fundSize, string validationKey, string validationOperator, uint validationValue) public {\r\n        address identity = _identities.convertToIdentity(msg.sender);\r\n        Token token = new Token(name, identity, fundSize, validationKey, validationOperator, validationValue);\r\n        _tokens.push(token);\r\n        _sponsorTokens[identity].push(token);\r\n        _sponsors[identity] = true;\r\n        TokenAdded(token, identity);\r\n    }\r\n\r\n    function isSponsor(address account, address token) public returns (bool sponsor) {\r\n        address identity = _identities.convertToIdentity(account);\r\n        if (_sponsorTokens[identity].length > 0) {\r\n            for (uint i = 0; i < _sponsorTokens[identity].length; i++) {\r\n                if (token == _sponsorTokens[identity][i]) {\r\n                    return true;\r\n                }\r\n            }\r\n        } \r\n        return false;\r\n    }\r\n\r\n}",
  "sourcePath": "C:\\Users\\Martijn.Doornik\\Projects\\proofs-of-concept\\demo003-platform\\contracts\\ForusVendor.sol",
  "compiler": {
    "name": "solc",
    "version": "0.4.18+commit.9cf6e910.Emscripten.clang"
  },
  "schemaVersion": "1.0.1",
  "updatedAt": "2017-12-15T12:45:36.199Z"
}