{
  "contractName": "ForusVendor",
  "abi": [
    {
      "constant": false,
      "inputs": [
        {
          "name": "index",
          "type": "uint256"
        },
        {
          "name": "add",
          "type": "uint256"
        }
      ],
      "name": "addAvailability",
      "outputs": [],
      "payable": false,
      "stateMutability": "nonpayable",
      "type": "function"
    },
    {
      "constant": true,
      "inputs": [],
      "name": "getArtifactCount",
      "outputs": [
        {
          "name": "count",
          "type": "uint256"
        }
      ],
      "payable": false,
      "stateMutability": "view",
      "type": "function"
    },
    {
      "constant": true,
      "inputs": [
        {
          "name": "index",
          "type": "uint256"
        }
      ],
      "name": "artifactExists",
      "outputs": [
        {
          "name": "exists",
          "type": "bool"
        }
      ],
      "payable": false,
      "stateMutability": "view",
      "type": "function"
    },
    {
      "constant": false,
      "inputs": [
        {
          "name": "token",
          "type": "address"
        }
      ],
      "name": "requestFund",
      "outputs": [],
      "payable": false,
      "stateMutability": "nonpayable",
      "type": "function"
    },
    {
      "constant": true,
      "inputs": [
        {
          "name": "identity",
          "type": "address"
        },
        {
          "name": "token",
          "type": "address"
        }
      ],
      "name": "getBalanceOf",
      "outputs": [
        {
          "name": "balance",
          "type": "uint256"
        }
      ],
      "payable": false,
      "stateMutability": "view",
      "type": "function"
    },
    {
      "constant": false,
      "inputs": [
        {
          "name": "index",
          "type": "uint256"
        },
        {
          "name": "newAvailable",
          "type": "uint256"
        }
      ],
      "name": "setAvailability",
      "outputs": [],
      "payable": false,
      "stateMutability": "nonpayable",
      "type": "function"
    },
    {
      "constant": false,
      "inputs": [
        {
          "name": "token",
          "type": "address"
        },
        {
          "name": "index",
          "type": "uint256"
        },
        {
          "name": "price",
          "type": "uint256"
        }
      ],
      "name": "setArtifactPrice",
      "outputs": [],
      "payable": false,
      "stateMutability": "nonpayable",
      "type": "function"
    },
    {
      "constant": false,
      "inputs": [
        {
          "name": "name",
          "type": "string"
        },
        {
          "name": "fundSize",
          "type": "uint256"
        },
        {
          "name": "validationKey",
          "type": "string"
        },
        {
          "name": "validationOperator",
          "type": "string"
        },
        {
          "name": "validationValue",
          "type": "uint256"
        }
      ],
      "name": "addToken",
      "outputs": [],
      "payable": false,
      "stateMutability": "nonpayable",
      "type": "function"
    },
    {
      "constant": false,
      "inputs": [
        {
          "name": "providerIdentity",
          "type": "address"
        },
        {
          "name": "token",
          "type": "address"
        }
      ],
      "name": "addProvider",
      "outputs": [],
      "payable": false,
      "stateMutability": "nonpayable",
      "type": "function"
    },
    {
      "constant": false,
      "inputs": [
        {
          "name": "name",
          "type": "string"
        }
      ],
      "name": "addUnlimitedArtifact",
      "outputs": [],
      "payable": false,
      "stateMutability": "nonpayable",
      "type": "function"
    },
    {
      "constant": true,
      "inputs": [
        {
          "name": "index",
          "type": "uint256"
        }
      ],
      "name": "getArtifactByIndex",
      "outputs": [
        {
          "name": "name",
          "type": "string"
        },
        {
          "name": "limited",
          "type": "bool"
        },
        {
          "name": "available",
          "type": "uint256"
        }
      ],
      "payable": false,
      "stateMutability": "view",
      "type": "function"
    },
    {
      "constant": false,
      "inputs": [
        {
          "name": "name",
          "type": "string"
        },
        {
          "name": "available",
          "type": "uint256"
        }
      ],
      "name": "addLimitedArtifact",
      "outputs": [],
      "payable": false,
      "stateMutability": "nonpayable",
      "type": "function"
    },
    {
      "constant": false,
      "inputs": [
        {
          "name": "index",
          "type": "uint256"
        },
        {
          "name": "token",
          "type": "address"
        }
      ],
      "name": "purchase",
      "outputs": [],
      "payable": false,
      "stateMutability": "nonpayable",
      "type": "function"
    },
    {
      "constant": false,
      "inputs": [
        {
          "name": "account",
          "type": "address"
        },
        {
          "name": "token",
          "type": "address"
        }
      ],
      "name": "isSponsor",
      "outputs": [
        {
          "name": "sponsor",
          "type": "bool"
        }
      ],
      "payable": false,
      "stateMutability": "nonpayable",
      "type": "function"
    },
    {
      "constant": true,
      "inputs": [
        {
          "name": "token",
          "type": "address"
        }
      ],
      "name": "getBalance",
      "outputs": [
        {
          "name": "balance",
          "type": "uint256"
        }
      ],
      "payable": false,
      "stateMutability": "view",
      "type": "function"
    },
    {
      "inputs": [
        {
          "name": "manager",
          "type": "address"
        }
      ],
      "payable": false,
      "stateMutability": "nonpayable",
      "type": "constructor"
    },
    {
      "anonymous": false,
      "inputs": [
        {
          "indexed": false,
          "name": "index",
          "type": "uint256"
        },
        {
          "indexed": false,
          "name": "provider",
          "type": "address"
        },
        {
          "indexed": false,
          "name": "name",
          "type": "string"
        },
        {
          "indexed": false,
          "name": "limited",
          "type": "bool"
        },
        {
          "indexed": false,
          "name": "available",
          "type": "uint256"
        }
      ],
      "name": "ArtifactAdded",
      "type": "event"
    },
    {
      "anonymous": false,
      "inputs": [
        {
          "indexed": false,
          "name": "index",
          "type": "uint256"
        },
        {
          "indexed": false,
          "name": "availability",
          "type": "uint256"
        }
      ],
      "name": "ArtifactAvailabilityChanged",
      "type": "event"
    },
    {
      "anonymous": false,
      "inputs": [
        {
          "indexed": false,
          "name": "request",
          "type": "address"
        },
        {
          "indexed": false,
          "name": "provider",
          "type": "address"
        },
        {
          "indexed": false,
          "name": "token",
          "type": "address"
        }
      ],
      "name": "ArtifactBought",
      "type": "event"
    },
    {
      "anonymous": false,
      "inputs": [
        {
          "indexed": false,
          "name": "index",
          "type": "uint256"
        },
        {
          "indexed": false,
          "name": "token",
          "type": "address"
        },
        {
          "indexed": false,
          "name": "newPrice",
          "type": "uint256"
        }
      ],
      "name": "ArtifactPriceChanged",
      "type": "event"
    },
    {
      "anonymous": false,
      "inputs": [
        {
          "indexed": false,
          "name": "token",
          "type": "address"
        },
        {
          "indexed": false,
          "name": "sponsor",
          "type": "address"
        }
      ],
      "name": "TokenAdded",
      "type": "event"
    },
    {
      "anonymous": false,
      "inputs": [
        {
          "indexed": false,
          "name": "token",
          "type": "address"
        },
        {
          "indexed": false,
          "name": "sponsor",
          "type": "address"
        },
        {
          "indexed": false,
          "name": "requester",
          "type": "address"
        },
        {
          "indexed": false,
          "name": "amount",
          "type": "uint256"
        }
      ],
      "name": "TokenGranted",
      "type": "event"
    },
    {
      "anonymous": false,
      "inputs": [
        {
          "indexed": false,
          "name": "token",
          "type": "address"
        },
        {
          "indexed": false,
          "name": "sponsor",
          "type": "address"
        },
        {
          "indexed": false,
          "name": "provider",
          "type": "address"
        },
        {
          "indexed": false,
          "name": "amount",
          "type": "uint256"
        }
      ],
      "name": "TokenReturned",
      "type": "event"
    },
    {
      "anonymous": false,
      "inputs": [],
      "name": "Step1",
      "type": "event"
    },
    {
      "anonymous": false,
      "inputs": [
        {
          "indexed": false,
          "name": "identity",
          "type": "address"
        }
      ],
      "name": "Step2",
      "type": "event"
    }
  ],
  "bytecode": "0x60606040526001600455341561001457600080fd5b60405160208061360e8339810160405280805190602001909190505080600160006101000a81548173ffffffffffffffffffffffffffffffffffffffff021916908373ffffffffffffffffffffffffffffffffffffffff160217905550600160009054906101000a900473ffffffffffffffffffffffffffffffffffffffff1673ffffffffffffffffffffffffffffffffffffffff1663424c4cb9336000604051602001526040518263ffffffff167c0100000000000000000000000000000000000000000000000000000000028152600401808273ffffffffffffffffffffffffffffffffffffffff1673ffffffffffffffffffffffffffffffffffffffff168152602001915050602060405180830381600087803b151561013657600080fd5b6102c65a03f1151561014757600080fd5b505050604051805190506000806101000a81548173ffffffffffffffffffffffffffffffffffffffff021916908373ffffffffffffffffffffffffffffffffffffffff1602179055505061346e806101a06000396000f300606060405260043610620000eb576000357c0100000000000000000000000000000000000000000000000000000000900463ffffffff16806334fe423714620000f057806345935397146200011f578063481d7ce6146200014b57806352a061d7146200018957806353290b4414620001c55780637d20b0bf1462000234578063899ce87714620002635780638bd3bd6e14620002b15780639755f5be14620003a95780639dea97fd14620004045780639df5336c1462000464578063addb439b1462000518578063ae77c2371462000581578063d87333ac14620005c6578063f8b2cb4f1462000639575b600080fd5b3415620000fc57600080fd5b6200011d600480803590602001909190803590602001909190505062000689565b005b34156200012b57600080fd5b620001356200072f565b6040518082815260200191505060405180910390f35b34156200015757600080fd5b6200016f60048080359060200190919050506200073c565b604051808215151515815260200191505060405180910390f35b34156200019557600080fd5b620001c3600480803573ffffffffffffffffffffffffffffffffffffffff1690602001909190505062000799565b005b3415620001d157600080fd5b6200021e600480803573ffffffffffffffffffffffffffffffffffffffff1690602001909190803573ffffffffffffffffffffffffffffffffffffffff1690602001909190505062000d81565b6040518082815260200191505060405180910390f35b34156200024057600080fd5b62000261600480803590602001909190803590602001909190505062000e0b565b005b34156200026f57600080fd5b620002af600480803573ffffffffffffffffffffffffffffffffffffffff1690602001909190803590602001909190803590602001909190505062000ea8565b005b3415620002bd57600080fd5b620003a7600480803590602001908201803590602001908080601f0160208091040260200160405190810160405280939291908181526020018383808284378201915050505050509190803590602001909190803590602001908201803590602001908080601f0160208091040260200160405190810160405280939291908181526020018383808284378201915050505050509190803590602001908201803590602001908080601f0160208091040260200160405190810160405280939291908181526020018383808284378201915050505050509190803590602001909190505062000ff6565b005b3415620003b557600080fd5b62000402600480803573ffffffffffffffffffffffffffffffffffffffff1690602001909190803573ffffffffffffffffffffffffffffffffffffffff1690602001909190505062001496565b005b34156200041057600080fd5b62000462600480803590602001908201803590602001908080601f0160208091040260200160405190810160405280939291908181526020018383808284378201915050505050509190505062001558565b005b34156200047057600080fd5b62000488600480803590602001909190505062001569565b604051808060200184151515158152602001838152602001828103825285818151815260200191508051906020019080838360005b83811015620004da578082015181840152602081019050620004bd565b50505050905090810190601f168015620005085780820380516001836020036101000a031916815260200191505b5094505050505060405180910390f35b34156200052457600080fd5b6200057f600480803590602001908201803590602001908080601f0160208091040260200160405190810160405280939291908181526020018383808284378201915050505050509190803590602001909190505062001674565b005b34156200058d57600080fd5b620005c4600480803590602001909190803573ffffffffffffffffffffffffffffffffffffffff1690602001909190505062001686565b005b3415620005d257600080fd5b6200061f600480803573ffffffffffffffffffffffffffffffffffffffff1690602001909190803573ffffffffffffffffffffffffffffffffffffffff1690602001909190505062001970565b604051808215151515815260200191505060405180910390f35b34156200064557600080fd5b62000673600480803573ffffffffffffffffffffffffffffffffffffffff1690602001909190505062001bc8565b6040518082815260200191505060405180910390f35b6200069362001d62565b828173ffffffffffffffffffffffffffffffffffffffff166002600083815260200190815260200160002060020160019054906101000a900473ffffffffffffffffffffffffffffffffffffffff1673ffffffffffffffffffffffffffffffffffffffff161415156200070557600080fd5b82600260008681526020019081526020016000206001016000828254019250508190555050505050565b6000600380549050905090565b600080600090505b6003805490508110156200078e576003818154811015156200076257fe5b90600052602060002090015483141562000780576001915062000793565b808060010191505062000744565b600091505b50919050565b60007f1415a9c230e2ba88d45d04ca108fd8385e09eead6f8043d011a9aa8081203d8360405160405180910390a1600160009054906101000a900473ffffffffffffffffffffffffffffffffffffffff1673ffffffffffffffffffffffffffffffffffffffff1663424c4cb9336000604051602001526040518263ffffffff167c0100000000000000000000000000000000000000000000000000000000028152600401808273ffffffffffffffffffffffffffffffffffffffff1673ffffffffffffffffffffffffffffffffffffffff168152602001915050602060405180830381600087803b15156200088d57600080fd5b6102c65a03f115156200089f57600080fd5b5050506040518051905090507f80bb4d88485bce1fb3c9ede2f2e5e2175ab5b321d19b0ee3290e92029f36f1b181604051808273ffffffffffffffffffffffffffffffffffffffff1673ffffffffffffffffffffffffffffffffffffffff16815260200191505060405180910390a18073ffffffffffffffffffffffffffffffffffffffff16634d0a5dbd836040518263ffffffff167c0100000000000000000000000000000000000000000000000000000000028152600401808273ffffffffffffffffffffffffffffffffffffffff1673ffffffffffffffffffffffffffffffffffffffff168152602001915050600060405180830381600087803b1515620009a957600080fd5b6102c65a03f11515620009bb57600080fd5b5050508173ffffffffffffffffffffffffffffffffffffffff1663207c64fb826000604051602001526040518263ffffffff167c0100000000000000000000000000000000000000000000000000000000028152600401808273ffffffffffffffffffffffffffffffffffffffff1673ffffffffffffffffffffffffffffffffffffffff168152602001915050602060405180830381600087803b151562000a6257600080fd5b6102c65a03f1151562000a7457600080fd5b505050604051805190501562000d7d578173ffffffffffffffffffffffffffffffffffffffff1663ff9ebec16000604051602001526040518163ffffffff167c0100000000000000000000000000000000000000000000000000000000028152600401602060405180830381600087803b151562000af157600080fd5b6102c65a03f1151562000b0357600080fd5b50505060405180519050600960008373ffffffffffffffffffffffffffffffffffffffff1673ffffffffffffffffffffffffffffffffffffffff16815260200190815260200160002060000160008473ffffffffffffffffffffffffffffffffffffffff1673ffffffffffffffffffffffffffffffffffffffff168152602001908152602001600020600082825401925050819055507fad1682ada5537cafa0f1b30dbe94e88bb35b1ab29bb001f8f5ccd3037b6f07fa828373ffffffffffffffffffffffffffffffffffffffff1663893d20e86000604051602001526040518163ffffffff167c0100000000000000000000000000000000000000000000000000000000028152600401602060405180830381600087803b151562000c2857600080fd5b6102c65a03f1151562000c3a57600080fd5b50505060405180519050838573ffffffffffffffffffffffffffffffffffffffff1663ff9ebec16000604051602001526040518163ffffffff167c0100000000000000000000000000000000000000000000000000000000028152600401602060405180830381600087803b151562000cb257600080fd5b6102c65a03f1151562000cc457600080fd5b50505060405180519050604051808573ffffffffffffffffffffffffffffffffffffffff1673ffffffffffffffffffffffffffffffffffffffff1681526020018473ffffffffffffffffffffffffffffffffffffffff1673ffffffffffffffffffffffffffffffffffffffff1681526020018373ffffffffffffffffffffffffffffffffffffffff1673ffffffffffffffffffffffffffffffffffffffff16815260200182815260200194505050505060405180910390a15b5050565b6000600960008473ffffffffffffffffffffffffffffffffffffffff1673ffffffffffffffffffffffffffffffffffffffff16815260200190815260200160002060000160008373ffffffffffffffffffffffffffffffffffffffff1673ffffffffffffffffffffffffffffffffffffffff16815260200190815260200160002054905092915050565b62000e1562001d62565b828173ffffffffffffffffffffffffffffffffffffffff166002600083815260200190815260200160002060020160019054906101000a900473ffffffffffffffffffffffffffffffffffffffff1673ffffffffffffffffffffffffffffffffffffffff1614151562000e8757600080fd5b82600260008681526020019081526020016000206001018190555050505050565b62000eb262001d62565b828173ffffffffffffffffffffffffffffffffffffffff166002600083815260200190815260200160002060020160019054906101000a900473ffffffffffffffffffffffffffffffffffffffff1673ffffffffffffffffffffffffffffffffffffffff1614151562000f2457600080fd5b826002600086815260200190815260200160002060030160008773ffffffffffffffffffffffffffffffffffffffff1673ffffffffffffffffffffffffffffffffffffffff168152602001908152602001600020819055507f19f8794bc1bdcea6f46293c7f4e5f5d77fb213e5ca17ba7a41e4c2e46524bf60848685604051808481526020018373ffffffffffffffffffffffffffffffffffffffff1673ffffffffffffffffffffffffffffffffffffffff168152602001828152602001935050505060405180910390a15050505050565b600080600160009054906101000a900473ffffffffffffffffffffffffffffffffffffffff1673ffffffffffffffffffffffffffffffffffffffff1663424c4cb9336000604051602001526040518263ffffffff167c0100000000000000000000000000000000000000000000000000000000028152600401808273ffffffffffffffffffffffffffffffffffffffff1673ffffffffffffffffffffffffffffffffffffffff168152602001915050602060405180830381600087803b1515620010bf57600080fd5b6102c65a03f11515620010d157600080fd5b505050604051805190509150868287878787620010ed6200206e565b80806020018773ffffffffffffffffffffffffffffffffffffffff1673ffffffffffffffffffffffffffffffffffffffff168152602001868152602001806020018060200185815260200184810384528a818151815260200191508051906020019080838360005b838110156200117257808201518184015260208101905062001155565b50505050905090810190601f168015620011a05780820380516001836020036101000a031916815260200191505b50848103835287818151815260200191508051906020019080838360005b83811015620011db578082015181840152602081019050620011be565b50505050905090810190601f168015620012095780820380516001836020036101000a031916815260200191505b50848103825286818151815260200191508051906020019080838360005b838110156200124457808201518184015260208101905062001227565b50505050905090810190601f168015620012725780820380516001836020036101000a031916815260200191505b509950505050505050505050604051809103906000f08015156200129557600080fd5b905060058054806001018281620012ad91906200207f565b9160005260206000209001600083909190916101000a81548173ffffffffffffffffffffffffffffffffffffffff021916908373ffffffffffffffffffffffffffffffffffffffff16021790555050600660008373ffffffffffffffffffffffffffffffffffffffff1673ffffffffffffffffffffffffffffffffffffffff16815260200190815260200160002080548060010182816200134f91906200207f565b9160005260206000209001600083909190916101000a81548173ffffffffffffffffffffffffffffffffffffffff021916908373ffffffffffffffffffffffffffffffffffffffff160217905550506001600860008473ffffffffffffffffffffffffffffffffffffffff1673ffffffffffffffffffffffffffffffffffffffff16815260200190815260200160002060006101000a81548160ff0219169083151502179055507fdffbd9ded1c09446f09377de547142dcce7dc541c8b0b028142b1eba7026b9e78183604051808373ffffffffffffffffffffffffffffffffffffffff1673ffffffffffffffffffffffffffffffffffffffff1681526020018273ffffffffffffffffffffffffffffffffffffffff1673ffffffffffffffffffffffffffffffffffffffff1681526020019250505060405180910390a150505050505050565b3381620014a4828262001970565b1515620014b057600080fd5b600760008573ffffffffffffffffffffffffffffffffffffffff1673ffffffffffffffffffffffffffffffffffffffff16815260200190815260200160002080548060010182816200150391906200207f565b9160005260206000209001600085909190916101000a81548173ffffffffffffffffffffffffffffffffffffffff021916908373ffffffffffffffffffffffffffffffffffffffff1602179055505050505050565b620015668160008062001e4b565b50565b62001573620020ae565b600080600260008581526020019081526020016000206000016002600086815260200190815260200160002060020160009054906101000a900460ff166002600087815260200190815260200160002060010154828054600181600116156101000203166002900480601f016020809104026020016040519081016040528092919081815260200182805460018160011615610100020316600290048015620016605780601f10620016345761010080835404028352916020019162001660565b820191906000526020600020905b8154815290600101906020018083116200164257829003601f168201915b505050505092509250925092509193909250565b620016828260018362001e4b565b5050565b6200169062001d62565b816002600085815260200190815260200160002060030160008473ffffffffffffffffffffffffffffffffffffffff1673ffffffffffffffffffffffffffffffffffffffff1681526020019081526020016000205480600960008573ffffffffffffffffffffffffffffffffffffffff1673ffffffffffffffffffffffffffffffffffffffff16815260200190815260200160002060000160008473ffffffffffffffffffffffffffffffffffffffff1673ffffffffffffffffffffffffffffffffffffffff16815260200190815260200160002054101515156200177457600080fd5b848460006002600084815260200190815260200160002060030160008373ffffffffffffffffffffffffffffffffffffffff1673ffffffffffffffffffffffffffffffffffffffff16815260200190815260200160002054111515620017d957600080fd5b6002600088815260200190815260200160002060030160008773ffffffffffffffffffffffffffffffffffffffff1673ffffffffffffffffffffffffffffffffffffffff16815260200190815260200160002054600960006200183b62001d62565b73ffffffffffffffffffffffffffffffffffffffff1673ffffffffffffffffffffffffffffffffffffffff16815260200190815260200160002060000160008873ffffffffffffffffffffffffffffffffffffffff1673ffffffffffffffffffffffffffffffffffffffff168152602001908152602001600020600082825403925050819055506002600088815260200190815260200160002060020160009054906101000a900460ff16156200196757600160026000898152602001908152602001600020600101600082825403925050819055507fae594d1b828f4e463eac2fffbccd7445cf3e9820254ea7131246c9b2d8c502f487600260008a815260200190815260200160002060010154604051808381526020018281526020019250505060405180910390a15b50505050505050565b6000806000600160009054906101000a900473ffffffffffffffffffffffffffffffffffffffff1673ffffffffffffffffffffffffffffffffffffffff1663424c4cb9866000604051602001526040518263ffffffff167c0100000000000000000000000000000000000000000000000000000000028152600401808273ffffffffffffffffffffffffffffffffffffffff1673ffffffffffffffffffffffffffffffffffffffff168152602001915050602060405180830381600087803b151562001a3b57600080fd5b6102c65a03f1151562001a4d57600080fd5b5050506040518051905091506000600660008473ffffffffffffffffffffffffffffffffffffffff1673ffffffffffffffffffffffffffffffffffffffff16815260200190815260200160002080549050111562001bbb57600090505b600660008373ffffffffffffffffffffffffffffffffffffffff1673ffffffffffffffffffffffffffffffffffffffff1681526020019081526020016000208054905081101562001bba57600660008373ffffffffffffffffffffffffffffffffffffffff1673ffffffffffffffffffffffffffffffffffffffff1681526020019081526020016000208181548110151562001b4257fe5b906000526020600020900160009054906101000a900473ffffffffffffffffffffffffffffffffffffffff1673ffffffffffffffffffffffffffffffffffffffff168473ffffffffffffffffffffffffffffffffffffffff16141562001bac576001925062001bc0565b808060010191505062001aaa565b5b600092505b505092915050565b600080600160009054906101000a900473ffffffffffffffffffffffffffffffffffffffff1673ffffffffffffffffffffffffffffffffffffffff166325e87d2e336000604051602001526040518263ffffffff167c0100000000000000000000000000000000000000000000000000000000028152600401808273ffffffffffffffffffffffffffffffffffffffff1673ffffffffffffffffffffffffffffffffffffffff168152602001915050602060405180830381600087803b151562001c9157600080fd5b6102c65a03f1151562001ca357600080fd5b50505060405180519050905060008173ffffffffffffffffffffffffffffffffffffffff16141562001cd9576000915062001d5c565b600960008273ffffffffffffffffffffffffffffffffffffffff1673ffffffffffffffffffffffffffffffffffffffff16815260200190815260200160002060000160008473ffffffffffffffffffffffffffffffffffffffff1673ffffffffffffffffffffffffffffffffffffffff1681526020019081526020016000205491505b50919050565b6000600160009054906101000a900473ffffffffffffffffffffffffffffffffffffffff1673ffffffffffffffffffffffffffffffffffffffff1663424c4cb9336000604051602001526040518263ffffffff167c0100000000000000000000000000000000000000000000000000000000028152600401808273ffffffffffffffffffffffffffffffffffffffff1673ffffffffffffffffffffffffffffffffffffffff168152602001915050602060405180830381600087803b151562001e2a57600080fd5b6102c65a03f1151562001e3c57600080fd5b50505060405180519050905090565b608060405190810160405280848152602001828152602001831515815260200162001e7562001d62565b73ffffffffffffffffffffffffffffffffffffffff16815250600260006004600081546001019190508190558152602001908152602001600020600082015181600001908051906020019062001ecd929190620020c2565b506020820151816001015560408201518160020160006101000a81548160ff02191690831515021790555060608201518160020160016101000a81548173ffffffffffffffffffffffffffffffffffffffff021916908373ffffffffffffffffffffffffffffffffffffffff1602179055509050506003805480600101828162001f58919062002149565b91600052602060002090016000600454909190915055507f103138416773105a81d442a9454da79296c22b2708e8f430d036f23e805d5d3560045462001f9d62001d62565b858585604051808681526020018573ffffffffffffffffffffffffffffffffffffffff1673ffffffffffffffffffffffffffffffffffffffff1681526020018060200184151515158152602001838152602001828103825285818151815260200191508051906020019080838360005b838110156200202a5780820151818401526020810190506200200d565b50505050905090810190601f168015620020585780820380516001836020036101000a031916815260200191505b50965050505050505060405180910390a1505050565b6040516112a280620021a183390190565b815481835581811511620020a957818360005260206000209182019101620020a8919062002178565b5b505050565b602060405190810160405280600081525090565b828054600181600116156101000203166002900490600052602060002090601f016020900481019282601f106200210557805160ff191683800117855562002136565b8280016001018555821562002136579182015b828111156200213557825182559160200191906001019062002118565b5b50905062002145919062002178565b5090565b815481835581811511620021735781836000526020600020918201910162002172919062002178565b5b505050565b6200219d91905b80821115620021995760008160009055506001016200217f565b5090565b905600606060405234156200001057600080fd5b604051620012a2380380620012a28339810160405280805182019190602001805190602001909190805190602001909190805182019190602001805182019190602001805190602001909190505082828287806000806101000a81548173ffffffffffffffffffffffffffffffffffffffff021916908373ffffffffffffffffffffffffffffffffffffffff160217905550508260019080519060200190620000bb9291906200010b565b508160029080519060200190620000d49291906200010b565b5080600381905550505050836004819055508560059080519060200190620000fe9291906200010b565b50505050505050620001ba565b828054600181600116156101000203166002900490600052602060002090601f016020900481019282601f106200014e57805160ff19168380011785556200017f565b828001600101855582156200017f579182015b828111156200017e57825182559160200191906001019062000161565b5b5090506200018e919062000192565b5090565b620001b791905b80821115620001b357600081600090555060010162000199565b5090565b90565b6110d880620001ca6000396000f3006060604052600436106100ba576000357c0100000000000000000000000000000000000000000000000000000000900463ffffffff16806313af4035146100bf57806317d7de7c146100f8578063207c64fb146101865780632f54bf6e146101d75780636299aede14610228578063893d20e8146102b657806397128e001461030b578063a55f1c131461035c578063b67d103f146103ea578063baed35791461043b578063d96ca7e7146104b0578063ff9ebec1146104d9575b600080fd5b34156100ca57600080fd5b6100f6600480803573ffffffffffffffffffffffffffffffffffffffff16906020019091905050610502565b005b341561010357600080fd5b61010b61055b565b6040518080602001828103825283818151815260200191508051906020019080838360005b8381101561014b578082015181840152602081019050610130565b50505050905090810190601f1680156101785780820380516001836020036101000a031916815260200191505b509250505060405180910390f35b341561019157600080fd5b6101bd600480803573ffffffffffffffffffffffffffffffffffffffff16906020019091905050610603565b604051808215151515815260200191505060405180910390f35b34156101e257600080fd5b61020e600480803573ffffffffffffffffffffffffffffffffffffffff16906020019091905050610ac3565b604051808215151515815260200191505060405180910390f35b341561023357600080fd5b61023b610b1c565b6040518080602001828103825283818151815260200191508051906020019080838360005b8381101561027b578082015181840152602081019050610260565b50505050905090810190601f1680156102a85780820380516001836020036101000a031916815260200191505b509250505060405180910390f35b34156102c157600080fd5b6102c9610bba565b604051808273ffffffffffffffffffffffffffffffffffffffff1673ffffffffffffffffffffffffffffffffffffffff16815260200191505060405180910390f35b341561031657600080fd5b610342600480803573ffffffffffffffffffffffffffffffffffffffff16906020019091905050610be3565b604051808215151515815260200191505060405180910390f35b341561036757600080fd5b61036f610caa565b6040518080602001828103825283818151815260200191508051906020019080838360005b838110156103af578082015181840152602081019050610394565b50505050905090810190601f1680156103dc5780820380516001836020036101000a031916815260200191505b509250505060405180910390f35b34156103f557600080fd5b6103fd610d48565b6040518082600660200280838360005b8381101561042857808201518184015260208101905061040d565b5050505090500191505060405180910390f35b341561044657600080fd5b610496600480803590602001908201803590602001908080601f01602080910402602001604051908101604052809392919081815260200183838082843782019150505050505091905050610ef1565b604051808215151515815260200191505060405180910390f35b34156104bb57600080fd5b6104c361105d565b6040518082815260200191505060405180910390f35b34156104e457600080fd5b6104ec611063565b6040518082815260200191505060405180910390f35b3361050c81610ac3565b151561051757600080fd5b816000806101000a81548173ffffffffffffffffffffffffffffffffffffffff021916908373ffffffffffffffffffffffffffffffffffffffff1602179055505050565b61056361106d565b60058054600181600116156101000203166002900480601f0160208091040260200160405190810160405280929190818152602001828054600181600116156101000203166002900480156105f95780601f106105ce576101008083540402835291602001916105f9565b820191906000526020600020905b8154815290600101906020018083116105dc57829003601f168201915b5050505050905090565b6000806000808473ffffffffffffffffffffffffffffffffffffffff1663960384a060016000604051604001526040518263ffffffff167c010000000000000000000000000000000000000000000000000000000002815260040180806020018281038252838181546001816001161561010002031660029004815260200191508054600181600116156101000203166002900480156106e45780601f106106b9576101008083540402835291602001916106e4565b820191906000526020600020905b8154815290600101906020018083116106c757829003601f168201915b5050925050506040805180830381600087803b151561070257600080fd5b6102c65a03f1151561071357600080fd5b5050506040518051906020018051905092509250600280600060405160200152604051808280546001816001161561010002031660029004801561078e5780601f1061076c57610100808354040283529182019161078e565b820191906000526020600020905b81548152906001019060200180831161077a575b505091505060206040518083038160008661646e5a03f115156107b057600080fd5b50506040518051905090506000821115610ab657600260006040516020015260405180807f3e3d000000000000000000000000000000000000000000000000000000000000815250600201905060206040518083038160008661646e5a03f1151561081a57600080fd5b5050604051805190506000191681600019161415610842576003548360ff1610159350610abb565b600260006040516020015260405180807f3c3d000000000000000000000000000000000000000000000000000000000000815250600201905060206040518083038160008661646e5a03f1151561089857600080fd5b50506040518051905060001916816000191614156108c0576003548360ff1611159350610abb565b600260006040516020015260405180807f3d3d000000000000000000000000000000000000000000000000000000000000815250600201905060206040518083038160008661646e5a03f1151561091657600080fd5b505060405180519050600019168160001916141561093d576003548360ff16149350610abb565b600260006040516020015260405180807f213d000000000000000000000000000000000000000000000000000000000000815250600201905060206040518083038160008661646e5a03f1151561099357600080fd5b50506040518051905060001916816000191614156109bb576003548360ff1614159350610abb565b600260006040516020015260405180807f3e00000000000000000000000000000000000000000000000000000000000000815250600101905060206040518083038160008661646e5a03f11515610a1157600080fd5b5050604051805190506000191681600019161415610a38576003548360ff16119350610abb565b600260006040516020015260405180807f3c00000000000000000000000000000000000000000000000000000000000000815250600101905060206040518083038160008661646e5a03f11515610a8e57600080fd5b5050604051805190506000191681600019161415610ab5576003548360ff16109350610abb565b5b600093505b505050919050565b60008173ffffffffffffffffffffffffffffffffffffffff166000809054906101000a900473ffffffffffffffffffffffffffffffffffffffff1673ffffffffffffffffffffffffffffffffffffffff16149050919050565b60028054600181600116156101000203166002900480601f016020809104026020016040519081016040528092919081815260200182805460018160011615610100020316600290048015610bb25780601f10610b8757610100808354040283529160200191610bb2565b820191906000526020600020905b815481529060010190602001808311610b9557829003601f168201915b505050505081565b60008060009054906101000a900473ffffffffffffffffffffffffffffffffffffffff16905090565b60008173ffffffffffffffffffffffffffffffffffffffff166397128e00306000604051602001526040518263ffffffff167c0100000000000000000000000000000000000000000000000000000000028152600401808273ffffffffffffffffffffffffffffffffffffffff1673ffffffffffffffffffffffffffffffffffffffff168152602001915050602060405180830381600087803b1515610c8857600080fd5b6102c65a03f11515610c9957600080fd5b505050604051805190509050919050565b60018054600181600116156101000203166002900480601f016020809104026020016040519081016040528092919081815260200182805460018160011615610100020316600290048015610d405780601f10610d1557610100808354040283529160200191610d40565b820191906000526020600020905b815481529060010190602001808311610d2357829003601f168201915b505050505081565b610d50611081565b610d58611081565b7f3c00000000000000000000000000000000000000000000000000000000000000816000600681101515610d8857fe5b602002019060001916908160001916815250507f3c3d000000000000000000000000000000000000000000000000000000000000816001600681101515610dcb57fe5b602002019060001916908160001916815250507f3d3d000000000000000000000000000000000000000000000000000000000000816002600681101515610e0e57fe5b602002019060001916908160001916815250507f3e3d000000000000000000000000000000000000000000000000000000000000816003600681101515610e5157fe5b602002019060001916908160001916815250507f3e00000000000000000000000000000000000000000000000000000000000000816004600681101515610e9457fe5b602002019060001916908160001916815250507f213d000000000000000000000000000000000000000000000000000000000000816005600681101515610ed757fe5b602002019060001916908160001916815250508091505090565b6000610efb611081565b6000610f05610d48565b9150600090505b6006811015611051576002846000604051602001526040518082805190602001908083835b602083101515610f565780518252602082019150602081019050602083039250610f31565b6001836020036101000a03801982511681845116808217855250505050505090500191505060206040518083038160008661646e5a03f11515610f9857600080fd5b505060405180519050600019166002856000604051602001526040518082805190602001908083835b602083101515610fe65780518252602082019150602081019050602083039250610fc1565b6001836020036101000a03801982511681845116808217855250505050505090500191505060206040518083038160008661646e5a03f1151561102857600080fd5b5050604051805190506000191614156110445760019250611056565b8080600101915050610f0c565b600092505b5050919050565b60035481565b6000600454905090565b602060405190810160405280600081525090565b60c0604051908101604052806006905b600080191681526020019060019003908161109157905050905600a165627a7a72305820172e2b1da3c9387e04a62eafaa3f7b3dbcba47668b8a1b22ea8d00d0a029dd240029a165627a7a72305820bfb49c7e2deb7291299253870b03b84a7868c9d5b04dbea227a17d8c4eecd6d20029",
  "source": "pragma solidity ^0.4.17;\r\n\r\nimport { Artifact } from './Artifact.sol';\r\nimport { Identity } from './Identity.sol';\r\nimport { IdentityManager } from './IdentityManager.sol';\r\nimport { Token } from './Token.sol';\r\n\r\ncontract ForusVendor {\r\n\r\n    event ArtifactAdded(uint index, address provider, string name, bool limited, uint available);\r\n    event ArtifactAvailabilityChanged(uint index, uint availability);\r\n    event ArtifactBought(address request, address provider, address token);\r\n    event ArtifactPriceChanged(uint index, address token, uint newPrice);\r\n    event TokenAdded(address token, address sponsor);\r\n    event TokenGranted(address token, address sponsor, address requester, uint amount);\r\n    event TokenReturned(address token, address sponsor, address provider, uint amount);\r\n\r\n    // Ownership\r\n    address _owner; \r\n\r\n    // Identity Manager\r\n    IdentityManager private _identities;\r\n\r\n    //Artifact List;\r\n    mapping (uint => Artifact) _list;\r\n    uint[] _knownArtifacts;\r\n    uint _currentIndex = 1;\r\n\r\n    // tokens\r\n    address[] private _tokens;\r\n    mapping (address => address[]) private _sponsorTokens;\r\n    mapping (address => address[]) private _providerTokens;\r\n    mapping (address => bool) private _sponsors;\r\n\r\n    // Users\r\n    mapping (address => Wallet) private _wallets;\r\n\r\n    struct Artifact {\r\n        string name;\r\n        uint available;\r\n        bool limited;\r\n        address provider;\r\n        mapping (address => uint) tokenPrices;\r\n    }\r\n\r\n    struct Wallet {\r\n        mapping (address => uint) balances;\r\n    }\r\n\r\n    modifier requireAcceptedToken(uint artifact, address token) {\r\n        require(_list[artifact].tokenPrices[token] > 0);\r\n        _;\r\n    }\r\n\r\n    modifier requireBalance(address identity, address token, uint amount) {\r\n        require(_wallets[identity].balances[token] >= amount);\r\n        _;\r\n    }\r\n\r\n    modifier requireProvider(address identity, uint artifact) {\r\n        require (_list[artifact].provider == identity);\r\n        _;\r\n    }\r\n\r\n    modifier requireSponsor(address account, address token) {\r\n        require (isSponsor(account, token));\r\n        _;\r\n    }\r\n\r\n    /*** GLOBAL METHODS */\r\n\r\n    function ForusVendor(IdentityManager manager) public {\r\n        _identities = manager;\r\n        _owner = _identities.convertToIdentity(msg.sender);\r\n    }\r\n\r\n    function artifactExists(uint index) public view returns (bool exists) {\r\n        for (uint i = 0; i < _knownArtifacts.length; i++) {\r\n            if (index == _knownArtifacts[i]) {\r\n                return true;\r\n            }\r\n        }\r\n        return false;\r\n    }\r\n\r\n    function getArtifactByIndex(uint index) public view returns (string name, bool limited, uint available) {\r\n        return (_list[index].name, _list[index].limited, _list[index].available);\r\n    }\r\n\r\n    function getArtifactCount() public view returns (uint count) {\r\n        return _knownArtifacts.length;\r\n    }\r\n\r\n    function sender() private returns (address identityAddress) {\r\n        return _identities.convertToIdentity(msg.sender);\r\n    }\r\n\r\n    /*** REQUESTER METHODS */\r\n    function purchase(uint index, address token) public requireBalance(sender(), token, _list[index].tokenPrices[token]) requireAcceptedToken(index, token) {\r\n        _wallets[sender()].balances[token] -= _list[index].tokenPrices[token];\r\n        if (_list[index].limited) {\r\n            _list[index].available -= 1;\r\n            ArtifactAvailabilityChanged(index, _list[index].available);\r\n        } \r\n    }\r\n\r\n    event Step1();\r\n    event Step2(address identity);\r\n\r\n    function requestFund(address token) public {\r\n        Step1();\r\n        Identity identity = _identities.convertToIdentity(msg.sender);\r\n        Step2(identity);\r\n        identity.addPermission(token);\r\n        if (Token(token).validate(identity)) {\r\n            _wallets[identity].balances[token] += Token(token).getFundSize();\r\n            TokenGranted(token, Token(token).getOwner(), identity, Token(token).getFundSize());\r\n        }\r\n    }\r\n\r\n    /*** VALIDATOR METHODS */\r\n\r\n\r\n    /*** PROVIDER METHODS */\r\n    function addAvailability(uint index, uint add) public requireProvider(sender(), index) {\r\n        _list[index].available += add;\r\n    }\r\n\r\n    function addArtifact(string name, bool limited, uint available) private {\r\n        _list[++_currentIndex] = (Artifact({name: name, limited: limited, available: available, provider: sender()}));\r\n        _knownArtifacts.push(_currentIndex);\r\n        ArtifactAdded(_currentIndex, sender(), name, limited, available);\r\n    }\r\n\r\n    function addLimitedArtifact(string name, uint available) public {\r\n        addArtifact(name, true, available);\r\n    }\r\n\r\n    function addUnlimitedArtifact(string name) public {\r\n        addArtifact(name, false, 0);\r\n    }\r\n\r\n    function getBalance(address token) public view returns (uint balance) {\r\n        address identity = _identities.getIdentityOf(msg.sender);\r\n        if (identity == 0) {\r\n            return 0;\r\n        }\r\n        return _wallets[identity].balances[token];\r\n    }\r\n\r\n    function getBalanceOf(address identity, address token) public view returns (uint balance) {\r\n        return _wallets[identity].balances[token];\r\n    }\r\n\r\n    function setAvailability(uint index, uint newAvailable) public requireProvider(sender(), index) {\r\n        _list[index].available = newAvailable;\r\n    }\r\n\r\n    function setArtifactPrice(address token, uint index, uint price) public requireProvider(sender(), index) {\r\n        _list[index].tokenPrices[token] = price;\r\n        ArtifactPriceChanged(index, token, price);\r\n    }\r\n\r\n    /*** SPONSOR METHODS */\r\n    function addProvider(address providerIdentity, Token token) public requireSponsor(msg.sender, token) {\r\n        _providerTokens[providerIdentity].push(token);\r\n    }\r\n\r\n    function addToken(string name, uint fundSize, string validationKey, string validationOperator, uint validationValue) public {\r\n        address identity = _identities.convertToIdentity(msg.sender);\r\n        Token token = new Token(name, identity, fundSize, validationKey, validationOperator, validationValue);\r\n        _tokens.push(token);\r\n        _sponsorTokens[identity].push(token);\r\n        _sponsors[identity] = true;\r\n        TokenAdded(token, identity);\r\n    }\r\n\r\n    function isSponsor(address account, address token) public returns (bool sponsor) {\r\n        address identity = _identities.convertToIdentity(account);\r\n        if (_sponsorTokens[identity].length > 0) {\r\n            for (uint i = 0; i < _sponsorTokens[identity].length; i++) {\r\n                if (token == _sponsorTokens[identity][i]) {\r\n                    return true;\r\n                }\r\n            }\r\n        } \r\n        return false;\r\n    }\r\n\r\n}",
  "sourcePath": "C:\\Users\\Martijn.Doornik\\Projects\\proofs-of-concept\\demo003-platform\\contracts\\ForusVendor.sol",
  "compiler": {
    "name": "solc",
    "version": "0.4.18+commit.9cf6e910.Emscripten.clang"
  },
  "schemaVersion": "1.0.1",
  "updatedAt": "2017-12-19T17:41:53.007Z"
}