{
  "contractName": "Identity",
  "abi": [
    {
      "constant": false,
      "inputs": [
        {
          "name": "newOwner",
          "type": "address"
        }
      ],
      "name": "recover",
      "outputs": [
        {
          "name": "success",
          "type": "bool"
        }
      ],
      "payable": false,
      "stateMutability": "nonpayable",
      "type": "function"
    },
    {
      "constant": true,
      "inputs": [
        {
          "name": "account",
          "type": "address"
        }
      ],
      "name": "isOwner",
      "outputs": [
        {
          "name": "",
          "type": "bool"
        }
      ],
      "payable": false,
      "stateMutability": "view",
      "type": "function"
    },
    {
      "constant": false,
      "inputs": [
        {
          "name": "caller",
          "type": "address"
        }
      ],
      "name": "addPermission",
      "outputs": [],
      "payable": false,
      "stateMutability": "nonpayable",
      "type": "function"
    },
    {
      "constant": false,
      "inputs": [
        {
          "name": "newMender",
          "type": "address"
        }
      ],
      "name": "addMender",
      "outputs": [],
      "payable": false,
      "stateMutability": "nonpayable",
      "type": "function"
    },
    {
      "constant": true,
      "inputs": [
        {
          "name": "name",
          "type": "string"
        }
      ],
      "name": "getHighestVote",
      "outputs": [
        {
          "name": "",
          "type": "uint256"
        }
      ],
      "payable": false,
      "stateMutability": "view",
      "type": "function"
    },
    {
      "constant": true,
      "inputs": [
        {
          "name": "name",
          "type": "string"
        }
      ],
      "name": "getValue",
      "outputs": [
        {
          "name": "value",
          "type": "uint256"
        },
        {
          "name": "voteCount",
          "type": "uint256"
        }
      ],
      "payable": false,
      "stateMutability": "view",
      "type": "function"
    },
    {
      "constant": true,
      "inputs": [
        {
          "name": "caller",
          "type": "address"
        }
      ],
      "name": "hasPermission",
      "outputs": [
        {
          "name": "has",
          "type": "bool"
        }
      ],
      "payable": false,
      "stateMutability": "view",
      "type": "function"
    },
    {
      "constant": false,
      "inputs": [
        {
          "name": "name",
          "type": "string"
        },
        {
          "name": "value",
          "type": "uint256"
        }
      ],
      "name": "vote",
      "outputs": [],
      "payable": false,
      "stateMutability": "nonpayable",
      "type": "function"
    },
    {
      "constant": false,
      "inputs": [
        {
          "name": "mender",
          "type": "address"
        }
      ],
      "name": "removeMender",
      "outputs": [
        {
          "name": "success",
          "type": "bool"
        }
      ],
      "payable": false,
      "stateMutability": "nonpayable",
      "type": "function"
    },
    {
      "constant": false,
      "inputs": [
        {
          "name": "caller",
          "type": "address"
        }
      ],
      "name": "removePermission",
      "outputs": [],
      "payable": false,
      "stateMutability": "nonpayable",
      "type": "function"
    },
    {
      "inputs": [
        {
          "name": "account",
          "type": "address"
        }
      ],
      "payable": false,
      "stateMutability": "nonpayable",
      "type": "constructor"
    }
  ],
  "bytecode": "0x6060604052341561000f57600080fd5b604051602080610fe18339810160405280805190602001909190505080600160006101000a81548173ffffffffffffffffffffffffffffffffffffffff021916908373ffffffffffffffffffffffffffffffffffffffff16021790555050610f658061007c6000396000f3006060604052600436106100a4576000357c0100000000000000000000000000000000000000000000000000000000900463ffffffff1680630cd865ec146100a95780632f54bf6e146100fa5780634d0a5dbd1461014b5780636851e18b1461018457806379552bea146101bd578063960384a01461022e57806397128e00146102a6578063a6385803146102f7578063db8264801461035d578063e074bb47146103ae575b600080fd5b34156100b457600080fd5b6100e0600480803573ffffffffffffffffffffffffffffffffffffffff169060200190919050506103e7565b604051808215151515815260200191505060405180910390f35b341561010557600080fd5b610131600480803573ffffffffffffffffffffffffffffffffffffffff1690602001909190505061045b565b604051808215151515815260200191505060405180910390f35b341561015657600080fd5b610182600480803573ffffffffffffffffffffffffffffffffffffffff169060200190919050506104b5565b005b341561018f57600080fd5b6101bb600480803573ffffffffffffffffffffffffffffffffffffffff1690602001909190505061052e565b005b34156101c857600080fd5b610218600480803590602001908201803590602001908080601f016020809104026020016040519081016040528093929190818152602001838380828437820191505050505050919050506105bd565b6040518082815260200191505060405180910390f35b341561023957600080fd5b610289600480803590602001908201803590602001908080601f01602080910402602001604051908101604052809392919081815260200183838082843782019150505050505091905050610635565b604051808381526020018281526020019250505060405180910390f35b34156102b157600080fd5b6102dd600480803573ffffffffffffffffffffffffffffffffffffffff16906020019091905050610950565b604051808215151515815260200191505060405180910390f35b341561030257600080fd5b61035b600480803590602001908201803590602001908080601f016020809104026020016040519081016040528093929190818152602001838380828437820191505050505050919080359060200190919050506109b5565b005b341561036857600080fd5b610394600480803573ffffffffffffffffffffffffffffffffffffffff16906020019091905050610c22565b604051808215151515815260200191505060405180910390f35b34156103b957600080fd5b6103e5600480803573ffffffffffffffffffffffffffffffffffffffff16906020019091905050610d2d565b005b60006103f233610d9b565b8061040257506104013361045b565b5b156104515781600160006101000a81548173ffffffffffffffffffffffffffffffffffffffff021916908373ffffffffffffffffffffffffffffffffffffffff16021790555060019050610456565b600090505b919050565b6000600160009054906101000a900473ffffffffffffffffffffffffffffffffffffffff1673ffffffffffffffffffffffffffffffffffffffff168273ffffffffffffffffffffffffffffffffffffffff16149050919050565b6104be3361045b565b806104ce57506104cd33610950565b5b1561052b5760016000808373ffffffffffffffffffffffffffffffffffffffff1673ffffffffffffffffffffffffffffffffffffffff16815260200190815260200160002060006101000a81548160ff0219169083151502179055505b50565b6105373361045b565b151561054257600080fd5b61054b81610d9b565b15151561055757600080fd5b6002805480600101828161056b9190610ec0565b9160005260206000209001600083909190916101000a81548173ffffffffffffffffffffffffffffffffffffffff021916908373ffffffffffffffffffffffffffffffffffffffff1602179055505050565b60006003826040518082805190602001908083835b6020831015156105f757805182526020820191506020810190506020830392506105d2565b6001836020036101000a0380198251168184511680821785525050505050509050019150509081526020016040518091039020600001549050919050565b6000806000610642610eec565b600080600080336000808273ffffffffffffffffffffffffffffffffffffffff1673ffffffffffffffffffffffffffffffffffffffff16815260200190815260200160002060009054906101000a900460ff16806106a557506106a48161045b565b5b15156106b057600080fd5b6106b98a6105bd565b9650866040518059106106c95750595b90808252806020026020018201604052509550600093505b60038a6040518082805190602001908083835b60208310151561071957805182526020820191506020810190506020830392506106f4565b6001836020036101000a0380198251168184511680821785525050505050509050019150509081526020016040518091039020600201805490508410156108de5760038a6040518082805190602001908083835b602083101515610792578051825260208201915060208101905060208303925061076d565b6001836020036101000a0380198251168184511680821785525050505050509050019150509081526020016040518091039020600101600060038c6040518082805190602001908083835b60208310151561080257805182526020820191506020810190506020830392506107dd565b6001836020036101000a03801982511681845116808217855250505050505090500191505090815260200160405180910390206002018681548110151561084557fe5b906000526020600020900160009054906101000a900473ffffffffffffffffffffffffffffffffffffffff1673ffffffffffffffffffffffffffffffffffffffff1673ffffffffffffffffffffffffffffffffffffffff16815260200190815260200160002054945085858151811015156108bc57fe5b90602001906020020180518091906001018152505083806001019450506106e1565b6000925060009150600093505b855184101561093e5782868581518110151561090357fe5b90602001906020020151111561093157839150858481518110151561092457fe5b9060200190602002015192505b83806001019450506108eb565b81839850985050505050505050915091565b60008060008373ffffffffffffffffffffffffffffffffffffffff1673ffffffffffffffffffffffffffffffffffffffff16815260200190815260200160002060009054906101000a900460ff16806109ae57506109ad8261045b565b5b9050919050565b6003826040518082805190602001908083835b6020831015156109ed57805182526020820191506020810190506020830392506109c8565b6001836020036101000a03801982511681845116808217855250505050505090500191505090815260200160405180910390206002018054806001018281610a359190610ec0565b9160005260206000209001600033909190916101000a81548173ffffffffffffffffffffffffffffffffffffffff021916908373ffffffffffffffffffffffffffffffffffffffff16021790555050806003836040518082805190602001908083835b602083101515610abd5780518252602082019150602081019050602083039250610a98565b6001836020036101000a038019825116818451168082178552505050505050905001915050908152602001604051809103902060010160003373ffffffffffffffffffffffffffffffffffffffff1673ffffffffffffffffffffffffffffffffffffffff16815260200190815260200160002081905550806003836040518082805190602001908083835b602083101515610b6d5780518252602082019150602081019050602083039250610b48565b6001836020036101000a0380198251168184511680821785525050505050509050019150509081526020016040518091039020600001541015610c1e57806003836040518082805190602001908083835b602083101515610be35780518252602082019150602081019050602083039250610bbe565b6001836020036101000a0380198251168184511680821785525050505050509050019150509081526020016040518091039020600001819055505b5050565b600080610c2e3361045b565b1515610c3957600080fd5b82610c4381610d9b565b1515610c4e57600080fd5b600091505b600280549050821015610d21578373ffffffffffffffffffffffffffffffffffffffff16600283815481101515610c8657fe5b906000526020600020900160009054906101000a900473ffffffffffffffffffffffffffffffffffffffff1673ffffffffffffffffffffffffffffffffffffffff161415610d1457600282815481101515610cdd57fe5b906000526020600020900160006101000a81549073ffffffffffffffffffffffffffffffffffffffff021916905560019250610d26565b8180600101925050610c53565b600092505b5050919050565b610d363361045b565b1515610d4157600080fd5b60008060008373ffffffffffffffffffffffffffffffffffffffff1673ffffffffffffffffffffffffffffffffffffffff16815260200190815260200160002060006101000a81548160ff02191690831515021790555050565b6000610da5610f00565b6000610daf610e2c565b9150600090505b8151811015610e20578181815181101515610dcd57fe5b9060200190602002015173ffffffffffffffffffffffffffffffffffffffff168473ffffffffffffffffffffffffffffffffffffffff161415610e135760019250610e25565b8080600101915050610db6565b600092505b5050919050565b610e34610f00565b6002805480602002602001604051908101604052809291908181526020018280548015610eb657602002820191906000526020600020905b8160009054906101000a900473ffffffffffffffffffffffffffffffffffffffff1673ffffffffffffffffffffffffffffffffffffffff1681526020019060010190808311610e6c575b5050505050905090565b815481835581811511610ee757818360005260206000209182019101610ee69190610f14565b5b505050565b602060405190810160405280600081525090565b602060405190810160405280600081525090565b610f3691905b80821115610f32576000816000905550600101610f1a565b5090565b905600a165627a7a7230582078aef25e880d87364faed8554683a8669f128c10e9f067f07feff07d6be5ffe40029",
  "source": "pragma solidity ^0.4.17;\r\n\r\ncontract Identity {\r\n\r\n    modifier requiresMender(address mender) {\r\n        require(isMender(mender));\r\n        _;    \r\n    }\r\n\r\n    modifier requiresOwner() {\r\n        require(isOwner(msg.sender));\r\n        _;\r\n    }\r\n\r\n    modifier requiresPermission(address sender) {\r\n        require(_approvedCallers[sender] || isOwner(sender));\r\n        _;\r\n    }\r\n\r\n    mapping (address => bool) private _approvedCallers;\r\n    address _owner;\r\n    address[] private _menders;\r\n    mapping (string => Voting) private _values;\r\n\r\n    struct Voting {\r\n        // Validator/voter => value\r\n        uint highestVote;\r\n        mapping (address => uint) votes;\r\n        address[] validators;\r\n    }\r\n\r\n    function Identity(address account) public {\r\n        _owner = account;\r\n    }\r\n\r\n    function addMender(address newMender) public requiresOwner() {\r\n        require(!isMender(newMender));\r\n        _menders.push(newMender);\r\n    }\r\n\r\n    function addPermission(address caller) public {\r\n        if (isOwner(msg.sender) || hasPermission(msg.sender)) {\r\n            _approvedCallers[caller] = true;\r\n        }\r\n    }\r\n\r\n    function getHighestVote(string name) public view returns (uint) {\r\n        return _values[name].highestVote;\r\n    }\r\n\r\n    function getMenders() private view returns (address[] menders) {\r\n        return _menders;\r\n    }\r\n\r\n    function getValue(string name) public requiresPermission(msg.sender) view returns (uint value, uint voteCount) {\r\n        uint highestVote = getHighestVote(name);\r\n        // value => votes\r\n        uint[] memory counting = new uint[](highestVote);\r\n        // For readabilitiy\r\n        uint currentValue;\r\n        for (uint i = 0; i < _values[name].validators.length; i++) {\r\n            currentValue = _values[name].votes[_values[name].validators[i]];\r\n            counting[currentValue]++;\r\n        }\r\n        uint highestCount = 0;\r\n        uint highestValue = 0;\r\n        for (i = 0; i < counting.length; i++) {\r\n            if (counting[i] > highestCount) {\r\n                highestValue = i;\r\n                highestCount = counting[i];\r\n            }\r\n        }\r\n        return (highestValue, highestCount);\r\n    }   \r\n\r\n    function hasPermission(address caller) public view returns(bool has) {\r\n        return _approvedCallers[caller] || isOwner(caller);\r\n    }\r\n\r\n    function isMender(address mender) private view returns (bool) {\r\n        address[] memory menders = getMenders();\r\n        for (uint i = 0; i < menders.length; i++) {\r\n            if (mender == menders[i]) {\r\n                return true;\r\n            }\r\n        }\r\n        return false;\r\n    }\r\n\r\n    function isOwner(address account) public view returns(bool) {\r\n        return account == _owner;\r\n    }\r\n\r\n    function recover(address newOwner) public returns (bool success) {\r\n        if (isMender(msg.sender) || isOwner(msg.sender)) {\r\n            _owner = newOwner;\r\n            return true;\r\n        }\r\n        return false;\r\n    }\r\n\r\n    function removeMender(address mender) public requiresOwner() requiresMender(mender) returns (bool success) {\r\n        for (uint i = 0; i < _menders.length; i++) {\r\n            if (_menders[i] == mender) {\r\n                delete _menders[i];\r\n                return true;\r\n            }\r\n        }\r\n        return false;\r\n    }\r\n\r\n    function removePermission(address caller) public requiresOwner {\r\n        _approvedCallers[caller] = false;\r\n    }\r\n\r\n    function vote(string name, uint value) public {\r\n        _values[name].validators.push(msg.sender);\r\n        _values[name].votes[msg.sender] = value;\r\n        if (_values[name].highestVote < value) {\r\n            _values[name].highestVote = value;\r\n        }\r\n    }\r\n    \r\n}",
  "sourcePath": "C:\\Users\\Martijn.Doornik\\Projects\\proofs-of-concept\\demo003-platform\\contracts\\Identity.sol",
  "compiler": {
    "name": "solc",
    "version": "0.4.18+commit.9cf6e910.Emscripten.clang"
  },
  "schemaVersion": "1.0.1",
  "updatedAt": "2017-12-15T12:39:59.313Z"
}