{
  "contractName": "IdentityManager",
  "abi": [
    {
      "constant": true,
      "inputs": [
        {
          "name": "account",
          "type": "address"
        }
      ],
      "name": "getIdentityOf",
      "outputs": [
        {
          "name": "identity",
          "type": "address"
        }
      ],
      "payable": false,
      "stateMutability": "view",
      "type": "function"
    },
    {
      "constant": false,
      "inputs": [
        {
          "name": "account",
          "type": "address"
        }
      ],
      "name": "convertAddress",
      "outputs": [
        {
          "name": "identifier",
          "type": "uint256"
        }
      ],
      "payable": false,
      "stateMutability": "nonpayable",
      "type": "function"
    },
    {
      "constant": true,
      "inputs": [
        {
          "name": "account",
          "type": "address"
        }
      ],
      "name": "getIdentifier",
      "outputs": [
        {
          "name": "identifier",
          "type": "uint256"
        }
      ],
      "payable": false,
      "stateMutability": "view",
      "type": "function"
    },
    {
      "constant": false,
      "inputs": [
        {
          "name": "account",
          "type": "address"
        }
      ],
      "name": "convertToIdentity",
      "outputs": [
        {
          "name": "",
          "type": "address"
        }
      ],
      "payable": false,
      "stateMutability": "nonpayable",
      "type": "function"
    },
    {
      "constant": true,
      "inputs": [
        {
          "name": "identifier",
          "type": "uint256"
        }
      ],
      "name": "identityExists",
      "outputs": [
        {
          "name": "exists",
          "type": "bool"
        }
      ],
      "payable": false,
      "stateMutability": "view",
      "type": "function"
    },
    {
      "constant": true,
      "inputs": [
        {
          "name": "account",
          "type": "address"
        }
      ],
      "name": "addressKnown",
      "outputs": [
        {
          "name": "",
          "type": "bool"
        }
      ],
      "payable": false,
      "stateMutability": "view",
      "type": "function"
    },
    {
      "constant": true,
      "inputs": [
        {
          "name": "identifier",
          "type": "uint256"
        },
        {
          "name": "account",
          "type": "address"
        }
      ],
      "name": "equals",
      "outputs": [
        {
          "name": "",
          "type": "bool"
        }
      ],
      "payable": false,
      "stateMutability": "view",
      "type": "function"
    },
    {
      "anonymous": false,
      "inputs": [
        {
          "indexed": false,
          "name": "newIdentity",
          "type": "address"
        }
      ],
      "name": "IdentityCreated",
      "type": "event"
    }
  ],
  "bytecode": "0x60606040526000600255341561001457600080fd5b6116eb806100236000396000f300606060405260043610610083576000357c0100000000000000000000000000000000000000000000000000000000900463ffffffff16806325e87d2e146100885780632748c1c2146101015780632aeb048b1461014e578063424c4cb91461019b5780635b5aed3a14610214578063b5e6d5cb1461024f578063cc48927a146102a0575b600080fd5b341561009357600080fd5b6100bf600480803573ffffffffffffffffffffffffffffffffffffffff169060200190919050506102fa565b604051808273ffffffffffffffffffffffffffffffffffffffff1673ffffffffffffffffffffffffffffffffffffffff16815260200191505060405180910390f35b341561010c57600080fd5b610138600480803573ffffffffffffffffffffffffffffffffffffffff1690602001909190505061038d565b6040518082815260200191505060405180910390f35b341561015957600080fd5b610185600480803573ffffffffffffffffffffffffffffffffffffffff169060200190919050506103f0565b6040518082815260200191505060405180910390f35b34156101a657600080fd5b6101d2600480803573ffffffffffffffffffffffffffffffffffffffff16906020019091905050610439565b604051808273ffffffffffffffffffffffffffffffffffffffff1673ffffffffffffffffffffffffffffffffffffffff16815260200191505060405180910390f35b341561021f57600080fd5b6102356004808035906020019091905050610453565b604051808215151515815260200191505060405180910390f35b341561025a57600080fd5b610286600480803573ffffffffffffffffffffffffffffffffffffffff169060200190919050506104a8565b604051808215151515815260200191505060405180910390f35b34156102ab57600080fd5b6102e0600480803590602001909190803573ffffffffffffffffffffffffffffffffffffffff169060200190919050506104f3565b604051808215151515815260200191505060405180910390f35b600080600160008473ffffffffffffffffffffffffffffffffffffffff1673ffffffffffffffffffffffffffffffffffffffff16815260200190815260200160002054905060008114156103515760009150610387565b60008082815260200190815260200160002060009054906101000a900473ffffffffffffffffffffffffffffffffffffffff1691505b50919050565b6000610398826104a8565b15156103a9576103a782610568565b505b600160008373ffffffffffffffffffffffffffffffffffffffff1673ffffffffffffffffffffffffffffffffffffffff168152602001908152602001600020549050919050565b6000600160008373ffffffffffffffffffffffffffffffffffffffff1673ffffffffffffffffffffffffffffffffffffffff168152602001908152602001600020549050919050565b600061044c6104478361038d565b6106d7565b9050919050565b60008060008084815260200190815260200160002060009054906101000a900473ffffffffffffffffffffffffffffffffffffffff1673ffffffffffffffffffffffffffffffffffffffff1614159050919050565b600080600160008473ffffffffffffffffffffffffffffffffffffffff1673ffffffffffffffffffffffffffffffffffffffff16815260200190815260200160002054119050919050565b60006104fe826104a8565b801561050f575061050e83610453565b5b1561055d57600160008373ffffffffffffffffffffffffffffffffffffffff1673ffffffffffffffffffffffffffffffffffffffff1681526020019081526020016000205483149050610562565b600090505b92915050565b6000806000600260008154600101919050819055915083610587610713565b808273ffffffffffffffffffffffffffffffffffffffff1673ffffffffffffffffffffffffffffffffffffffff168152602001915050604051809103906000f08015156105d357600080fd5b90508060008084815260200190815260200160002060006101000a81548173ffffffffffffffffffffffffffffffffffffffff021916908373ffffffffffffffffffffffffffffffffffffffff16021790555081600160008673ffffffffffffffffffffffffffffffffffffffff1673ffffffffffffffffffffffffffffffffffffffff168152602001908152602001600020819055507fac993fde3b9423ff59e4a23cded8e89074c9c8740920d1d870f586ba7c5c8cf081604051808273ffffffffffffffffffffffffffffffffffffffff1673ffffffffffffffffffffffffffffffffffffffff16815260200191505060405180910390a18092505050919050565b600080600083815260200190815260200160002060009054906101000a900473ffffffffffffffffffffffffffffffffffffffff169050919050565b604051610f9c806107248339019056006060604052341561000f57600080fd5b604051602080610f9c8339810160405280805190602001909190505080600160006101000a81548173ffffffffffffffffffffffffffffffffffffffff021916908373ffffffffffffffffffffffffffffffffffffffff16021790555050610f208061007c6000396000f3006060604052600436106100a4576000357c0100000000000000000000000000000000000000000000000000000000900463ffffffff1680630cd865ec146100a95780632f54bf6e146100fa5780634d0a5dbd1461014b5780636851e18b1461018457806379552bea146101bd57806390ca27f31461022e578063960384a01461029757806397128e0014610315578063db82648014610366578063e074bb47146103b7575b600080fd5b34156100b457600080fd5b6100e0600480803573ffffffffffffffffffffffffffffffffffffffff169060200190919050506103f0565b604051808215151515815260200191505060405180910390f35b341561010557600080fd5b610131600480803573ffffffffffffffffffffffffffffffffffffffff16906020019091905050610464565b604051808215151515815260200191505060405180910390f35b341561015657600080fd5b610182600480803573ffffffffffffffffffffffffffffffffffffffff169060200190919050506104be565b005b341561018f57600080fd5b6101bb600480803573ffffffffffffffffffffffffffffffffffffffff16906020019091905050610537565b005b34156101c857600080fd5b610218600480803590602001908201803590602001908080601f016020809104026020016040519081016040528093929190818152602001838380828437820191505050505050919050506105c6565b6040518082815260200191505060405180910390f35b341561023957600080fd5b610295600480803590602001908201803590602001908080601f0160208091040260200160405190810160405280939291908181526020018383808284378201915050505050509190803560ff1690602001909190505061063e565b005b34156102a257600080fd5b6102f2600480803590602001908201803590602001908080601f016020809104026020016040519081016040528093929190818152602001838380828437820191505050505050919050506108c5565b604051808360ff1660ff1681526020018281526020019250505060405180910390f35b341561032057600080fd5b61034c600480803573ffffffffffffffffffffffffffffffffffffffff16906020019091905050610b60565b604051808215151515815260200191505060405180910390f35b341561037157600080fd5b61039d600480803573ffffffffffffffffffffffffffffffffffffffff16906020019091905050610bc5565b604051808215151515815260200191505060405180910390f35b34156103c257600080fd5b6103ee600480803573ffffffffffffffffffffffffffffffffffffffff16906020019091905050610cd0565b005b60006103fb33610d3e565b8061040b575061040a33610464565b5b1561045a5781600160006101000a81548173ffffffffffffffffffffffffffffffffffffffff021916908373ffffffffffffffffffffffffffffffffffffffff1602179055506001905061045f565b600090505b919050565b6000600160009054906101000a900473ffffffffffffffffffffffffffffffffffffffff1673ffffffffffffffffffffffffffffffffffffffff168273ffffffffffffffffffffffffffffffffffffffff16149050919050565b6104c733610464565b806104d757506104d633610b60565b5b156105345760016000808373ffffffffffffffffffffffffffffffffffffffff1673ffffffffffffffffffffffffffffffffffffffff16815260200190815260200160002060006101000a81548160ff0219169083151502179055505b50565b61054033610464565b151561054b57600080fd5b61055481610d3e565b15151561056057600080fd5b600280548060010182816105749190610e63565b9160005260206000209001600083909190916101000a81548173ffffffffffffffffffffffffffffffffffffffff021916908373ffffffffffffffffffffffffffffffffffffffff1602179055505050565b60006003826040518082805190602001908083835b60208310151561060057805182526020820191506020810190506020830392506105db565b6001836020036101000a0380198251168184511680821785525050505050509050019150509081526020016040518091039020600001549050919050565b6003826040518082805190602001908083835b6020831015156106765780518252602082019150602081019050602083039250610651565b6001836020036101000a038019825116818451168082178552505050505050905001915050908152602001604051809103902060020180548060010182816106be9190610e63565b9160005260206000209001600033909190916101000a81548173ffffffffffffffffffffffffffffffffffffffff021916908373ffffffffffffffffffffffffffffffffffffffff16021790555050806003836040518082805190602001908083835b6020831015156107465780518252602082019150602081019050602083039250610721565b6001836020036101000a038019825116818451168082178552505050505050905001915050908152602001604051809103902060010160003373ffffffffffffffffffffffffffffffffffffffff1673ffffffffffffffffffffffffffffffffffffffff16815260200190815260200160002060006101000a81548160ff021916908360ff1602179055508060ff166003836040518082805190602001908083835b60208310151561080d57805182526020820191506020810190506020830392506107e8565b6001836020036101000a03801982511681845116808217855250505050505090500191505090815260200160405180910390206000015410156108c1578060ff166003836040518082805190602001908083835b6020831015156108865780518252602082019150602081019050602083039250610861565b6001836020036101000a0380198251168184511680821785525050505050509050019150509081526020016040518091039020600001819055505b5050565b6000806108d0610e8f565b60008060008060008094505b6003896040518082805190602001908083835b60208310151561091457805182526020820191506020810190506020830392506108ef565b6001836020036101000a038019825116818451168082178552505050505050905001915050908152602001604051809103902060020180549050851015610aea576003896040518082805190602001908083835b60208310151561098d5780518252602082019150602081019050602083039250610968565b6001836020036101000a0380198251168184511680821785525050505050509050019150509081526020016040518091039020600201858154811015156109d057fe5b906000526020600020900160009054906101000a900473ffffffffffffffffffffffffffffffffffffffff1693508560038a6040518082805190602001908083835b602083101515610a375780518252602082019150602081019050602083039250610a12565b6001836020036101000a038019825116818451168082178552505050505050905001915050908152602001604051809103902060010160008673ffffffffffffffffffffffffffffffffffffffff1673ffffffffffffffffffffffffffffffffffffffff16815260200190815260200160002060009054906101000a900460ff1660ff1660ff81101515610ac757fe5b60200201805180919060010160ff1660ff168152505084806001019550506108dc565b6000925060009150600090505b60ff8160ff161015610b4f5782868260ff1660ff81101515610b1557fe5b602002015160ff161115610b4257809150858160ff1660ff81101515610b3757fe5b602002015160ff1692505b8080600101915050610af7565b818397509750505050505050915091565b60008060008373ffffffffffffffffffffffffffffffffffffffff1673ffffffffffffffffffffffffffffffffffffffff16815260200190815260200160002060009054906101000a900460ff1680610bbe5750610bbd82610464565b5b9050919050565b600080610bd133610464565b1515610bdc57600080fd5b82610be681610d3e565b1515610bf157600080fd5b600091505b600280549050821015610cc4578373ffffffffffffffffffffffffffffffffffffffff16600283815481101515610c2957fe5b906000526020600020900160009054906101000a900473ffffffffffffffffffffffffffffffffffffffff1673ffffffffffffffffffffffffffffffffffffffff161415610cb757600282815481101515610c8057fe5b906000526020600020900160006101000a81549073ffffffffffffffffffffffffffffffffffffffff021916905560019250610cc9565b8180600101925050610bf6565b600092505b5050919050565b610cd933610464565b1515610ce457600080fd5b60008060008373ffffffffffffffffffffffffffffffffffffffff1673ffffffffffffffffffffffffffffffffffffffff16815260200190815260200160002060006101000a81548160ff02191690831515021790555050565b6000610d48610ebb565b6000610d52610dcf565b9150600090505b8151811015610dc3578181815181101515610d7057fe5b9060200190602002015173ffffffffffffffffffffffffffffffffffffffff168473ffffffffffffffffffffffffffffffffffffffff161415610db65760019250610dc8565b8080600101915050610d59565b600092505b5050919050565b610dd7610ebb565b6002805480602002602001604051908101604052809291908181526020018280548015610e5957602002820191906000526020600020905b8160009054906101000a900473ffffffffffffffffffffffffffffffffffffffff1673ffffffffffffffffffffffffffffffffffffffff1681526020019060010190808311610e0f575b5050505050905090565b815481835581811511610e8a57818360005260206000209182019101610e899190610ecf565b5b505050565b611fe06040519081016040528060ff905b600060ff16815260200190600190039081610ea05790505090565b602060405190810160405280600081525090565b610ef191905b80821115610eed576000816000905550600101610ed5565b5090565b905600a165627a7a72305820fc297de244a6bbb70d94c7baacdd38d2919133dabda945517389fa76e183f5380029a165627a7a723058207ad355dd4bfb861e02598166ab4bb8b415da6a01d0d618cdfe808fa8661bd4250029",
  "source": "pragma solidity ^0.4.17;\r\n\r\nimport { Identity } from './Identity.sol'; \r\n\r\n/**\r\n    Contract to map identities to uints\r\n */\r\ncontract IdentityManager {\r\n    // Added for testing purposes\r\n    event IdentityCreated(address newIdentity);\r\n\r\n    // double reference for quick searching\r\n    mapping ( uint => Identity ) _identities;\r\n    mapping ( address => uint ) _index;\r\n    uint _currentIndex = 0;\r\n\r\n    modifier requiresExistanceOf(uint index) {\r\n        require(identityExists(index));\r\n        _;\r\n    }\r\n\r\n    modifier requiresIdentity(Identity instance) {\r\n        // TODO make actual check. Now only checks if address is not null\r\n        require(address(instance) != 0);\r\n        _;   \r\n    }\r\n\r\n    function addressKnown(address account) public view returns (bool) {\r\n        return _index[account] > 0;\r\n    }\r\n\r\n    function convertAddress(address account) public returns (uint identifier) {\r\n        if (!addressKnown(account)) {\r\n            createIdentity(account);\r\n        }\r\n        return _index[account];\r\n    }\r\n\r\n    function convertToIdentity(address account) public returns (Identity) {\r\n        return Identity(getIdentity(convertAddress(account)));\r\n    }\r\n\r\n    function createIdentity(address account) private returns (Identity) {\r\n        uint index = ++_currentIndex;\r\n        Identity identity = new Identity(account);\r\n        _identities[index] = identity; \r\n        _index[account] = index;\r\n        IdentityCreated(identity);\r\n        return identity;\r\n    }\r\n\r\n    function equals(uint identifier, address account) public view returns (bool) {\r\n        if (addressKnown(account) && identityExists(identifier)) {\r\n            return identifier == _index[account];\r\n        }\r\n        return false;\r\n    }\r\n\r\n    function getIdentity(uint identifier) private view returns (address account) {\r\n        return address(_identities[identifier]);\r\n    }\r\n\r\n    function getIdentityOf(address account) public view returns (address identity) {\r\n        uint index = _index[account];\r\n        if (index == 0) {\r\n            return 0;\r\n        }\r\n        return _identities[index];\r\n    }\r\n\r\n    function getIdentifier(address account) public view returns (uint identifier) {\r\n        return _index[account];\r\n    }\r\n\r\n    function identityExists(uint identifier) public view returns (bool exists) {\r\n        return address(_identities[identifier]) != 0;\r\n    }\r\n\r\n}",
  "sourcePath": "C:\\Users\\Martijn.Doornik\\Projects\\proofs-of-concept\\demo003-platform\\contracts\\IdentityManager.sol",
  "compiler": {
    "name": "solc",
    "version": "0.4.18+commit.9cf6e910.Emscripten.clang"
  },
  "schemaVersion": "1.0.1",
  "updatedAt": "2017-12-19T17:41:52.970Z"
}