{
  "contractName": "IdentityManager",
  "abi": [
    {
      "constant": false,
      "inputs": [
        {
          "name": "account",
          "type": "address"
        }
      ],
      "name": "convertAddress",
      "outputs": [
        {
          "name": "identifier",
          "type": "uint256"
        }
      ],
      "payable": false,
      "stateMutability": "nonpayable",
      "type": "function"
    },
    {
      "constant": false,
      "inputs": [
        {
          "name": "account",
          "type": "address"
        }
      ],
      "name": "convertToIdentity",
      "outputs": [
        {
          "name": "",
          "type": "address"
        }
      ],
      "payable": false,
      "stateMutability": "nonpayable",
      "type": "function"
    },
    {
      "constant": true,
      "inputs": [
        {
          "name": "identifier",
          "type": "uint256"
        }
      ],
      "name": "identityExists",
      "outputs": [
        {
          "name": "exists",
          "type": "bool"
        }
      ],
      "payable": false,
      "stateMutability": "view",
      "type": "function"
    },
    {
      "constant": true,
      "inputs": [
        {
          "name": "account",
          "type": "address"
        }
      ],
      "name": "addressKnown",
      "outputs": [
        {
          "name": "",
          "type": "bool"
        }
      ],
      "payable": false,
      "stateMutability": "view",
      "type": "function"
    },
    {
      "constant": true,
      "inputs": [
        {
          "name": "identifier",
          "type": "uint256"
        },
        {
          "name": "account",
          "type": "address"
        }
      ],
      "name": "equals",
      "outputs": [
        {
          "name": "",
          "type": "bool"
        }
      ],
      "payable": false,
      "stateMutability": "view",
      "type": "function"
    },
    {
      "constant": true,
      "inputs": [
        {
          "name": "account",
          "type": "address"
        }
      ],
      "name": "getIdentitifier",
      "outputs": [
        {
          "name": "identifier",
          "type": "uint256"
        }
      ],
      "payable": false,
      "stateMutability": "view",
      "type": "function"
    },
    {
      "anonymous": false,
      "inputs": [
        {
          "indexed": false,
          "name": "newIdentity",
          "type": "address"
        }
      ],
      "name": "IdentityCreated",
      "type": "event"
    }
  ],
  "bytecode": "0x60606040526000600255341561001457600080fd5b611619806100236000396000f300606060405260043610610078576000357c0100000000000000000000000000000000000000000000000000000000900463ffffffff1680632748c1c21461007d578063424c4cb9146100ca5780635b5aed3a14610143578063b5e6d5cb1461017e578063cc48927a146101cf578063f4f641f014610229575b600080fd5b341561008857600080fd5b6100b4600480803573ffffffffffffffffffffffffffffffffffffffff16906020019091905050610276565b6040518082815260200191505060405180910390f35b34156100d557600080fd5b610101600480803573ffffffffffffffffffffffffffffffffffffffff169060200190919050506102d9565b604051808273ffffffffffffffffffffffffffffffffffffffff1673ffffffffffffffffffffffffffffffffffffffff16815260200191505060405180910390f35b341561014e57600080fd5b61016460048080359060200190919050506102f3565b604051808215151515815260200191505060405180910390f35b341561018957600080fd5b6101b5600480803573ffffffffffffffffffffffffffffffffffffffff16906020019091905050610348565b604051808215151515815260200191505060405180910390f35b34156101da57600080fd5b61020f600480803590602001909190803573ffffffffffffffffffffffffffffffffffffffff16906020019091905050610393565b604051808215151515815260200191505060405180910390f35b341561023457600080fd5b610260600480803573ffffffffffffffffffffffffffffffffffffffff16906020019091905050610408565b6040518082815260200191505060405180910390f35b600061028182610348565b15156102925761029082610451565b505b600160008373ffffffffffffffffffffffffffffffffffffffff1673ffffffffffffffffffffffffffffffffffffffff168152602001908152602001600020549050919050565b60006102ec6102e783610276565b6105c0565b9050919050565b60008060008084815260200190815260200160002060009054906101000a900473ffffffffffffffffffffffffffffffffffffffff1673ffffffffffffffffffffffffffffffffffffffff1614159050919050565b600080600160008473ffffffffffffffffffffffffffffffffffffffff1673ffffffffffffffffffffffffffffffffffffffff16815260200190815260200160002054119050919050565b600061039e82610348565b80156103af57506103ae836102f3565b5b156103fd57600160008373ffffffffffffffffffffffffffffffffffffffff1673ffffffffffffffffffffffffffffffffffffffff1681526020019081526020016000205483149050610402565b600090505b92915050565b6000600160008373ffffffffffffffffffffffffffffffffffffffff1673ffffffffffffffffffffffffffffffffffffffff168152602001908152602001600020549050919050565b60008060006002600081546001019190508190559150836104706105fc565b808273ffffffffffffffffffffffffffffffffffffffff1673ffffffffffffffffffffffffffffffffffffffff168152602001915050604051809103906000f08015156104bc57600080fd5b90508060008084815260200190815260200160002060006101000a81548173ffffffffffffffffffffffffffffffffffffffff021916908373ffffffffffffffffffffffffffffffffffffffff16021790555081600160008673ffffffffffffffffffffffffffffffffffffffff1673ffffffffffffffffffffffffffffffffffffffff168152602001908152602001600020819055507fac993fde3b9423ff59e4a23cded8e89074c9c8740920d1d870f586ba7c5c8cf081604051808273ffffffffffffffffffffffffffffffffffffffff1673ffffffffffffffffffffffffffffffffffffffff16815260200191505060405180910390a18092505050919050565b600080600083815260200190815260200160002060009054906101000a900473ffffffffffffffffffffffffffffffffffffffff169050919050565b604051610fe18061060d8339019056006060604052341561000f57600080fd5b604051602080610fe18339810160405280805190602001909190505080600160006101000a81548173ffffffffffffffffffffffffffffffffffffffff021916908373ffffffffffffffffffffffffffffffffffffffff16021790555050610f658061007c6000396000f3006060604052600436106100a4576000357c0100000000000000000000000000000000000000000000000000000000900463ffffffff1680630cd865ec146100a95780632f54bf6e146100fa5780634d0a5dbd1461014b5780636851e18b1461018457806379552bea146101bd578063960384a01461022e57806397128e00146102a6578063a6385803146102f7578063db8264801461035d578063e074bb47146103ae575b600080fd5b34156100b457600080fd5b6100e0600480803573ffffffffffffffffffffffffffffffffffffffff169060200190919050506103e7565b604051808215151515815260200191505060405180910390f35b341561010557600080fd5b610131600480803573ffffffffffffffffffffffffffffffffffffffff1690602001909190505061045b565b604051808215151515815260200191505060405180910390f35b341561015657600080fd5b610182600480803573ffffffffffffffffffffffffffffffffffffffff169060200190919050506104b5565b005b341561018f57600080fd5b6101bb600480803573ffffffffffffffffffffffffffffffffffffffff1690602001909190505061052e565b005b34156101c857600080fd5b610218600480803590602001908201803590602001908080601f016020809104026020016040519081016040528093929190818152602001838380828437820191505050505050919050506105bd565b6040518082815260200191505060405180910390f35b341561023957600080fd5b610289600480803590602001908201803590602001908080601f01602080910402602001604051908101604052809392919081815260200183838082843782019150505050505091905050610635565b604051808381526020018281526020019250505060405180910390f35b34156102b157600080fd5b6102dd600480803573ffffffffffffffffffffffffffffffffffffffff16906020019091905050610950565b604051808215151515815260200191505060405180910390f35b341561030257600080fd5b61035b600480803590602001908201803590602001908080601f016020809104026020016040519081016040528093929190818152602001838380828437820191505050505050919080359060200190919050506109b5565b005b341561036857600080fd5b610394600480803573ffffffffffffffffffffffffffffffffffffffff16906020019091905050610c22565b604051808215151515815260200191505060405180910390f35b34156103b957600080fd5b6103e5600480803573ffffffffffffffffffffffffffffffffffffffff16906020019091905050610d2d565b005b60006103f233610d9b565b8061040257506104013361045b565b5b156104515781600160006101000a81548173ffffffffffffffffffffffffffffffffffffffff021916908373ffffffffffffffffffffffffffffffffffffffff16021790555060019050610456565b600090505b919050565b6000600160009054906101000a900473ffffffffffffffffffffffffffffffffffffffff1673ffffffffffffffffffffffffffffffffffffffff168273ffffffffffffffffffffffffffffffffffffffff16149050919050565b6104be3361045b565b806104ce57506104cd33610950565b5b1561052b5760016000808373ffffffffffffffffffffffffffffffffffffffff1673ffffffffffffffffffffffffffffffffffffffff16815260200190815260200160002060006101000a81548160ff0219169083151502179055505b50565b6105373361045b565b151561054257600080fd5b61054b81610d9b565b15151561055757600080fd5b6002805480600101828161056b9190610ec0565b9160005260206000209001600083909190916101000a81548173ffffffffffffffffffffffffffffffffffffffff021916908373ffffffffffffffffffffffffffffffffffffffff1602179055505050565b60006003826040518082805190602001908083835b6020831015156105f757805182526020820191506020810190506020830392506105d2565b6001836020036101000a0380198251168184511680821785525050505050509050019150509081526020016040518091039020600001549050919050565b6000806000610642610eec565b600080600080336000808273ffffffffffffffffffffffffffffffffffffffff1673ffffffffffffffffffffffffffffffffffffffff16815260200190815260200160002060009054906101000a900460ff16806106a557506106a48161045b565b5b15156106b057600080fd5b6106b98a6105bd565b9650866040518059106106c95750595b90808252806020026020018201604052509550600093505b60038a6040518082805190602001908083835b60208310151561071957805182526020820191506020810190506020830392506106f4565b6001836020036101000a0380198251168184511680821785525050505050509050019150509081526020016040518091039020600201805490508410156108de5760038a6040518082805190602001908083835b602083101515610792578051825260208201915060208101905060208303925061076d565b6001836020036101000a0380198251168184511680821785525050505050509050019150509081526020016040518091039020600101600060038c6040518082805190602001908083835b60208310151561080257805182526020820191506020810190506020830392506107dd565b6001836020036101000a03801982511681845116808217855250505050505090500191505090815260200160405180910390206002018681548110151561084557fe5b906000526020600020900160009054906101000a900473ffffffffffffffffffffffffffffffffffffffff1673ffffffffffffffffffffffffffffffffffffffff1673ffffffffffffffffffffffffffffffffffffffff16815260200190815260200160002054945085858151811015156108bc57fe5b90602001906020020180518091906001018152505083806001019450506106e1565b6000925060009150600093505b855184101561093e5782868581518110151561090357fe5b90602001906020020151111561093157839150858481518110151561092457fe5b9060200190602002015192505b83806001019450506108eb565b81839850985050505050505050915091565b60008060008373ffffffffffffffffffffffffffffffffffffffff1673ffffffffffffffffffffffffffffffffffffffff16815260200190815260200160002060009054906101000a900460ff16806109ae57506109ad8261045b565b5b9050919050565b6003826040518082805190602001908083835b6020831015156109ed57805182526020820191506020810190506020830392506109c8565b6001836020036101000a03801982511681845116808217855250505050505090500191505090815260200160405180910390206002018054806001018281610a359190610ec0565b9160005260206000209001600033909190916101000a81548173ffffffffffffffffffffffffffffffffffffffff021916908373ffffffffffffffffffffffffffffffffffffffff16021790555050806003836040518082805190602001908083835b602083101515610abd5780518252602082019150602081019050602083039250610a98565b6001836020036101000a038019825116818451168082178552505050505050905001915050908152602001604051809103902060010160003373ffffffffffffffffffffffffffffffffffffffff1673ffffffffffffffffffffffffffffffffffffffff16815260200190815260200160002081905550806003836040518082805190602001908083835b602083101515610b6d5780518252602082019150602081019050602083039250610b48565b6001836020036101000a0380198251168184511680821785525050505050509050019150509081526020016040518091039020600001541015610c1e57806003836040518082805190602001908083835b602083101515610be35780518252602082019150602081019050602083039250610bbe565b6001836020036101000a0380198251168184511680821785525050505050509050019150509081526020016040518091039020600001819055505b5050565b600080610c2e3361045b565b1515610c3957600080fd5b82610c4381610d9b565b1515610c4e57600080fd5b600091505b600280549050821015610d21578373ffffffffffffffffffffffffffffffffffffffff16600283815481101515610c8657fe5b906000526020600020900160009054906101000a900473ffffffffffffffffffffffffffffffffffffffff1673ffffffffffffffffffffffffffffffffffffffff161415610d1457600282815481101515610cdd57fe5b906000526020600020900160006101000a81549073ffffffffffffffffffffffffffffffffffffffff021916905560019250610d26565b8180600101925050610c53565b600092505b5050919050565b610d363361045b565b1515610d4157600080fd5b60008060008373ffffffffffffffffffffffffffffffffffffffff1673ffffffffffffffffffffffffffffffffffffffff16815260200190815260200160002060006101000a81548160ff02191690831515021790555050565b6000610da5610f00565b6000610daf610e2c565b9150600090505b8151811015610e20578181815181101515610dcd57fe5b9060200190602002015173ffffffffffffffffffffffffffffffffffffffff168473ffffffffffffffffffffffffffffffffffffffff161415610e135760019250610e25565b8080600101915050610db6565b600092505b5050919050565b610e34610f00565b6002805480602002602001604051908101604052809291908181526020018280548015610eb657602002820191906000526020600020905b8160009054906101000a900473ffffffffffffffffffffffffffffffffffffffff1673ffffffffffffffffffffffffffffffffffffffff1681526020019060010190808311610e6c575b5050505050905090565b815481835581811511610ee757818360005260206000209182019101610ee69190610f14565b5b505050565b602060405190810160405280600081525090565b602060405190810160405280600081525090565b610f3691905b80821115610f32576000816000905550600101610f1a565b5090565b905600a165627a7a7230582078aef25e880d87364faed8554683a8669f128c10e9f067f07feff07d6be5ffe40029a165627a7a723058207d325673a85e7d16af4f0d7e487661c9bf8011d75cb9653e057c16e3f8ecab810029",
  "source": "pragma solidity ^0.4.17;\r\n\r\nimport { Identity } from './Identity.sol'; \r\n\r\n/**\r\n    Contract to map identities to uints\r\n */\r\ncontract IdentityManager {\r\n    // Added for testing purposes\r\n    event IdentityCreated(address newIdentity);\r\n\r\n    // double reference for quick searching\r\n    mapping ( uint => Identity ) _identities;\r\n    mapping ( address => uint ) _index;\r\n    uint _currentIndex = 0;\r\n\r\n    modifier requiresExistanceOf(uint index) {\r\n        require(identityExists(index));\r\n        _;\r\n    }\r\n\r\n    modifier requiresIdentity(Identity instance) {\r\n        // TODO make actual check. Now only checks if address is not null\r\n        require(address(instance) != 0);\r\n        _;   \r\n    }\r\n\r\n    function addressKnown(address account) public view returns (bool) {\r\n        return _index[account] > 0;\r\n    }\r\n\r\n    function convertAddress(address account) public returns (uint identifier) {\r\n        if (!addressKnown(account)) {\r\n            createIdentity(account);\r\n        }\r\n        return _index[account];\r\n    }\r\n\r\n    function convertToIdentity(address account) public returns (Identity) {\r\n        return Identity(getIdentity(convertAddress(account)));\r\n    }\r\n\r\n    function createIdentity(address account) private returns (Identity) {\r\n        uint index = ++_currentIndex;\r\n        Identity identity = new Identity(account);\r\n        _identities[index] = identity; \r\n        _index[account] = index;\r\n        IdentityCreated(identity);\r\n        return identity;\r\n    }\r\n\r\n    function equals(uint identifier, address account) public view returns (bool) {\r\n        if (addressKnown(account) && identityExists(identifier)) {\r\n            return identifier == _index[account];\r\n        }\r\n        return false;\r\n    }\r\n\r\n    function getIdentity(uint identifier) private view returns (address account) {\r\n        return address(_identities[identifier]);\r\n    }\r\n\r\n    function getIdentitifier(address account) public view returns (uint identifier) {\r\n        return _index[account];\r\n    }\r\n\r\n    function identityExists(uint identifier) public view returns (bool exists) {\r\n        return address(_identities[identifier]) != 0;\r\n    }\r\n\r\n}",
  "sourcePath": "C:\\Users\\Martijn.Doornik\\Projects\\proofs-of-concept\\demo003-platform\\contracts\\IdentityManager.sol",
  "compiler": {
    "name": "solc",
    "version": "0.4.18+commit.9cf6e910.Emscripten.clang"
  },
  "schemaVersion": "1.0.1",
  "updatedAt": "2017-12-15T12:45:36.182Z"
}