{
  "contractName": "Owned",
  "abi": [
    {
      "constant": false,
      "inputs": [
        {
          "name": "identity",
          "type": "address"
        }
      ],
      "name": "setOwner",
      "outputs": [],
      "payable": false,
      "stateMutability": "nonpayable",
      "type": "function"
    },
    {
      "constant": true,
      "inputs": [
        {
          "name": "identity",
          "type": "address"
        }
      ],
      "name": "isOwner",
      "outputs": [
        {
          "name": "",
          "type": "bool"
        }
      ],
      "payable": false,
      "stateMutability": "view",
      "type": "function"
    },
    {
      "constant": true,
      "inputs": [],
      "name": "getOwner",
      "outputs": [
        {
          "name": "owner",
          "type": "address"
        }
      ],
      "payable": false,
      "stateMutability": "view",
      "type": "function"
    },
    {
      "inputs": [
        {
          "name": "owner",
          "type": "address"
        }
      ],
      "payable": false,
      "stateMutability": "nonpayable",
      "type": "constructor"
    },
    {
      "anonymous": false,
      "inputs": [
        {
          "indexed": false,
          "name": "newOwner",
          "type": "address"
        }
      ],
      "name": "NewOwner",
      "type": "event"
    }
  ],
  "bytecode": "0x6060604052341561000f57600080fd5b6040516020806102bd83398101604052808051906020019091905050806000806101000a81548173ffffffffffffffffffffffffffffffffffffffff021916908373ffffffffffffffffffffffffffffffffffffffff160217905550506102428061007b6000396000f300606060405260043610610057576000357c0100000000000000000000000000000000000000000000000000000000900463ffffffff16806313af40351461005c5780632f54bf6e14610095578063893d20e8146100e6575b600080fd5b341561006757600080fd5b610093600480803573ffffffffffffffffffffffffffffffffffffffff1690602001909190505061013b565b005b34156100a057600080fd5b6100cc600480803573ffffffffffffffffffffffffffffffffffffffff16906020019091905050610194565b604051808215151515815260200191505060405180910390f35b34156100f157600080fd5b6100f96101ed565b604051808273ffffffffffffffffffffffffffffffffffffffff1673ffffffffffffffffffffffffffffffffffffffff16815260200191505060405180910390f35b3361014581610194565b151561015057600080fd5b816000806101000a81548173ffffffffffffffffffffffffffffffffffffffff021916908373ffffffffffffffffffffffffffffffffffffffff1602179055505050565b60008173ffffffffffffffffffffffffffffffffffffffff166000809054906101000a900473ffffffffffffffffffffffffffffffffffffffff1673ffffffffffffffffffffffffffffffffffffffff16149050919050565b60008060009054906101000a900473ffffffffffffffffffffffffffffffffffffffff169050905600a165627a7a723058203c09b9c3d6926004dfd9477f8cb59e4b101dfad316e657fe2a89fd55336b4e150029",
  "source": "pragma solidity ^0.4.17;\r\n\r\ncontract Owned {\r\n    event NewOwner(address newOwner);\r\n\r\n    address private _owner;\r\n\r\n    modifier requiresOwner(address identity) {\r\n        require(isOwner(identity));\r\n        _;\r\n    }\r\n\r\n    function Owned(address owner) public {\r\n        _owner = owner;\r\n    }\r\n\r\n    function getOwner() public view returns (address owner) {\r\n        return (_owner);\r\n    }\r\n\r\n    function isOwner(address identity) public view returns (bool) {\r\n        return _owner == identity;\r\n    }\r\n\r\n    function setOwner(address identity) public requiresOwner(msg.sender) {\r\n        _owner = identity;\r\n    }\r\n}",
  "sourcePath": "C:\\Users\\Martijn.Doornik\\Projects\\proofs-of-concept\\demo003-platform\\contracts\\Owned.sol",
  "compiler": {
    "name": "solc",
    "version": "0.4.18+commit.9cf6e910.Emscripten.clang"
  },
  "schemaVersion": "1.0.1",
  "updatedAt": "2017-12-19T17:40:56.541Z"
}