{
  "contractName": "Token",
  "abi": [
    {
      "constant": false,
      "inputs": [
        {
          "name": "identity",
          "type": "address"
        }
      ],
      "name": "setOwner",
      "outputs": [],
      "payable": false,
      "stateMutability": "nonpayable",
      "type": "function"
    },
    {
      "constant": true,
      "inputs": [],
      "name": "getName",
      "outputs": [
        {
          "name": "name",
          "type": "string"
        }
      ],
      "payable": false,
      "stateMutability": "view",
      "type": "function"
    },
    {
      "constant": true,
      "inputs": [
        {
          "name": "identity",
          "type": "address"
        }
      ],
      "name": "validate",
      "outputs": [
        {
          "name": "isValid",
          "type": "bool"
        }
      ],
      "payable": false,
      "stateMutability": "view",
      "type": "function"
    },
    {
      "constant": true,
      "inputs": [
        {
          "name": "identity",
          "type": "address"
        }
      ],
      "name": "isOwner",
      "outputs": [
        {
          "name": "",
          "type": "bool"
        }
      ],
      "payable": false,
      "stateMutability": "view",
      "type": "function"
    },
    {
      "constant": true,
      "inputs": [],
      "name": "_validationOperator",
      "outputs": [
        {
          "name": "",
          "type": "string"
        }
      ],
      "payable": false,
      "stateMutability": "view",
      "type": "function"
    },
    {
      "constant": true,
      "inputs": [],
      "name": "getOwner",
      "outputs": [
        {
          "name": "owner",
          "type": "address"
        }
      ],
      "payable": false,
      "stateMutability": "view",
      "type": "function"
    },
    {
      "constant": true,
      "inputs": [
        {
          "name": "identity",
          "type": "address"
        }
      ],
      "name": "hasPermission",
      "outputs": [
        {
          "name": "has",
          "type": "bool"
        }
      ],
      "payable": false,
      "stateMutability": "view",
      "type": "function"
    },
    {
      "constant": true,
      "inputs": [],
      "name": "_validationKey",
      "outputs": [
        {
          "name": "",
          "type": "string"
        }
      ],
      "payable": false,
      "stateMutability": "view",
      "type": "function"
    },
    {
      "constant": true,
      "inputs": [],
      "name": "getValidOperators",
      "outputs": [
        {
          "name": "operators",
          "type": "bytes32[6]"
        }
      ],
      "payable": false,
      "stateMutability": "pure",
      "type": "function"
    },
    {
      "constant": true,
      "inputs": [
        {
          "name": "operator",
          "type": "string"
        }
      ],
      "name": "isValidOperator",
      "outputs": [
        {
          "name": "",
          "type": "bool"
        }
      ],
      "payable": false,
      "stateMutability": "pure",
      "type": "function"
    },
    {
      "constant": true,
      "inputs": [],
      "name": "_validationValue",
      "outputs": [
        {
          "name": "",
          "type": "uint256"
        }
      ],
      "payable": false,
      "stateMutability": "view",
      "type": "function"
    },
    {
      "constant": true,
      "inputs": [],
      "name": "getFundSize",
      "outputs": [
        {
          "name": "fundSize",
          "type": "uint256"
        }
      ],
      "payable": false,
      "stateMutability": "view",
      "type": "function"
    },
    {
      "inputs": [
        {
          "name": "name",
          "type": "string"
        },
        {
          "name": "owner",
          "type": "address"
        },
        {
          "name": "fundSize",
          "type": "uint256"
        },
        {
          "name": "key",
          "type": "string"
        },
        {
          "name": "operator",
          "type": "string"
        },
        {
          "name": "value",
          "type": "uint256"
        }
      ],
      "payable": false,
      "stateMutability": "nonpayable",
      "type": "constructor"
    },
    {
      "anonymous": false,
      "inputs": [
        {
          "indexed": false,
          "name": "newOwner",
          "type": "address"
        }
      ],
      "name": "NewOwner",
      "type": "event"
    }
  ],
  "bytecode": "0x606060405234156200001057600080fd5b604051620012a2380380620012a28339810160405280805182019190602001805190602001909190805190602001909190805182019190602001805182019190602001805190602001909190505082828287806000806101000a81548173ffffffffffffffffffffffffffffffffffffffff021916908373ffffffffffffffffffffffffffffffffffffffff160217905550508260019080519060200190620000bb9291906200010b565b508160029080519060200190620000d49291906200010b565b5080600381905550505050836004819055508560059080519060200190620000fe9291906200010b565b50505050505050620001ba565b828054600181600116156101000203166002900490600052602060002090601f016020900481019282601f106200014e57805160ff19168380011785556200017f565b828001600101855582156200017f579182015b828111156200017e57825182559160200191906001019062000161565b5b5090506200018e919062000192565b5090565b620001b791905b80821115620001b357600081600090555060010162000199565b5090565b90565b6110d880620001ca6000396000f3006060604052600436106100ba576000357c0100000000000000000000000000000000000000000000000000000000900463ffffffff16806313af4035146100bf57806317d7de7c146100f8578063207c64fb146101865780632f54bf6e146101d75780636299aede14610228578063893d20e8146102b657806397128e001461030b578063a55f1c131461035c578063b67d103f146103ea578063baed35791461043b578063d96ca7e7146104b0578063ff9ebec1146104d9575b600080fd5b34156100ca57600080fd5b6100f6600480803573ffffffffffffffffffffffffffffffffffffffff16906020019091905050610502565b005b341561010357600080fd5b61010b61055b565b6040518080602001828103825283818151815260200191508051906020019080838360005b8381101561014b578082015181840152602081019050610130565b50505050905090810190601f1680156101785780820380516001836020036101000a031916815260200191505b509250505060405180910390f35b341561019157600080fd5b6101bd600480803573ffffffffffffffffffffffffffffffffffffffff16906020019091905050610603565b604051808215151515815260200191505060405180910390f35b34156101e257600080fd5b61020e600480803573ffffffffffffffffffffffffffffffffffffffff16906020019091905050610ac3565b604051808215151515815260200191505060405180910390f35b341561023357600080fd5b61023b610b1c565b6040518080602001828103825283818151815260200191508051906020019080838360005b8381101561027b578082015181840152602081019050610260565b50505050905090810190601f1680156102a85780820380516001836020036101000a031916815260200191505b509250505060405180910390f35b34156102c157600080fd5b6102c9610bba565b604051808273ffffffffffffffffffffffffffffffffffffffff1673ffffffffffffffffffffffffffffffffffffffff16815260200191505060405180910390f35b341561031657600080fd5b610342600480803573ffffffffffffffffffffffffffffffffffffffff16906020019091905050610be3565b604051808215151515815260200191505060405180910390f35b341561036757600080fd5b61036f610caa565b6040518080602001828103825283818151815260200191508051906020019080838360005b838110156103af578082015181840152602081019050610394565b50505050905090810190601f1680156103dc5780820380516001836020036101000a031916815260200191505b509250505060405180910390f35b34156103f557600080fd5b6103fd610d48565b6040518082600660200280838360005b8381101561042857808201518184015260208101905061040d565b5050505090500191505060405180910390f35b341561044657600080fd5b610496600480803590602001908201803590602001908080601f01602080910402602001604051908101604052809392919081815260200183838082843782019150505050505091905050610ef1565b604051808215151515815260200191505060405180910390f35b34156104bb57600080fd5b6104c361105d565b6040518082815260200191505060405180910390f35b34156104e457600080fd5b6104ec611063565b6040518082815260200191505060405180910390f35b3361050c81610ac3565b151561051757600080fd5b816000806101000a81548173ffffffffffffffffffffffffffffffffffffffff021916908373ffffffffffffffffffffffffffffffffffffffff1602179055505050565b61056361106d565b60058054600181600116156101000203166002900480601f0160208091040260200160405190810160405280929190818152602001828054600181600116156101000203166002900480156105f95780601f106105ce576101008083540402835291602001916105f9565b820191906000526020600020905b8154815290600101906020018083116105dc57829003601f168201915b5050505050905090565b6000806000808473ffffffffffffffffffffffffffffffffffffffff1663960384a060016000604051604001526040518263ffffffff167c010000000000000000000000000000000000000000000000000000000002815260040180806020018281038252838181546001816001161561010002031660029004815260200191508054600181600116156101000203166002900480156106e45780601f106106b9576101008083540402835291602001916106e4565b820191906000526020600020905b8154815290600101906020018083116106c757829003601f168201915b5050925050506040805180830381600087803b151561070257600080fd5b6102c65a03f1151561071357600080fd5b5050506040518051906020018051905092509250600280600060405160200152604051808280546001816001161561010002031660029004801561078e5780601f1061076c57610100808354040283529182019161078e565b820191906000526020600020905b81548152906001019060200180831161077a575b505091505060206040518083038160008661646e5a03f115156107b057600080fd5b50506040518051905090506000821115610ab657600260006040516020015260405180807f3e3d000000000000000000000000000000000000000000000000000000000000815250600201905060206040518083038160008661646e5a03f1151561081a57600080fd5b5050604051805190506000191681600019161415610842576003548360ff1610159350610abb565b600260006040516020015260405180807f3c3d000000000000000000000000000000000000000000000000000000000000815250600201905060206040518083038160008661646e5a03f1151561089857600080fd5b50506040518051905060001916816000191614156108c0576003548360ff1611159350610abb565b600260006040516020015260405180807f3d3d000000000000000000000000000000000000000000000000000000000000815250600201905060206040518083038160008661646e5a03f1151561091657600080fd5b505060405180519050600019168160001916141561093d576003548360ff16149350610abb565b600260006040516020015260405180807f213d000000000000000000000000000000000000000000000000000000000000815250600201905060206040518083038160008661646e5a03f1151561099357600080fd5b50506040518051905060001916816000191614156109bb576003548360ff1614159350610abb565b600260006040516020015260405180807f3e00000000000000000000000000000000000000000000000000000000000000815250600101905060206040518083038160008661646e5a03f11515610a1157600080fd5b5050604051805190506000191681600019161415610a38576003548360ff16119350610abb565b600260006040516020015260405180807f3c00000000000000000000000000000000000000000000000000000000000000815250600101905060206040518083038160008661646e5a03f11515610a8e57600080fd5b5050604051805190506000191681600019161415610ab5576003548360ff16109350610abb565b5b600093505b505050919050565b60008173ffffffffffffffffffffffffffffffffffffffff166000809054906101000a900473ffffffffffffffffffffffffffffffffffffffff1673ffffffffffffffffffffffffffffffffffffffff16149050919050565b60028054600181600116156101000203166002900480601f016020809104026020016040519081016040528092919081815260200182805460018160011615610100020316600290048015610bb25780601f10610b8757610100808354040283529160200191610bb2565b820191906000526020600020905b815481529060010190602001808311610b9557829003601f168201915b505050505081565b60008060009054906101000a900473ffffffffffffffffffffffffffffffffffffffff16905090565b60008173ffffffffffffffffffffffffffffffffffffffff166397128e00306000604051602001526040518263ffffffff167c0100000000000000000000000000000000000000000000000000000000028152600401808273ffffffffffffffffffffffffffffffffffffffff1673ffffffffffffffffffffffffffffffffffffffff168152602001915050602060405180830381600087803b1515610c8857600080fd5b6102c65a03f11515610c9957600080fd5b505050604051805190509050919050565b60018054600181600116156101000203166002900480601f016020809104026020016040519081016040528092919081815260200182805460018160011615610100020316600290048015610d405780601f10610d1557610100808354040283529160200191610d40565b820191906000526020600020905b815481529060010190602001808311610d2357829003601f168201915b505050505081565b610d50611081565b610d58611081565b7f3c00000000000000000000000000000000000000000000000000000000000000816000600681101515610d8857fe5b602002019060001916908160001916815250507f3c3d000000000000000000000000000000000000000000000000000000000000816001600681101515610dcb57fe5b602002019060001916908160001916815250507f3d3d000000000000000000000000000000000000000000000000000000000000816002600681101515610e0e57fe5b602002019060001916908160001916815250507f3e3d000000000000000000000000000000000000000000000000000000000000816003600681101515610e5157fe5b602002019060001916908160001916815250507f3e00000000000000000000000000000000000000000000000000000000000000816004600681101515610e9457fe5b602002019060001916908160001916815250507f213d000000000000000000000000000000000000000000000000000000000000816005600681101515610ed757fe5b602002019060001916908160001916815250508091505090565b6000610efb611081565b6000610f05610d48565b9150600090505b6006811015611051576002846000604051602001526040518082805190602001908083835b602083101515610f565780518252602082019150602081019050602083039250610f31565b6001836020036101000a03801982511681845116808217855250505050505090500191505060206040518083038160008661646e5a03f11515610f9857600080fd5b505060405180519050600019166002856000604051602001526040518082805190602001908083835b602083101515610fe65780518252602082019150602081019050602083039250610fc1565b6001836020036101000a03801982511681845116808217855250505050505090500191505060206040518083038160008661646e5a03f1151561102857600080fd5b5050604051805190506000191614156110445760019250611056565b8080600101915050610f0c565b600092505b5050919050565b60035481565b6000600454905090565b602060405190810160405280600081525090565b60c0604051908101604052806006905b600080191681526020019060019003908161109157905050905600a165627a7a72305820172e2b1da3c9387e04a62eafaa3f7b3dbcba47668b8a1b22ea8d00d0a029dd240029",
  "source": "pragma solidity ^0.4.17;\r\n\r\nimport { Owned } from './Owned.sol';\r\nimport { Validated } from './Validated.sol';\r\n\r\ncontract Token is Owned, Validated {\r\n\r\n    uint private _fundSize;\r\n    string private _name;\r\n\r\n    function Token(string name, address owner, uint fundSize, string key, string operator, uint value) public Owned(owner) Validated(key, operator, value) {\r\n        _fundSize = fundSize;\r\n        _name = name;\r\n    }\r\n    \r\n    function getFundSize() public view returns (uint fundSize) {\r\n        return _fundSize;\r\n    }\r\n\r\n    function getName() public view returns (string name) {\r\n        return _name;\r\n    }\r\n}",
  "sourcePath": "C:\\Users\\Martijn.Doornik\\Projects\\proofs-of-concept\\demo003-platform\\contracts\\Token.sol",
  "compiler": {
    "name": "solc",
    "version": "0.4.18+commit.9cf6e910.Emscripten.clang"
  },
  "schemaVersion": "1.0.1",
  "updatedAt": "2017-12-19T17:40:56.542Z"
}