{
  "contractName": "Token",
  "abi": [
    {
      "constant": false,
      "inputs": [
        {
          "name": "identity",
          "type": "address"
        }
      ],
      "name": "setOwner",
      "outputs": [],
      "payable": false,
      "stateMutability": "nonpayable",
      "type": "function"
    },
    {
      "constant": true,
      "inputs": [],
      "name": "getName",
      "outputs": [
        {
          "name": "name",
          "type": "string"
        }
      ],
      "payable": false,
      "stateMutability": "view",
      "type": "function"
    },
    {
      "constant": true,
      "inputs": [
        {
          "name": "identity",
          "type": "address"
        }
      ],
      "name": "validate",
      "outputs": [
        {
          "name": "isValid",
          "type": "bool"
        }
      ],
      "payable": false,
      "stateMutability": "view",
      "type": "function"
    },
    {
      "constant": true,
      "inputs": [
        {
          "name": "identity",
          "type": "address"
        }
      ],
      "name": "isOwner",
      "outputs": [
        {
          "name": "",
          "type": "bool"
        }
      ],
      "payable": false,
      "stateMutability": "view",
      "type": "function"
    },
    {
      "constant": true,
      "inputs": [],
      "name": "getOwner",
      "outputs": [
        {
          "name": "owner",
          "type": "address"
        }
      ],
      "payable": false,
      "stateMutability": "view",
      "type": "function"
    },
    {
      "constant": true,
      "inputs": [
        {
          "name": "identity",
          "type": "address"
        }
      ],
      "name": "hasPermission",
      "outputs": [
        {
          "name": "has",
          "type": "bool"
        }
      ],
      "payable": false,
      "stateMutability": "view",
      "type": "function"
    },
    {
      "constant": true,
      "inputs": [],
      "name": "getValidOperators",
      "outputs": [
        {
          "name": "operators",
          "type": "bytes32[6]"
        }
      ],
      "payable": false,
      "stateMutability": "pure",
      "type": "function"
    },
    {
      "constant": true,
      "inputs": [
        {
          "name": "operator",
          "type": "string"
        }
      ],
      "name": "isValidOperator",
      "outputs": [
        {
          "name": "",
          "type": "bool"
        }
      ],
      "payable": false,
      "stateMutability": "pure",
      "type": "function"
    },
    {
      "constant": true,
      "inputs": [],
      "name": "getFundSize",
      "outputs": [
        {
          "name": "fundSize",
          "type": "uint256"
        }
      ],
      "payable": false,
      "stateMutability": "view",
      "type": "function"
    },
    {
      "inputs": [
        {
          "name": "name",
          "type": "string"
        },
        {
          "name": "owner",
          "type": "address"
        },
        {
          "name": "fundSize",
          "type": "uint256"
        },
        {
          "name": "key",
          "type": "string"
        },
        {
          "name": "operator",
          "type": "string"
        },
        {
          "name": "value",
          "type": "uint256"
        }
      ],
      "payable": false,
      "stateMutability": "nonpayable",
      "type": "constructor"
    },
    {
      "anonymous": false,
      "inputs": [
        {
          "indexed": false,
          "name": "newOwner",
          "type": "address"
        }
      ],
      "name": "NewOwner",
      "type": "event"
    }
  ],
  "bytecode": "0x606060405234156200001057600080fd5b60405162000fe838038062000fe88339810160405280805182019190602001805190602001909190805190602001909190805182019190602001805182019190602001805190602001909190505082828287806000806101000a81548173ffffffffffffffffffffffffffffffffffffffff021916908373ffffffffffffffffffffffffffffffffffffffff160217905550508260019080519060200190620000bb9291906200010b565b508160029080519060200190620000d49291906200010b565b5080600381905550505050836004819055508560059080519060200190620000fe9291906200010b565b50505050505050620001ba565b828054600181600116156101000203166002900490600052602060002090601f016020900481019282601f106200014e57805160ff19168380011785556200017f565b828001600101855582156200017f579182015b828111156200017e57825182559160200191906001019062000161565b5b5090506200018e919062000192565b5090565b620001b791905b80821115620001b357600081600090555060010162000199565b5090565b90565b610e1e80620001ca6000396000f300606060405260043610610099576000357c0100000000000000000000000000000000000000000000000000000000900463ffffffff16806313af40351461009e57806317d7de7c146100d7578063207c64fb146101655780632f54bf6e146101b6578063893d20e81461020757806397128e001461025c578063b67d103f146102ad578063baed3579146102fe578063ff9ebec114610373575b600080fd5b34156100a957600080fd5b6100d5600480803573ffffffffffffffffffffffffffffffffffffffff1690602001909190505061039c565b005b34156100e257600080fd5b6100ea6103f5565b6040518080602001828103825283818151815260200191508051906020019080838360005b8381101561012a57808201518184015260208101905061010f565b50505050905090810190601f1680156101575780820380516001836020036101000a031916815260200191505b509250505060405180910390f35b341561017057600080fd5b61019c600480803573ffffffffffffffffffffffffffffffffffffffff1690602001909190505061049d565b604051808215151515815260200191505060405180910390f35b34156101c157600080fd5b6101ed600480803573ffffffffffffffffffffffffffffffffffffffff1690602001909190505061094b565b604051808215151515815260200191505060405180910390f35b341561021257600080fd5b61021a6109a4565b604051808273ffffffffffffffffffffffffffffffffffffffff1673ffffffffffffffffffffffffffffffffffffffff16815260200191505060405180910390f35b341561026757600080fd5b610293600480803573ffffffffffffffffffffffffffffffffffffffff169060200190919050506109cd565b604051808215151515815260200191505060405180910390f35b34156102b857600080fd5b6102c0610a94565b6040518082600660200280838360005b838110156102eb5780820151818401526020810190506102d0565b5050505090500191505060405180910390f35b341561030957600080fd5b610359600480803590602001908201803590602001908080601f01602080910402602001604051908101604052809392919081815260200183838082843782019150505050505091905050610c3d565b604051808215151515815260200191505060405180910390f35b341561037e57600080fd5b610386610da9565b6040518082815260200191505060405180910390f35b336103a68161094b565b15156103b157600080fd5b816000806101000a81548173ffffffffffffffffffffffffffffffffffffffff021916908373ffffffffffffffffffffffffffffffffffffffff1602179055505050565b6103fd610db3565b60058054600181600116156101000203166002900480601f0160208091040260200160405190810160405280929190818152602001828054600181600116156101000203166002900480156104935780601f1061046857610100808354040283529160200191610493565b820191906000526020600020905b81548152906001019060200180831161047657829003601f168201915b5050505050905090565b6000806000808473ffffffffffffffffffffffffffffffffffffffff1663960384a060016000604051604001526040518263ffffffff167c0100000000000000000000000000000000000000000000000000000000028152600401808060200182810382528381815460018160011615610100020316600290048152602001915080546001816001161561010002031660029004801561057e5780601f106105535761010080835404028352916020019161057e565b820191906000526020600020905b81548152906001019060200180831161056157829003601f168201915b5050925050506040805180830381600087803b151561059c57600080fd5b6102c65a03f115156105ad57600080fd5b505050604051805190602001805190509250925060028060006040516020015260405180828054600181600116156101000203166002900480156106285780601f10610606576101008083540402835291820191610628565b820191906000526020600020905b815481529060010190602001808311610614575b505091505060206040518083038160008661646e5a03f1151561064a57600080fd5b5050604051805190509050600082111561093e57600260006040516020015260405180807f3e3d000000000000000000000000000000000000000000000000000000000000815250600201905060206040518083038160008661646e5a03f115156106b457600080fd5b50506040518051905060001916816000191614156106d9576003548310159350610943565b600260006040516020015260405180807f3c3d000000000000000000000000000000000000000000000000000000000000815250600201905060206040518083038160008661646e5a03f1151561072f57600080fd5b5050604051805190506000191681600019161415610754576003548311159350610943565b600260006040516020015260405180807f3d3d000000000000000000000000000000000000000000000000000000000000815250600201905060206040518083038160008661646e5a03f115156107aa57600080fd5b50506040518051905060001916816000191614156107ce5760035483149350610943565b600260006040516020015260405180807f213d000000000000000000000000000000000000000000000000000000000000815250600201905060206040518083038160008661646e5a03f1151561082457600080fd5b5050604051805190506000191681600019161415610849576003548314159350610943565b600260006040516020015260405180807f3e00000000000000000000000000000000000000000000000000000000000000815250600101905060206040518083038160008661646e5a03f1151561089f57600080fd5b50506040518051905060001916816000191614156108c35760035483119350610943565b600260006040516020015260405180807f3c00000000000000000000000000000000000000000000000000000000000000815250600101905060206040518083038160008661646e5a03f1151561091957600080fd5b505060405180519050600019168160001916141561093d5760035483109350610943565b5b600093505b505050919050565b60008173ffffffffffffffffffffffffffffffffffffffff166000809054906101000a900473ffffffffffffffffffffffffffffffffffffffff1673ffffffffffffffffffffffffffffffffffffffff16149050919050565b60008060009054906101000a900473ffffffffffffffffffffffffffffffffffffffff16905090565b60008173ffffffffffffffffffffffffffffffffffffffff166397128e00306000604051602001526040518263ffffffff167c0100000000000000000000000000000000000000000000000000000000028152600401808273ffffffffffffffffffffffffffffffffffffffff1673ffffffffffffffffffffffffffffffffffffffff168152602001915050602060405180830381600087803b1515610a7257600080fd5b6102c65a03f11515610a8357600080fd5b505050604051805190509050919050565b610a9c610dc7565b610aa4610dc7565b7f3c00000000000000000000000000000000000000000000000000000000000000816000600681101515610ad457fe5b602002019060001916908160001916815250507f3c3d000000000000000000000000000000000000000000000000000000000000816001600681101515610b1757fe5b602002019060001916908160001916815250507f3d3d000000000000000000000000000000000000000000000000000000000000816002600681101515610b5a57fe5b602002019060001916908160001916815250507f3e3d000000000000000000000000000000000000000000000000000000000000816003600681101515610b9d57fe5b602002019060001916908160001916815250507f3e00000000000000000000000000000000000000000000000000000000000000816004600681101515610be057fe5b602002019060001916908160001916815250507f213d000000000000000000000000000000000000000000000000000000000000816005600681101515610c2357fe5b602002019060001916908160001916815250508091505090565b6000610c47610dc7565b6000610c51610a94565b9150600090505b6006811015610d9d576002846000604051602001526040518082805190602001908083835b602083101515610ca25780518252602082019150602081019050602083039250610c7d565b6001836020036101000a03801982511681845116808217855250505050505090500191505060206040518083038160008661646e5a03f11515610ce457600080fd5b505060405180519050600019166002856000604051602001526040518082805190602001908083835b602083101515610d325780518252602082019150602081019050602083039250610d0d565b6001836020036101000a03801982511681845116808217855250505050505090500191505060206040518083038160008661646e5a03f11515610d7457600080fd5b505060405180519050600019161415610d905760019250610da2565b8080600101915050610c58565b600092505b5050919050565b6000600454905090565b602060405190810160405280600081525090565b60c0604051908101604052806006905b6000801916815260200190600190039081610dd757905050905600a165627a7a7230582063cb83abae191e92751675e89e04944b2ea6cf2ef430f119202466466e0c69fb0029",
  "source": "pragma solidity ^0.4.17;\r\n\r\nimport { Owned } from './Owned.sol';\r\nimport { Validated } from './Validated.sol';\r\n\r\ncontract Token is Owned, Validated {\r\n\r\n    uint private _fundSize;\r\n    string private _name;\r\n\r\n    function Token(string name, address owner, uint fundSize, string key, string operator, uint value) public Owned(owner) Validated(key, operator, value) {\r\n        _fundSize = fundSize;\r\n        _name = name;\r\n    }\r\n    \r\n    function getFundSize() public view returns (uint fundSize) {\r\n        return _fundSize;\r\n    }\r\n\r\n    function getName() public view returns (string name) {\r\n        return _name;\r\n    }\r\n}",
  "sourcePath": "C:\\Users\\Martijn.Doornik\\Projects\\proofs-of-concept\\demo003-platform\\contracts\\Token.sol",
  "compiler": {
    "name": "solc",
    "version": "0.4.18+commit.9cf6e910.Emscripten.clang"
  },
  "schemaVersion": "1.0.1",
  "updatedAt": "2017-12-15T12:24:40.307Z"
}