{
  "contractName": "Validated",
  "abi": [
    {
      "constant": true,
      "inputs": [
        {
          "name": "identity",
          "type": "address"
        }
      ],
      "name": "validate",
      "outputs": [
        {
          "name": "isValid",
          "type": "bool"
        }
      ],
      "payable": false,
      "stateMutability": "view",
      "type": "function"
    },
    {
      "constant": true,
      "inputs": [
        {
          "name": "identity",
          "type": "address"
        }
      ],
      "name": "hasPermission",
      "outputs": [
        {
          "name": "has",
          "type": "bool"
        }
      ],
      "payable": false,
      "stateMutability": "view",
      "type": "function"
    },
    {
      "constant": true,
      "inputs": [],
      "name": "getValidOperators",
      "outputs": [
        {
          "name": "operators",
          "type": "bytes32[6]"
        }
      ],
      "payable": false,
      "stateMutability": "pure",
      "type": "function"
    },
    {
      "constant": true,
      "inputs": [
        {
          "name": "operator",
          "type": "string"
        }
      ],
      "name": "isValidOperator",
      "outputs": [
        {
          "name": "",
          "type": "bool"
        }
      ],
      "payable": false,
      "stateMutability": "pure",
      "type": "function"
    },
    {
      "inputs": [
        {
          "name": "key",
          "type": "string"
        },
        {
          "name": "operator",
          "type": "string"
        },
        {
          "name": "value",
          "type": "uint256"
        }
      ],
      "payable": false,
      "stateMutability": "nonpayable",
      "type": "constructor"
    }
  ],
  "bytecode": "0x6060604052341561000f57600080fd5b604051610be1380380610be183398101604052808051820191906020018051820191906020018051906020019091905050826000908051906020019061005692919061007d565b50816001908051906020019061006d92919061007d565b5080600281905550505050610122565b828054600181600116156101000203166002900490600052602060002090601f016020900481019282601f106100be57805160ff19168380011785556100ec565b828001600101855582156100ec579182015b828111156100eb5782518255916020019190600101906100d0565b5b5090506100f991906100fd565b5090565b61011f91905b8082111561011b576000816000905550600101610103565b5090565b90565b610ab0806101316000396000f300606060405260043610610062576000357c0100000000000000000000000000000000000000000000000000000000900463ffffffff168063207c64fb1461006757806397128e00146100b8578063b67d103f14610109578063baed35791461015a575b600080fd5b341561007257600080fd5b61009e600480803573ffffffffffffffffffffffffffffffffffffffff169060200190919050506101cf565b604051808215151515815260200191505060405180910390f35b34156100c357600080fd5b6100ef600480803573ffffffffffffffffffffffffffffffffffffffff1690602001909190505061067d565b604051808215151515815260200191505060405180910390f35b341561011457600080fd5b61011c610744565b6040518082600660200280838360005b8381101561014757808201518184015260208101905061012c565b5050505090500191505060405180910390f35b341561016557600080fd5b6101b5600480803590602001908201803590602001908080601f016020809104026020016040519081016040528093929190818152602001838380828437820191505050505050919050506108ed565b604051808215151515815260200191505060405180910390f35b6000806000808473ffffffffffffffffffffffffffffffffffffffff1663960384a0600080604051604001526040518263ffffffff167c010000000000000000000000000000000000000000000000000000000002815260040180806020018281038252838181546001816001161561010002031660029004815260200191508054600181600116156101000203166002900480156102af5780601f10610284576101008083540402835291602001916102af565b820191906000526020600020905b81548152906001019060200180831161029257829003601f168201915b5050925050506040805180830381600087803b15156102cd57600080fd5b6102c65a03f115156102de57600080fd5b505050604051805190602001805190509250925060026001600060405160200152604051808280546001816001161561010002031660029004801561035a5780601f1061033857610100808354040283529182019161035a565b820191906000526020600020905b815481529060010190602001808311610346575b505091505060206040518083038160008661646e5a03f1151561037c57600080fd5b5050604051805190509050600082111561067057600260006040516020015260405180807f3e3d000000000000000000000000000000000000000000000000000000000000815250600201905060206040518083038160008661646e5a03f115156103e657600080fd5b505060405180519050600019168160001916141561040b576002548310159350610675565b600260006040516020015260405180807f3c3d000000000000000000000000000000000000000000000000000000000000815250600201905060206040518083038160008661646e5a03f1151561046157600080fd5b5050604051805190506000191681600019161415610486576002548311159350610675565b600260006040516020015260405180807f3d3d000000000000000000000000000000000000000000000000000000000000815250600201905060206040518083038160008661646e5a03f115156104dc57600080fd5b50506040518051905060001916816000191614156105005760025483149350610675565b600260006040516020015260405180807f213d000000000000000000000000000000000000000000000000000000000000815250600201905060206040518083038160008661646e5a03f1151561055657600080fd5b505060405180519050600019168160001916141561057b576002548314159350610675565b600260006040516020015260405180807f3e00000000000000000000000000000000000000000000000000000000000000815250600101905060206040518083038160008661646e5a03f115156105d157600080fd5b50506040518051905060001916816000191614156105f55760025483119350610675565b600260006040516020015260405180807f3c00000000000000000000000000000000000000000000000000000000000000815250600101905060206040518083038160008661646e5a03f1151561064b57600080fd5b505060405180519050600019168160001916141561066f5760025483109350610675565b5b600093505b505050919050565b60008173ffffffffffffffffffffffffffffffffffffffff166397128e00306000604051602001526040518263ffffffff167c0100000000000000000000000000000000000000000000000000000000028152600401808273ffffffffffffffffffffffffffffffffffffffff1673ffffffffffffffffffffffffffffffffffffffff168152602001915050602060405180830381600087803b151561072257600080fd5b6102c65a03f1151561073357600080fd5b505050604051805190509050919050565b61074c610a59565b610754610a59565b7f3c0000000000000000000000000000000000000000000000000000000000000081600060068110151561078457fe5b602002019060001916908160001916815250507f3c3d0000000000000000000000000000000000000000000000000000000000008160016006811015156107c757fe5b602002019060001916908160001916815250507f3d3d00000000000000000000000000000000000000000000000000000000000081600260068110151561080a57fe5b602002019060001916908160001916815250507f3e3d00000000000000000000000000000000000000000000000000000000000081600360068110151561084d57fe5b602002019060001916908160001916815250507f3e0000000000000000000000000000000000000000000000000000000000000081600460068110151561089057fe5b602002019060001916908160001916815250507f213d0000000000000000000000000000000000000000000000000000000000008160056006811015156108d357fe5b602002019060001916908160001916815250508091505090565b60006108f7610a59565b6000610901610744565b9150600090505b6006811015610a4d576002846000604051602001526040518082805190602001908083835b602083101515610952578051825260208201915060208101905060208303925061092d565b6001836020036101000a03801982511681845116808217855250505050505090500191505060206040518083038160008661646e5a03f1151561099457600080fd5b505060405180519050600019166002856000604051602001526040518082805190602001908083835b6020831015156109e257805182526020820191506020810190506020830392506109bd565b6001836020036101000a03801982511681845116808217855250505050505090500191505060206040518083038160008661646e5a03f11515610a2457600080fd5b505060405180519050600019161415610a405760019250610a52565b8080600101915050610908565b600092505b5050919050565b60c0604051908101604052806006905b6000801916815260200190600190039081610a6957905050905600a165627a7a7230582005fc02257a34af71d5fe417397490a2ab201197f4a9902d14bb5e6562179a4d50029",
  "source": "pragma solidity ^0.4.17;\r\n\r\nimport { Identity } from './Identity.sol';\r\n\r\ncontract Validated {\r\n\r\n    string _validationKey;\r\n    string _validationOperator;\r\n    uint _validationValue;\r\n\r\n    modifier requiresPermissionFrom(Identity identity) {\r\n        require(hasPermission(identity));\r\n        _;\r\n    }\r\n\r\n    function Validated(string key, string operator, uint value) public {\r\n        _validationKey = key;\r\n        _validationOperator = operator;\r\n        _validationValue = value;\r\n    }\r\n\r\n    function getValidOperators() public pure returns (bytes32[6] operators) {\r\n        bytes32[6] memory ret;\r\n        ret[0] = \"<\";\r\n        ret[1] = \"<=\";\r\n        ret[2] = \"==\";\r\n        ret[3] = \">=\";\r\n        ret[4] = \">\";\r\n        ret[5] = \"!=\";\r\n        return ret;\r\n    }\r\n\r\n    function hasPermission(Identity identity) public view returns (bool has) {\r\n        return identity.hasPermission(this);\r\n    }\r\n\r\n    function isValidOperator(string operator) public pure returns (bool) {\r\n        bytes32[6] memory operators = getValidOperators();\r\n        for (uint i = 0; i < operators.length; i++) {\r\n            if (sha256(operator) == sha256(operator)) {\r\n                return true;\r\n            }\r\n        }\r\n        return false;\r\n    }\r\n\r\n    function validate(Identity identity) public view returns (bool isValid) {\r\n        var ( value, voteCount ) = identity.getValue(_validationKey);\r\n        bytes32 operator = sha256(_validationOperator);\r\n        if (voteCount > 0) {\r\n            if (operator == sha256(\">=\")) {\r\n                return value >= _validationValue;\r\n            } else if (operator == sha256(\"<=\")) {\r\n                return value <= _validationValue;\r\n            } else if (operator == sha256(\"==\")) {\r\n                return value == _validationValue;\r\n            } else if (operator == sha256(\"!=\")) {\r\n                return value != _validationValue;\r\n            } else if (operator == sha256(\">\")) {\r\n                return value > _validationValue;\r\n            } else if (operator == sha256(\"<\")) {\r\n                return value < _validationValue;\r\n            } \r\n        }\r\n        return false;\r\n    }\r\n\r\n}",
  "sourcePath": "C:\\Users\\Martijn.Doornik\\Projects\\proofs-of-concept\\demo003-platform\\contracts\\Validated.sol",
  "compiler": {
    "name": "solc",
    "version": "0.4.18+commit.9cf6e910.Emscripten.clang"
  },
  "schemaVersion": "1.0.1",
  "updatedAt": "2017-12-15T12:24:40.307Z"
}