{
  "contractName": "Validated",
  "abi": [
    {
      "constant": true,
      "inputs": [
        {
          "name": "identity",
          "type": "address"
        }
      ],
      "name": "validate",
      "outputs": [
        {
          "name": "isValid",
          "type": "bool"
        }
      ],
      "payable": false,
      "stateMutability": "view",
      "type": "function"
    },
    {
      "constant": true,
      "inputs": [],
      "name": "_validationOperator",
      "outputs": [
        {
          "name": "",
          "type": "string"
        }
      ],
      "payable": false,
      "stateMutability": "view",
      "type": "function"
    },
    {
      "constant": true,
      "inputs": [
        {
          "name": "identity",
          "type": "address"
        }
      ],
      "name": "hasPermission",
      "outputs": [
        {
          "name": "has",
          "type": "bool"
        }
      ],
      "payable": false,
      "stateMutability": "view",
      "type": "function"
    },
    {
      "constant": true,
      "inputs": [],
      "name": "_validationKey",
      "outputs": [
        {
          "name": "",
          "type": "string"
        }
      ],
      "payable": false,
      "stateMutability": "view",
      "type": "function"
    },
    {
      "constant": true,
      "inputs": [],
      "name": "getValidOperators",
      "outputs": [
        {
          "name": "operators",
          "type": "bytes32[6]"
        }
      ],
      "payable": false,
      "stateMutability": "pure",
      "type": "function"
    },
    {
      "constant": true,
      "inputs": [
        {
          "name": "operator",
          "type": "string"
        }
      ],
      "name": "isValidOperator",
      "outputs": [
        {
          "name": "",
          "type": "bool"
        }
      ],
      "payable": false,
      "stateMutability": "pure",
      "type": "function"
    },
    {
      "constant": true,
      "inputs": [],
      "name": "_validationValue",
      "outputs": [
        {
          "name": "",
          "type": "uint256"
        }
      ],
      "payable": false,
      "stateMutability": "view",
      "type": "function"
    },
    {
      "inputs": [
        {
          "name": "key",
          "type": "string"
        },
        {
          "name": "operator",
          "type": "string"
        },
        {
          "name": "value",
          "type": "uint256"
        }
      ],
      "payable": false,
      "stateMutability": "nonpayable",
      "type": "constructor"
    }
  ],
  "bytecode": "0x6060604052341561000f57600080fd5b604051610e9b380380610e9b83398101604052808051820191906020018051820191906020018051906020019091905050826000908051906020019061005692919061007d565b50816001908051906020019061006d92919061007d565b5080600281905550505050610122565b828054600181600116156101000203166002900490600052602060002090601f016020900481019282601f106100be57805160ff19168380011785556100ec565b828001600101855582156100ec579182015b828111156100eb5782518255916020019190600101906100d0565b5b5090506100f991906100fd565b5090565b61011f91905b8082111561011b576000816000905550600101610103565b5090565b90565b610d6a806101316000396000f300606060405260043610610083576000357c0100000000000000000000000000000000000000000000000000000000900463ffffffff168063207c64fb146100885780636299aede146100d957806397128e0014610167578063a55f1c13146101b8578063b67d103f14610246578063baed357914610297578063d96ca7e71461030c575b600080fd5b341561009357600080fd5b6100bf600480803573ffffffffffffffffffffffffffffffffffffffff16906020019091905050610335565b604051808215151515815260200191505060405180910390f35b34156100e457600080fd5b6100ec6107f5565b6040518080602001828103825283818151815260200191508051906020019080838360005b8381101561012c578082015181840152602081019050610111565b50505050905090810190601f1680156101595780820380516001836020036101000a031916815260200191505b509250505060405180910390f35b341561017257600080fd5b61019e600480803573ffffffffffffffffffffffffffffffffffffffff16906020019091905050610893565b604051808215151515815260200191505060405180910390f35b34156101c357600080fd5b6101cb61095a565b6040518080602001828103825283818151815260200191508051906020019080838360005b8381101561020b5780820151818401526020810190506101f0565b50505050905090810190601f1680156102385780820380516001836020036101000a031916815260200191505b509250505060405180910390f35b341561025157600080fd5b6102596109f8565b6040518082600660200280838360005b83811015610284578082015181840152602081019050610269565b5050505090500191505060405180910390f35b34156102a257600080fd5b6102f2600480803590602001908201803590602001908080601f01602080910402602001604051908101604052809392919081815260200183838082843782019150505050505091905050610ba1565b604051808215151515815260200191505060405180910390f35b341561031757600080fd5b61031f610d0d565b6040518082815260200191505060405180910390f35b6000806000808473ffffffffffffffffffffffffffffffffffffffff1663960384a0600080604051604001526040518263ffffffff167c010000000000000000000000000000000000000000000000000000000002815260040180806020018281038252838181546001816001161561010002031660029004815260200191508054600181600116156101000203166002900480156104155780601f106103ea57610100808354040283529160200191610415565b820191906000526020600020905b8154815290600101906020018083116103f857829003601f168201915b5050925050506040805180830381600087803b151561043357600080fd5b6102c65a03f1151561044457600080fd5b50505060405180519060200180519050925092506002600160006040516020015260405180828054600181600116156101000203166002900480156104c05780601f1061049e5761010080835404028352918201916104c0565b820191906000526020600020905b8154815290600101906020018083116104ac575b505091505060206040518083038160008661646e5a03f115156104e257600080fd5b505060405180519050905060008211156107e857600260006040516020015260405180807f3e3d000000000000000000000000000000000000000000000000000000000000815250600201905060206040518083038160008661646e5a03f1151561054c57600080fd5b5050604051805190506000191681600019161415610574576002548360ff16101593506107ed565b600260006040516020015260405180807f3c3d000000000000000000000000000000000000000000000000000000000000815250600201905060206040518083038160008661646e5a03f115156105ca57600080fd5b50506040518051905060001916816000191614156105f2576002548360ff16111593506107ed565b600260006040516020015260405180807f3d3d000000000000000000000000000000000000000000000000000000000000815250600201905060206040518083038160008661646e5a03f1151561064857600080fd5b505060405180519050600019168160001916141561066f576002548360ff161493506107ed565b600260006040516020015260405180807f213d000000000000000000000000000000000000000000000000000000000000815250600201905060206040518083038160008661646e5a03f115156106c557600080fd5b50506040518051905060001916816000191614156106ed576002548360ff16141593506107ed565b600260006040516020015260405180807f3e00000000000000000000000000000000000000000000000000000000000000815250600101905060206040518083038160008661646e5a03f1151561074357600080fd5b505060405180519050600019168160001916141561076a576002548360ff161193506107ed565b600260006040516020015260405180807f3c00000000000000000000000000000000000000000000000000000000000000815250600101905060206040518083038160008661646e5a03f115156107c057600080fd5b50506040518051905060001916816000191614156107e7576002548360ff161093506107ed565b5b600093505b505050919050565b60018054600181600116156101000203166002900480601f01602080910402602001604051908101604052809291908181526020018280546001816001161561010002031660029004801561088b5780601f106108605761010080835404028352916020019161088b565b820191906000526020600020905b81548152906001019060200180831161086e57829003601f168201915b505050505081565b60008173ffffffffffffffffffffffffffffffffffffffff166397128e00306000604051602001526040518263ffffffff167c0100000000000000000000000000000000000000000000000000000000028152600401808273ffffffffffffffffffffffffffffffffffffffff1673ffffffffffffffffffffffffffffffffffffffff168152602001915050602060405180830381600087803b151561093857600080fd5b6102c65a03f1151561094957600080fd5b505050604051805190509050919050565b60008054600181600116156101000203166002900480601f0160208091040260200160405190810160405280929190818152602001828054600181600116156101000203166002900480156109f05780601f106109c5576101008083540402835291602001916109f0565b820191906000526020600020905b8154815290600101906020018083116109d357829003601f168201915b505050505081565b610a00610d13565b610a08610d13565b7f3c00000000000000000000000000000000000000000000000000000000000000816000600681101515610a3857fe5b602002019060001916908160001916815250507f3c3d000000000000000000000000000000000000000000000000000000000000816001600681101515610a7b57fe5b602002019060001916908160001916815250507f3d3d000000000000000000000000000000000000000000000000000000000000816002600681101515610abe57fe5b602002019060001916908160001916815250507f3e3d000000000000000000000000000000000000000000000000000000000000816003600681101515610b0157fe5b602002019060001916908160001916815250507f3e00000000000000000000000000000000000000000000000000000000000000816004600681101515610b4457fe5b602002019060001916908160001916815250507f213d000000000000000000000000000000000000000000000000000000000000816005600681101515610b8757fe5b602002019060001916908160001916815250508091505090565b6000610bab610d13565b6000610bb56109f8565b9150600090505b6006811015610d01576002846000604051602001526040518082805190602001908083835b602083101515610c065780518252602082019150602081019050602083039250610be1565b6001836020036101000a03801982511681845116808217855250505050505090500191505060206040518083038160008661646e5a03f11515610c4857600080fd5b505060405180519050600019166002856000604051602001526040518082805190602001908083835b602083101515610c965780518252602082019150602081019050602083039250610c71565b6001836020036101000a03801982511681845116808217855250505050505090500191505060206040518083038160008661646e5a03f11515610cd857600080fd5b505060405180519050600019161415610cf45760019250610d06565b8080600101915050610bbc565b600092505b5050919050565b60025481565b60c0604051908101604052806006905b6000801916815260200190600190039081610d2357905050905600a165627a7a723058206245815b3dfdb520248b755ed4a021a3456cc9233f570df95eb6fa114211ffe80029",
  "source": "pragma solidity ^0.4.17;\r\n\r\nimport { Identity } from './Identity.sol';\r\n\r\ncontract Validated {\r\n\r\n    string public _validationKey;\r\n    string public _validationOperator;\r\n    uint public _validationValue;\r\n\r\n    modifier requiresPermissionFrom(Identity identity) {\r\n        require(hasPermission(identity));\r\n        _;\r\n    }\r\n\r\n    function Validated(string key, string operator, uint value) public {\r\n        _validationKey = key;\r\n        _validationOperator = operator;\r\n        _validationValue = value;\r\n    }\r\n\r\n    function getValidOperators() public pure returns (bytes32[6] operators) {\r\n        bytes32[6] memory ret;\r\n        ret[0] = \"<\";\r\n        ret[1] = \"<=\";\r\n        ret[2] = \"==\";\r\n        ret[3] = \">=\";\r\n        ret[4] = \">\";\r\n        ret[5] = \"!=\";\r\n        return ret;\r\n    }\r\n\r\n    function hasPermission(Identity identity) public view returns (bool has) {\r\n        return identity.hasPermission(address(this));\r\n    }\r\n\r\n    function isValidOperator(string operator) public pure returns (bool) {\r\n        bytes32[6] memory operators = getValidOperators();\r\n        for (uint i = 0; i < operators.length; i++) {\r\n            if (sha256(operator) == sha256(operator)) {\r\n                return true;\r\n            }\r\n        }\r\n        return false;\r\n    }\r\n\r\n    function validate(Identity identity) public view returns (bool isValid) {\r\n        var ( value, voteCount ) = identity.getValue(_validationKey);\r\n        bytes32 operator = sha256(_validationOperator);\r\n        if (voteCount > 0) {\r\n            if (operator == sha256(\">=\")) {\r\n                return value >= _validationValue;\r\n            } else if (operator == sha256(\"<=\")) {\r\n                return value <= _validationValue;\r\n            } else if (operator == sha256(\"==\")) {\r\n                return value == _validationValue;\r\n            } else if (operator == sha256(\"!=\")) {\r\n                return value != _validationValue;\r\n            } else if (operator == sha256(\">\")) {\r\n                return value > _validationValue;\r\n            } else if (operator == sha256(\"<\")) {\r\n                return value < _validationValue;\r\n            } \r\n        }\r\n        return false;\r\n    }\r\n\r\n}",
  "sourcePath": "C:\\Users\\Martijn.Doornik\\Projects\\proofs-of-concept\\demo003-platform\\contracts\\Validated.sol",
  "compiler": {
    "name": "solc",
    "version": "0.4.18+commit.9cf6e910.Emscripten.clang"
  },
  "schemaVersion": "1.0.1",
  "updatedAt": "2017-12-19T17:40:56.542Z"
}